:020000040000FA
:06000000021002020605D9
:03002B00020DB50E
:03003300020A6F4F
:0300530002053A69
:03006B00020A3D49
:100083000205990100F0FF0700080000FFFF0000D0
:100093000704000000030001FF14102700000020E4
:1000A300FD000206FFFF1EC2180000D41800000066
:1000B3000000000000000000000000000000001E1F
:1000C300001E001E001E0001040100000203D38570
:1000D300024386020401000002017786017586034C
:1000E300040100000201738601718604040100000B
:1000F30002016F86016D86050401000002016B8613
:10010300017986010400006216000000E803000084
:10011300FFFFBF160188130000E8030000640064BA
:1001230000B801A0BB0D00A0BB0D00020202070432
:100133000101051E02051E020A0A01010108090840
:100143000103B80B02803E0102FEFFE8030A05002B
:1001530001FFFF010A011401E00200000001050391
:1001630001010F10FEFFFA2D00000000922D000088
:100173000000FF000000FF0012104E604612101234
:10018300603DE9687008F618F618F618F6227480D0
:1001930067F71201AF090909748067F72212101279
:1001A300601D12104E7005191919801A120EEE7087
:1001B3001F120EB2C37003E66733191919400718EB
:1001C30018182208080874FFF618F618F618F6220D
:1001D300120EB260171210AF702192F01210C1709C
:1001E30019501720F014080808090909E7F6181927
:1001F300E7F61819E7F61819E7F6221210C160E6B8
:10020300E869701F0808E62480F608E436F61854F7
:100213007FB47F0CE654806007F6E418F618F622E4
:10022300181822E9C6CC08C6CD08C6CE08C6CFC06A
:10023300E0E8C0E0EAC0E0EBC0E009E9F809E7FA6A
:1002430009E7FBE6F918E6F8C3EC98ED99EE9AEBAB
:10025300C2E7F5F0EFC2E795F0500E600CEBCFFB71
:10026300EACEFAE9CDF9E8CCF8EAA2E7D2E7FAEB6D
:1002730033FB13F5F0EEA2E7D2E7FEEF33FFC5F051
:1002830013A2E730E601B313C5F0C3C0E0C0F07FAB
:1002930000C39BFB605E9418600F401D14601AD06E
:1002A300E023F9D0E0F80203818AF0E9486003D241
:1002B300F0E4AFF0FAF9F8803BEB30E40D89F0EAB3
:1002C3006003D2F0E4AFF0F9CAF8EB30E30D88F045
:1002D300EF6002D2F0AFF0E4CAC9F8EB5407601440
:1002E300FBC3EA13FAE913F9E813F8EF135002D248
:1002F300E0FFDBEDD0E0C0E030E739C3E49FFFF57A
:10030300F0EC98FC42F0ED99FD42F0EE9AFE42F0DB
:10031300D0E0F9D0E0F8E5F0607AE923F9EE20E7E0
:1003230042D8028067C3EF33FFEC33FCED33FDEEBD
:1003330033FE80EAEC28FCED39FDEE3AFED0E023F3
:10034300F9D0E0F84002801BC3EE13FEED13FDEC81
:1003530013FCEF135002D2E0FF08B800067F7F744E
:10036300FF802EEF3350178CF020F00260100CBC8E
:10037300000C0DBD00080EBE000408E860DFE93381
:10038300E813FFEE2313FE4F4D4C8008E95480FF22
:10039300E4FEFDFCEE33EF33F47004FCFD7E80D00D
:1003A300E0FBD0E0FAD0E0F8D0E0CFC618CEC61814
:1003B300CDC618CCC6F92200121012604F12104E8F
:1003C3006012E7548066F6120EEE70111210AF70D1
:1003D3003B090909F4F618F618F618F622120EB2BC
:1003E30070151210C108080860EAE6447FF6187613
:1003F3008018E4F618F6221210C160161210AF70BE
:1004030012E4F608F608F608E65480F60909091816
:10041300181822EAC0E0EBC0E0ECC0E0EDC0E0E673
:1004230087F0A4FBACF008E687F0A42CFCE435F0DD
:10043300FA1809E687F0A42C4B60027401CA35F060
:10044300FCE433FB09E687F0D2F7A42CCB35F0FCB0
:100453001908E687F0A42BCC35F0FBE433FD08192B
:10046300E687F0D2E7A42C4ACB35F0CD3400FC0963
:10047300E687F0D2E7A42DCC35F0FDE433FA091872
:10048300E687F0D2F7A42CCD35F0CA3400FC08E699
:1004930087F0D2E7D2F7A42ACC35F07A7E20E70B97
:1004A3000ACB33CBCD33CDCC33CC33CB33501470D9
:1004B30004ED30E00ED2F1E4CD3DCDCC3CCC3B504D
:1004C30005DA05C2F1EB547FC63308E63392F0FB3D
:1004D300E73309E733C39A502D2B70190C0D4C4D9C
:1004E30070151806E608C333700D20F10AA2F01345
:1004F300F6E418800B4024E4F630F002768018F618
:1005030018F618F68024D33B14501074FFA2F0138E
:10051300F6187680E418F618F6800FA2F013F61892
:10052300E63303F618ECF618EDF6D0E0FDD0E0FC68
:10053300D0E0FBD0E0FA22C0E074F1120882A2AF4F
:10054300E433F509D2AF85A708AFA1EF5508FE74D0
:10055300105E600612133A75A1EF74085E6008120C
:10056300134075A1F78024EFA2E092F0E508A2E022
:1005730082F05017906198E0F8900612E0C398A2B9
:10058300D265D0335002E8F075A1FEE509A2E092EE
:10059300AF7F0202093EC0E074F2120882A2AFE408
:1005A30033FED2AF9061A4E0F8759B00E5915854F7
:1005B3000860087591F71213948023E5915854103D
:1005C30060087591EF12139A8014E591A2E092F0FE
:1005D300E8A2E082F05007E0C2E0F01214F090616C
:1005E300A3E0F8E5E9585404600E1214C675E9FB5C
:1005F300906193E0A2E640F2EEA2E092AF7F0102A7
:10060300093EC0E074F2120882A2AFE433FED2AF17
:100613009061A5E0F8E5BF585404600675BFFB126E
:10062300150880D4C3E498F8E499F9120668802683
:10063300C3E49AFAE49BFBE920E7E9120668E4982D
:10064300F8E499F922C3E498F8E499F9120668E406
:1006530098F8E499F9C3E49AFAE49BFB22EB20E7C8
:10066300CFE920E7E0B90010BB0008E88AF084F87E
:10067300AAF022E4FBC8FA22EB70227B10C833C82D
:10068300C933C9335007C39AC3DBF280069A5001BA
:100693002ADBEAC833F4C8C933F4C9FA2275F0086F
:1006A300E4C833C8C933C933C99AC99B5004C92A9A
:1006B300C93BD5F0ECFBC833F4C8E4C9FA220808F7
:1006C30008EAC0E0EBC0E086F0E7A4FA180986F078
:1006D300E7A42AFA180986F0E7A42AFA180986F08B
:1006E300E7A42AFA1986F0E7A4FBE5F02AFA190829
:1006F30086F0E7A42BFBE5F03AFA190886F0E7A4A5
:100703002BFBE5F03AFA18180986F0E7A4C5F02B9D
:10071300FBE43AFA1908E7C5F0C6A426F6E5F03B70
:10072300FBE43AFA1886F0E7A4F6E5F00826F6E4C7
:100733003B08F6E43A08F6D0E0FBD0E0FA22E4CF37
:10074300C0E0E4CEC0E0E4CDC0E0E4CCC0E075F0AE
:1007530020E626F608E633F608E633F608E633F62F
:10076300181818EC33FCED33FDEE33FEEF33FFC303
:10077300EC9709ED9709EE9709EF97191919400FAF
:10078300FFEC97FC09ED97FD09EE97FE191906D5C5
:10079300F0BFECF709EDF709EEF709EFF7191919AF
:1007A300D0E0FCD0E0FDD0E0FED0E0FF222521C563
:1007B30082C0E0E52234FFC583C0E0E521C3958212
:1007C30024F810AF0885832285822180088583223F
:1007D300858221D2AFCEF0A3E520F0A37808E60806
:1007E300F0A3DEFAEFF0A3E58124FAF8E608F0A31C
:1007F300E608F0A3E608F0A30808E608F0A3E60875
:10080300F0A315811581D0E0FED0E0F815811581A4
:100813001581E8C0E0EEC0E02212083330F0051283
:1008230008788000C6CC18C6CB18C6CA18C6F922E9
:10083300E4C9C608CAC608CBC6D3330308CCC6333B
:1008430092F0C3947F402E94184019C9B90704CA83
:10085300CBCC225025C309CA33CACB33CBCC33CC40
:1008630033D9F422F4600DC9CCC313CB13CBCA1311
:10087300CAD9F6CC22E4FCFBFA2214FCFBFA22C010
:10088300D02521C582C0E0E52234FFC583C0E0E561
:1008930021C3958224F310AF0885832285822180AA
:1008A30008858322858221D2AFC8F0A3E9F0A3EAA9
:1008B300F0A3EBF0A37908E709F0A3D8FAECF0A3CF
:1008C300EDF0A3EEF0A3EFF0A3D0E0F0A3D0E0F0BF
:1008D300A3D0E0F0A3E520F0A3E5F0F0A322E979AB
:1008E3009EC608CAC608CBC608CCC6C37020799674
:1008F300CACBCC7019798ECBCC70137986CC700EA1
:10090300F9802ACA33CACB33CBCC33CC331930E783
:10091300F2CCCBCA3350147004EA30E00DE4CA3A87
:10092300CACB3BCBCC3CCC500209C3E913C6CC1891
:100933002313C6CB18C6CA18C6F92285228385217C
:1009430082E0C0E0A3E0F9A3E0FAA3E0FBA3780808
:10095300E0F608A3DFFAE0FCA3E0FDA3E0FEA3E0DA
:10096300FFA3E0C0E0A3E0C0E0A3E0F5D0A3E0F57F
:1009730020A3E0A3F5F010AF0885832285822180B0
:1009830008858322858221D2AFD082D083D0E0F83C
:10099300D0E03212109AB900030209D5E4900501A0
:1009A30078B879158002F0A3D8FCD9FA7AB87B1904
:1009B30090008678F679018015E493A3AD82AE8327
:1009C3008A828B83F0A3AA82AB838D828E83D8E93C
:1009D300D9E77582537583EE7405120D467582222D
:1009E30075832B7400120D460675F0108E238F2429
:1009F300858228858327852182852283E0CEA3E013
:100A0300CF852882852783EBC9EAC8EDCBECCAC31F
:100A1300E833C8E933C9EA33CAEB33CBC3EA9EF5FB
:100A230026EB9FF525B35004AB25AA26EC33CCED7A
:100A330033CDD5F0DAAE23AF2422C0E074F212082E
:100A430082A2AFE433FED2AFE589A2E450031212CF
:100A5300AAE589A2E150031212AA758900758900DB
:100A6300C2EBEEA2E092AF7F0102093EC0E074F256
:100A7300120882A2AFE433FED2AFE58BA2E05003AB
:100A83001212AA758B00C2E880D8121012601C12D1
:100A9300104E60171210C170071210AF7001D322ED
:100AA300C0D01210AF7006D0D0B322C32233D0D03F
:100AB300501430E0F6C3E7960809E7960809E7966D
:100AC3000809E796B32220E0D5E6970809E69708D8
:100AD30009E6970809E697B322D083D082ECC0E0F9
:100AE300EDC0E0E493A3FCE493A3FDED4C600D1291
:100AF3000BB4EC24FFFCED34FFFD80EFE493A3FC87
:100B0300E493A3FDED4C600D120C51EC24FFFCEDBE
:100B130034FFFD80EFD0E0FDD0E0FCE493A3C0E020
:100B2300E493C0E022D083D082E9C0E0E493A3C37E
:100B330086F0C5F095F0F908E493A386F0C5F09527
:100B4300F0700BE493A3C3994005E9048002A3E486
:100B530075F002A42582F582E5F03583F583D0E0B4
:100B6300F9E493A3C0E0E493C0E0228522838521C6
:100B730082E0A3FEE0A3F5207808E0A3F608DFFAFD
:100B8300E0A3FFE0A3C0E0E0A3C0E0E0A3C0E0E097
:100B9300A3C0E0E0A3C0E010AF08858221858322D3
:100BA3008008858221858322D2AFD083D082020D33
:100BB3004CC0E0C3E49396087401939618400FE485
:100BC3009366700808740193661870007019A3A3E4
:100BD300C3E49396087401939618A3A3400DD0E041
:100BE300D0E0D0E0020B18A3A3A3A3A3A3D0E022D9
:100BF3007404800474028000CCC0E0EDC0E0E52101
:100C0300C39CCCAD2250011D10AF068C218D2280D8
:100C1300068C218D22D2AF120CC8D0E0FDD0E0FCAF
:100C23002274028000CCC0E0EDC0E0E521C39CCC7F
:100C3300AD2250011D10AF068C218D2280068C2120
:100C43008D22D2AF120CA6D0E0FDD0E0FC22C0E092
:100C5300C0F088F0E4936670080874019366187016
:100C630000A8F0A3A3700BD0F0D0E0D0E0D0E00256
:100C73000B18A3A3D0F0D0E022D083D082CCC0E065
:100C8300E493A36006120CE91470FAE493A36006DC
:100C9300120E481470FAD0E0FCE493A3C0E0E4938E
:100CA300C0E022CAC0E0E493A3C582CCC582C58359
:100CB300CDC583F0A3C582CCC582C583CDC583DAF8
:100CC300E5D0E0CA22CAC0E0E0A3C582CCC582C594
:100CD30083CDC583F0A3C582CCC582C583CDC5832F
:100CE300DAE6D0E0CA22C0E0E493A3D39C5010E438
:100CF30093A3C39C400AD0E0D0E0D0E0020C99A3B8
:100D0300A3A3D0E022700908080822601618181857
:100D1300C6C333C608C633C608C633C608C633C6F9
:100D2300D5E0EA22C008C3E096F50808A3E096429E
:100D33000808A3E096420808A3E09645087001D38B
:100D4300D00822C09FF59FE473D09F22D083D08226
:100D5300C09FE493C0E0740193C0E0740293F59FD5
:100D6300227404800A74038006740280027401C032
:100D7300E0F404120D9AD0E012105D2200C0D025D9
:100D83002110AF08F521500C05228008F5215002EF
:100D93000522D2AFD0D0222521F58210AF08F5214C
:100DA300400C15228008F52140021522D2AF85227E
:100DB3008322C0E0C0D0E8C0E0A8A8D2AFC2C7E891
:100DC300A2E792AFD0E0F8D0D0D0E032BB0102E787
:100DD30022C082C08389828A83BB0003E08002E44D
:100DE30093D083D082226016080808C6C313C6189E
:100DF300C613C618C613C618C613C6D5E0EA2225FD
:100E030021F8E43522F9222521FAE43522FB2225B3
:100E130021FCE43522FD22C3E0C696F608A3E0C612
:100E230096F608A3E0C696F608A3E0C696F6222532
:100E33002110AF08F521400C15228008F52140024E
:100E43001522D2AF22C0E0E493A36C7009D0E0D0A6
:100E5300E0D0E0020C99A3A3D0E022C3E09608A35C
:100E6300E09608A3E09608A3E096A2D265D03322C9
:100E7300E76670100809E766700A0809E7667004F8
:100E83000809E76622C3E7960809E7960809E79683
:100E93000809E796A2D265D03322E066701008A352
:100EA300E066700A08A3E066700408A3E0662219EE
:100EB3001919E70947097009E727097005E733F4AA
:100EC300220922C3E096F008A3E096F008A3E09677
:100ED300F008A3E096F022C3E697F60809E697F632
:100EE3000809E697F60809E697F622181818E6089F
:100EF30046087009E626087005E633F4220822C383
:100F0300E493960874019396087402939608740305
:100F1300939622E026F608A3E036F608A3E036F619
:100F230008A3E036F622E627F60809E637F60809AD
:100F3300E637F60809E637F622700422600D18C674
:100F4300C333C608C633C6D5E0F41822E056F0080A
:100F5300A3E056F008A3E056F008A3E056F022E61B
:100F630057F60809E657F60809E657F60809E6575B
:100F7300F622E026F008A3E036F008A3E036F008F6
:100F8300A3E036F022E056F608A3E056F608A3E005
:100F930056F608A3E056F622E493F608740193F696
:100FA30008740293F608740393F622E647F60809D9
:100FB300E647F60809E647F60809E647F622E4C3DA
:100FC30096F608E496F608E496F608E496F622C642
:100FD300F4C608C6F4C608C6F4C608C6F4C622C3D7
:100FE300E09608A3E09608A3E09608A3E09622C340
:100FF300E7960809E7960809E7960809E796227530
:10100300D00075813F75210175220500020996E61E
:10101300084608C3134608336002E633F422600C23
:1010230008C6C313C618C613C6D5E0F422E0F608F3
:10103300A3E0F608A3E0F608A3E0F622E6F008A38F
:10104300E6F008A3E6F008A3E6F022E7094709C3A0
:10105300134709336002E733F422CAC0E0E6F0A382
:1010630008DAFAD0E0FA22E8F0A3E9F0A3EAF0A361
:10107300EBF022E0FAA3E0FBA3E0FCA3E0FD22EA0D
:10108300F0A3EBF0A3ECF0A3EDF022E0F8A3E0F97A
:10109300A3E0FAA3E0FB22E5C754F84401F5C779BE
:1010A30001222521F582E43522F58322E72719471A
:1010B3001947194722C2AF75D69F02000022E626C0
:1010C30018461846184622120D4FDBDA03120D4F4D
:1010D3003ADD03120D4FD1DD03120D4FFEDD031276
:1010E3000D4F4BDE03120D4FD3DE03120D4F8EDF78
:1010F30003120D4FF1DF03120D4F35E003120D4FB5
:10110300CFE003120D4F4DE103120D4F80E10312A7
:101113000D4F8EE203120D4FAEE203120D4F02E3A9
:1011230003120D4FEAE303120D4FECE503120D4FCB
:101133008EE603120D4FDEE803120D4F62E9031230
:101143000D4F67EC03120D4F9BEE03120D4FD3EEC1
:1011530003120D4F32F003120D4F3CF003120D4FEB
:101163008BF003120D4F5DF203120D4F9393051293
:101173000D4F0F9405120D4F429405120D4F7094AD
:1011830005120D4FAE9405120D4FE99605120D4F42
:10119300089705120D4F4D9705120D4FE397051252
:1011A3000D4F2F9805120D4FC39805120D4F9B99A4
:1011B30005120D4FF79905120D4F559A05120D4F54
:1011C300D29A05120D4F089B05120D4F539B051222
:1011D3000D4F799B05120D4F099C05120D4FA09CD5
:1011E30005120D4FEC9C05120D4F1D9D05120D4F61
:1011F300549D05120D4FDA9E05120D4FA49F051243
:101203000D4F74A005120D4FC1DE05120D4FEDDE1B
:1012130005120D4F0DDF05120D4F34DF05120D4F73
:101223007BE005120D4F9CE005120D4F57E10512AF
:101233000D4FB37F00120D4FB87F00120D4FEB7FA0
:1012430000120D4F57EC05120D4F1EED05120D4FF9
:1012530030ED05120D4FB8FA05120D4FD0FA0512F5
:101263000D4FFC7F00120D4FE9FF01120D4FC3F824
:1012730005120D4FD3F805120D4FE5F805120D4F6A
:101283004DF905120D4F71F505120D4FF4F50512C9
:101293000D4F5AF605120D4F0DF305120D4F40F386
:1012A30005120D4FB3F305120D4F06F405120D4F42
:1012B30060D405120D4F6ED405120D4FE7D40512FD
:1012C3000D4FBFD505120D4F82D705120D4F21FAD1
:1012D30005120D4FC3FA02120D4FEFFA02120D4F12
:1012E30033FD02120D4F73FD02120D4FB3FD0212B7
:1012F3000D4FC7FD02120D4FE0FD02120D4FD2FE3E
:1013030002120D4F77FF02120D4F8BFF02120D4F8A
:10131300AFF105120D4FD3F105120D4FECF105128C
:101323000D4F1EF205120D4F4EF205120D4F7BF2BB
:1013330005120D4FDDF205120D4FECF205120D4FA4
:10134300F6F205120D4F03F305120D4FFFE40512DC
:101353000D4F1FE505120D4F5EE505120D4F79E5A3
:1013630005120D4F98E505120D4FFEE505120D4FC1
:1013730007E605120D4F64E605120D4F90E60512C0
:101383000D4F9FE605120D4FC3E605120D4F84E77F
:1013930005120D4F91E705120D4FA2E705120D4FF0
:1013A30050F905120D4F68F905120D4F94F9051206
:1013B3000D4F4AC005120D4F9EC105120D4FACC112
:1013C30005120D4FBFC105120D4FD4C105120D4FAC
:1013D300E9C105120D4FFCC105120D4F70C2051274
:1013E3000D4FD5C205120D4F77C305120D4F3BC4E8
:1013F30005120D4F4BC405120D4F5AC405120D4F64
:101403002AF805120D4F4EF805120D4F76F8051206
:101413000D4F9EF805120D4FD0E705120D4FF7E75C
:1014230005120D4F15E805120D4F88E805120D4FF3
:10143300EEE105120D4F07E205120D4F13E20512FF
:101443000D4F27E205120D4F45E205120D4F4FE2F6
:1014530005120D4F59E205120D4F6CE205120D4FA7
:10146300F6E205120D4F6BE305120D4F9FE30512D4
:101473000D4FEDE305120D4F3AE405120D4F55E400
:1014830005120D4F5FE405120D4F85E405120D4F54
:10149300EAE405120D4F73F705120D4F95F7051288
:1014A3000D4FFFFA05120D4F0AAC05120D4F34AC68
:1014B30005120D4F51AC05120D4F64AC05120D4FC3
:1014C3007AAC05120D4FD8AC05120D4F10AD0512B5
:1014D3000D4F08B105120D4F4DB205120D4F80B2DD
:1014E30005120D4FE3B205120D4F5CB405120D4FFB
:1014F30084B405120D4F99B405120D4FA9B405120A
:101503000D4FEDB405120D4F48B505120D4F58B5EB
:1015130005120D4F41F405120D4F5BF405120D4FEB
:1015230083F405120D4F9CF405120D4FC0F4051200
:101533000D4FDEF405120D4FF5F405120D4F23F593
:1015430005120D4F3EF505120D4FDDF905120D4F36
:10155300B1D005120D4FC1D005120D4FF0D10512B8
:101563000D4F22D205120D4F52D205120D4F75D2D7
:1015730005120D4F8CD205120D4FC6D205120D4F19
:101583002BD305120D4F6DD305120D4FACD305129E
:101593000D4FDDD305120D4F08D405120D4F4BF03F
:1015A30005120D4F6BF005120D4F7FF105120D4F14
:1015B30082F105120D4F07FF03120D4F3DFF03127A
:1015C3000D4F53FF03120D4F95FF03120D4FA5FF50
:1015D30003120D4FE9FF03120D4FD0F704120D4F05
:1015E30013F804120D4F78F804120D4F95F80412F6
:1015F3000D4F37F904120D4F40F904120D4F85F9C1
:1016030004120D4FAEF904120D4FBBF904120D4F26
:1016130036FA04120D4FC1FA04120D4F06FB0412E1
:101623000D4F51FB04120D4FB6FB04120D4FD9FBA6
:1016330004120D4F4AFC04120D4F9FFC04120D4F70
:10164300DAFC04120D4F0FFD04120D4F21FD04129D
:101653000D4F33FD04120D4F52FD04120D4F5BFD70
:1016630004120D4F09FE04120D4F4CFE04120D4FD0
:101673008AFE04120D4F91FF01120D4FB6FE0412A4
:101683000D4F21EA05120D4F57EA05120D4F9FEA40
:1016930005120D4FF8EB05120D4F008005120D4F8B
:1016A300198105120D4F538105120D4F0183051248
:1016B3000D4F2F8305120D4F958505120D4FD585BF
:1016C30005120D4F798705120D4F098805120D4F2D
:1016D3005D8805120D4FFF8805120D4F41890512D4
:1016E3000D4F838905120D4FE08A05120D4F2E8C85
:1016F30005120D4F658E05120D4F938E05120D4F7A
:10170300BA8E05120D4FC38E05120D4F1A8F051297
:101713000D4FB58F05120D4FBD9205120D4F44931A
:1017230005120D4FDFFA05120D4FF5FA05120D4F95
:10173300C7C805120D4FDDC805120D4F81C905122B
:101743000D4FC0C905120D4FDDC905120D4F0ECA4D
:1017530005120D4F5BCA05120D4F8ECA05120D4FB0
:10176300C9CA05120D4FBECC05120D4F73F60512F3
:101773000D4FD2F605120D4F10F705120D4F51F70D
:1017830005120D4F008004120D4F0C8004120D4FF3
:101793006E8004120D4F788004120D4F09810412DC
:1017A3000D4F458104120D4F2E8204120D4F4182BD
:1017B30004120D4F8E8204120D4F1D8304120D4F20
:1017C300538304120D4FCE8304120D4F9D850412D3
:1017D3000D4F978704120D4F758804120D4F93898F
:1017E30004120D4FD98B04120D4F1C8D04120D4F93
:1017F300CB8D04120D4F6B9204120D4F5F930412A5
:101803000D4F039404120D4F289404120D4FC494EA
:1018130004120D4FD99404120D4FFD9404120D4F71
:101823006B9504120D4F889504120D4FB295041257
:101833000D4F489704120D4F699704120D4F0F98DF
:1018430004120D4F579804120D4FAC9804120D4F0C
:101853004C9904120D4FB09904120D4F0E9A0412B5
:101863000D4FB79A04120D4F259B04120D4F589B31
:1018730004120D4FC69B04120D4F019D04120D4F10
:10188300779E04120D4F149F04120D4F52A10412A0
:101893000D4FBBA104120D4FE5A104120D4F01A47E
:1018A30004120D4FA8A604120D4FD1A704120D4F19
:1018B30088B505120D4F47B705120D4F2EB9051206
:1018C3000D4F54B905120D4F67B905120D4F8DB960
:1018D30005120D4F0ABA05120D4F96BA05120D4F98
:1018E30027BB05120D4F59FA05120D4FF7D70512F5
:1018F3000D4FB1D805120D4F17D905120D4F38D919
:1019030005120D4F09DA05120D4FB8C704120D4F1A
:10191300E7C704120D4F63C804120D4FB1C9041277
:101923000D4F93CA04120D4F49CC04120D4F6ECCC8
:1019330004120D4FC0CC04120D4F42CD04120D4FB3
:1019430089CD04120D4F9CCD04120D4FF3CD04121B
:101953000D4FB9CE04120D4F29CF04120D4F53CFA3
:1019630004120D4F9CCF04120D4F21D104120D4FC1
:10197300FAD104120D4F43D304120D4F24D4041291
:101983000D4FACD404120D4FEFD404120D4F09D5F3
:1019930004120D4F50D504120D4F70D504120D4F84
:1019A3002BD604120D4F4ED704120D4FA8D7041295
:1019B3000D4FF2D704120D4FEED804120D4F83DBF7
:1019C30004120D4FA2DB04120D4F17DC04120D4F4E
:1019D3003CDC04120D4FA6DC04120D4F6EDD041225
:1019E3000D4FABDD04120D4F25DE04120D4F21DF29
:1019F30004120D4F24DF04120D4F2EDF04120D4F7E
:101A030038DF04120D4F4BDF04120D4FBDDF0412FC
:101A13000D4FF3DF04120D4F1FE004120D4F46E08C
:101A230004120D4F6AE004120D4FA5E004120D4F8E
:101A330017E104120D4F3FE104120D4F49E1041267
:101A43000D4F85E104120D4FBAE104120D4FD0E1A1
:101A530004120D4F97F905120D4FAFF905120D4FF3
:101A6300F97F00120D4FFEAB04120D4F21AC04128F
:101A73000D4F80AD04120D4FC9AD04120D4F30AEA2
:101A830004120D4F8EAE04120D4F91AE04120D4F82
:101A9300DDAE04120D4F4EAF04120D4FE1AF041231
:101AA3000D4FE4AF04120D4F6EB004120D4FAFB0E3
:101AB30004120D4FD4B404120D4F6DB604120D4F22
:101AC300E7B604120D4F56BA04120D4F9FBB041212
:101AD3000D4F71BC04120D4FD6BC04120D4FF8BC50
:101AE30004120D4FBBBE04120D4F91C004120D4FD3
:101AF3003BC104120D4FE8C104120D4FEAC2041298
:101B03000D4F52C504120D4FB7C604120D4FFDC63B
:101B130004120D4FB36C00120D4F5D6D00120D4F8B
:101B2300C36D00120D4FDC6D00120D4F546E001289
:101B33000D4FAA6E00120D4FEE6E00120D4F4D6F3A
:101B430000120D4F5D7000120D4F847300120D4F84
:101B5300B27400120D4F337500120D4F3977001216
:101B63000D4FE77700120D4F837800120D4F457923
:101B730000120D4FF47A00120D4F9C7C00120D4F92
:101B8300477D00120D4F6C7E00120D4F04D90212D7
:101B93000D4F78D902120D4FC0D902120D4F04DA3E
:101BA30002120D4F53DA02120D4F9DDA02120D4F3E
:101BB300D5DA02120D4F53DB02120D4FADDB0212C9
:101BC3000D4F01DD02120D4F90DD02120D4FB0DEFD
:101BD30002120D4FD8DE02120D4F18E002120D4F04
:101BE30029E002120D4F41E002120D4F48E10212AB
:101BF3000D4F10E202120D4F1DE302120D4F41E390
:101C030002120D4F58E302120D4F79E302120D4FEA
:101C13009BE302120D4FB8E302120D4F96E402123A
:101C23000D4FEEE402120D4F7EE702120D4FCDE78A
:101C330002120D4FECE702120D4FD0E802120D4FC6
:101C430006E902120D4F36EA02120D4FB3EA0212F1
:101C53000D4F02EB02120D4F3AEB02120D4F9BEBAD
:101C630002120D4F41EC02120D4F0FEE02120D4FF7
:101C73000FEF02120D4F8DF002120D4F6EF2021292
:101C83000D4FD4F402120D4F84F602120D4F54F788
:101C930002120D4FC2F702120D4FD9F702120D4F68
:101CA300D1F802120D4FC1F902120D4F2CFA021294
:101CB3000D4F87DB05120D4F2CDD05120D4FE9DDAE
:101CC30005120D4F4DDE05120D4FCBCC05120D4FF6
:101CD300E9CC05120D4F2DCD05120D4F53CD051235
:101CE3000D4F79CD05120D4F91CD05120D4FA9CD95
:101CF30005120D4F0CCE05120D4F4ECE05120D4F92
:101D030071CF05120D4F7ACF05120D4F83CF0512F8
:101D13000D4F8CCF05120D4F85FB01120D4FB7CF21
:101D230005120D4F62BB05120D4F8EBF05120D4FED
:101D33009CBF05120D4FA1BF05120D4F94D703127F
:101D43000D4F8CFA05120D4F9FFF02120D4FAFFF7F
:101D530002120D4F93C405120D4F008002120D4F56
:101D6300328002120D4F9E8002120D4F39810212F2
:101D73000D4FD88102120D4F1D8202120D4F3F826B
:101D830002120D4F588202120D4F7E8202120D4F26
:101D9300F1D503120D4FDE8202120D4F2283021280
:101DA3000D4F448302120D4FA68302120D4F6D8413
:101DB30002120D4F248502120D4F968502120D4F0C
:101DC300688602120D4FB28602120D4F058702126A
:101DD3000D4F6B8702120D4FA58702120D4FF78728
:101DE30002120D4F138802120D4F3E8802120D4F3F
:101DF300458A02120D4F998B02120D4FBB8B0212B3
:101E03000D4FEF8B02120D4F108C02120D4F1F8CD2
:101E130002120D4F2A8C02120D4FDA8C02120D4F53
:101E2300438D02120D4FF08D02120D4F288E0212B8
:101E33000D4FEE8E02120D4FFB8F02120D4F459088
:101E430002120D4FD49002120D4F389102120D4F12
:101E5300739102120D4FDF9302120D4F339502124D
:101E63000D4F6C9802120D4F399902120D4FC799FD
:101E730002120D4FF09902120D4F629A02120D4F8A
:101E8300F69A02120D4F549B02120D4F469C0212FA
:101E93000D4F689C02120D4FC49D02120D4FDD9D24
:101EA30002120D4FF09D02120D4F5F9E02120D4F55
:101EB3006B9F02120D4F789F02120D4F819F0212EA
:101EC3000D4F59A102120D4F7FA202120D4F8FA287
:101ED30002120D4F91A302120D4F08A402120D4FCF
:101EE30037A402120D4F4CA502120D4F18A7021270
:101EF3000D4FF0AA02120D4FFAAA02120D4F0EABAC
:101F030002120D4F18AB02120D4F22AB02120D4FEE
:101F13002CAB02120D4F45AB02120D4F4FAB021209
:101F23000D4FC3AB02120D4FCEAB02120D4FF3ABED
:101F330002120D4FFEAB02120D4F4CAC02120D4FAD
:101F430056AC02120D4F61AC02120D4F85AC02125A
:101F53000D4FA9AC02120D4F05AD02120D4F4BAD43
:101F630002120D4F68AD02120D4FE5AD02120D4F77
:101F73001CAE02120D4F5BAE02120D4FA8AE021241
:101F83000D4F2AAF02120D4FC3AF02120D4F93B183
:101F930002120D4FF1B102120D4F0DB302120D4F8C
:101FA30033B302120D4F72B402120D4F98B70212DF
:101FB3000D4FD9B902120D4FB5BB02120D4F4BBCD9
:101FC30002120D4F72BE02120D4F1EBF02120D4FB1
:101FD30053BF02120D4FB8BF02120D4FC2BF021200
:101FE3000D4FECC102120D4F13C302120D4F53C319
:101FF30002120D4FF9C302120D4F8AC502120D4F83
:1020030013C702120D4F33C702120D4F8CC70212B2
:102013000D4F8EC802120D4FD8C802120D4F28C99A
:1020230002120D4F12CA02120D4F87CA02120D4F30
:10203300A1CB02120D4F1CCC02120D4F21CD021267
:102043000D4FCCCF02120D4FEBCF02120D4F4CD1DF
:1020530002120D4F0ED302120D4F62D302120D4F17
:102063001AD402120D4FC9D402120D4F1FD50212FA
:102073000D4FD5D502120D4F6AD602120D4FD6D68B
:1020830002120D4F10D702120D4F41D702120D4FFE
:102093009DD802120D4F008003120D4F32800312A0
:1020A3000D4F698003120D4F528203120D4F35837A
:1020B30003120D4F8D8303120D4FC88403120D4F6E
:1020C300148503120D4F3C8803120D4F9E8B031290
:1020D3000D4FEB8C03120D4F818D03120D4F8D8D20
:1020E30003120D4FBF8D03120D4F418F03120D4F7E
:1020F300DC9003120D4F849103120D4FC79103120D
:102103000D4F2D9203120D4F4A9203120D4F7A92E7
:1021130003120D4FAF9203120D4F7F9303120D4F16
:10212300289403120D4FAC9603120D4FCC97031254
:102133000D4FB59803120D4F379903120D4F569D4E
:1021430003120D4F939D03120D4FEB9D03120D4F81
:102153001E9E03120D4F9F9E03120D4FEC9E031202
:102163000D4F779F03120D4FC99F03120D4FA0A070
:1021730003120D4F59A103120D4FF4A103120D4F7A
:102183000DA503120D4F2DA603120D4FDAA903124D
:102193000D4FF8AA03120D4FFBAA03120D4F2AABE2
:1021A30003120D4F30AD03120D4F09AE03120D4F45
:1021B3003EAE03120D4F46AF03120D4FFCAF031299
:1021C3000D4F9DB103120D4FC2B103120D4F01B25A
:1021D30003120D4F73B203120D4F57B303120D4F7A
:1021E30024B403120D4F5AB603120D4FCBB603128C
:1021F3000D4F0BB703120D4F6CB703120D4F2FBBCF
:1022030003120D4F1EBC03120D4F05BD03120D4FDC
:102213007DBD03120D4F3FBE03120D4F3DC0031290
:102223000D4F55C003120D4F69C003120D4FA1C0CE
:1022330003120D4FCFC003120D4F56C203120D4FA1
:1022430061C303120D4FB3C303120D4F14C4031222
:102253000D4FC6C403120D4FEDC403120D4FD1C56C
:1022630003120D4F82C603120D4F71C803120D4F97
:10227300A6C803120D4F0EC903120D4F3DCA031218
:102283000D4FEFCA03120D4F20CB03120D4F38CB66
:1022930003120D4FC7CB03120D4F7BCE03120D4F0D
:1022A30053D003120D4F6FD003120D4F8BD0031277
:1022B3000D4F59D103120D4F3DD503120D4F838698
:1022C30001120D4FBB8601120D4F998B01120D4F59
:1022D300DF8B01120D4F2C8D01120D4F978D0112C3
:1022E3000D4F208F01120D4F309201120D4F4B9362
:1022F30001120D4F5D9D01120D4FF09D01120D4F07
:1023030042A101120D4F3EA201120D4F99A20112DB
:102313000D4FE3A301120D4FD1A401120D4F6DA771
:1023230001120D4FE1A801120D4F64A901120D4FC7
:1023330067A901120D4FDCA901120D4FE6A9011285
:102343000D4FF3A901120D4F1EAA01120D4FCEAA74
:1023530001120D4FC7AB01120D4F72AC01120D4F9D
:1023630090AC01120D4FA9AC01120D4FD2AC01126A
:102373000D4FF4AC01120D4F49AF01120D4F0EB0CA
:1023830001120D4F53B001120D4FD2B001120D4F78
:102393007EB101120D4FB0B101120D4F04B2011203
:1023A3000D4F3FB201120D4F86B201120D4FD6B23F
:1023B30001120D4FDBB201120D4F2FB301120D4F5E
:1023C3005BB301120D4F44B401120D4F95B40112CA
:1023D3000D4FF5B401120D4F4FB501120D4FEAB574
:1023E30001120D4F29B901120D4F3BBA01120D4FC6
:1023F300B5BB01120D4FC5BE01120D4F63BF0112D4
:102403000D4F59C201120D4F18C301120D4F5CC37A
:1024130001120D4F07C501120D4F1BC501120D4FC0
:1024230025C501120D4F2FC501120D4F3BC50112DA
:102433000D4F60C501120D4F39C701120D4F8EC7E5
:1024430001120D4F98C701120D4FA2C701120D4F74
:1024530017C801120D4F66C801120D4F77C901123B
:102463000D4FC4C901120D4FD1CA01120D4F15CB27
:1024730001120D4FBBCB01120D4FAECC01120D4F0C
:1024830074CD01120D4F97CE01120D4FB5CF01122E
:102493000D4F9DD001120D4FB5D001120D4F0CD130
:1024A30001120D4F16D101120D4F21D101120D4F03
:1024B3003FD101120D4F87D101120D4FE9D1011206
:1024C3000D4F10D201120D4F22D201120D4FBDD26A
:1024D30001120D4FF2D201120D4FD9D301120D4F3C
:1024E3001ED401120D4F04D501120D4F2BD501122D
:1024F3000D4FAED501120D4F1FD601120D4FA8D7A8
:1025030001120D4FD4D801120D4F97D901120D4F5F
:102513005FDA01120D4FE9DA01120D4F11DC0112DE
:102523000D4FB3DC01120D4F2EDD01120D4FEADD0D
:1025330001120D4F34DE01120D4F8EDE01120D4FCD
:1025430066DF01120D4F89DF01120D4F3CE00112CE
:102553000D4F5EE001120D4FC7E001120D4FDDE29A
:1025630001120D4FD5E301120D4F99E401120D4FE6
:10257300CBE601120D4F15E701120D4F65E701126E
:102583000D4FC9E701120D4F2BE801120D4F59E80A
:1025930001120D4F7DE801120D4FB2E801120D4FEC
:1025A300E3E801120D4F16E901120D4F66E901121E
:1025B3000D4FB9E901120D4FDEEA01120D4F7EEC0A
:1025C30001120D4FD9EC01120D4F02ED01120D4F07
:1025D3008FED01120D4FFDED01120D4F0BEE0112A8
:1025E3000D4F2FEE01120D4F84EE01120D4F9FEE92
:1025F30001120D4F51EF01120D4F89EF01120D4FD3
:10260300CCEF01120D4F2FF001120D4F31F20112D9
:102613000D4F5BF201120D4F52F301120D4F5CF49B
:1026230001120D4F0CF501120D4FF2F303120D4F72
:102633002AF403120D4F4BF403120D4F8DF40312C2
:102643000D4FEFF403120D4FF9F403120D4F09F57B
:1026530003120D4F44F503120D4F24F903120D4FCE
:1026630011FB03120D4FF7FC03120D4F8EFD0312E6
:102673000D4F30FE03120D4FA43200120D4F4F3396
:1026830000120D4FFD3300120D4F033500120D4F95
:10269300233500120D4F4C3600120D4F0738001230
:1026A3000D4F7A3800120D4F1E3900120D4F2A3A82
:1026B30000120D4F953A00120D4FD13A00120D4FF3
:1026C300143B00120D4F4F3B00120D4F913B001274
:1026D3000D4F263C00120D4FA23C00120D4F6C3DD6
:1026E30000120D4F493E00120D4FE13E00120D4FF7
:1026F300FB3E00120D4F2B3F00120D4F5C3F0012AB
:102703000D4F224000120D4F324000120D4F8140F9
:1027130000120D4F8E4000120D4F974000120D4FC7
:10272300154100120D4F714100120D4FBC410012B3
:102733000D4FD74100120D4F024200120D4F1F42A1
:1027430000120D4F2B4200120D4FC24300120D4FCA
:10275300DB4300120D4F604400120D4F734400120F
:102763000D4F924400120D4F364500120D4FB746E0
:1027730000120D4F6A4800120D4F004900120D4F11
:10278300034900120D4F734900120D4F9149001276
:102793000D4F284A00120D4F704A00120D4F734A15
:1027A30000120D4F394B00120D4FA64B00120D4F67
:1027B300CC4B00120D4F574C00120D4F754C0012AD
:1027C3000D4FBB4C00120D4F6F4D00120D4FB94D05
:1027D30000120D4FE84D00120D4F454E00120D4FE4
:1027E3007A4E00120D4FA64E00120D4FB44E00123A
:1027F3000D4F014F00120D4F714F00120D4FBA4F85
:1028030000120D4F065000120D4F325000120D4FA3
:102813003D5000120D4F5B5000120D4F46510012F8
:102823000D4F505100120D4F8B5100120D4F9B5104
:1028330000120D4FEF5100120D4F035200120D4FB6
:10284300325300120D4F475300120D4FD553001250
:102853000D4F1A5400120D4FA65400120D4FB154D0
:1028630000120D4FF35500120D4F0E5600120D4F6F
:102873005A5600120D4FC95600120D4F025700123F
:102883000D4F1C5700120D4F7C5700120D4F1B5854
:1028930000120D4F665800120D4F365B00120D4F9C
:1028A300E85B00120D4F555C00120D4F955E001250
:1028B3000D4FAD5E00120D4FB05E00120D4FBC5EAA
:1028C30000120D4FD05E00120D4FD85E00120D4F57
:1028D3000B5F00120D4F0E6000120D4F9B60001234
:1028E3000D4F0B6100120D4F8D6100120D4F4E62A3
:1028F30000120D4F6D6200120D4F0E6300120D4F4B
:102903006B6300120D4F6E6300120D4FE2630012F2
:102913000D4F316500120D4F376600120D4FC26621
:1029230000120D4FDD6700120D4FA56800120D4F09
:10293300D66800120D4FF96800120D4F026900129C
:102943000D4F316900120D4FC16900120D4F776AA7
:1029530000120D4FEC6A00120D4F936B00120D4FD6
:10296300086C00120D4F3F6C00120D4F7D6C00126E
:102973000D4FD5D603120D4F6AFB01120D4FC9FA45
:1029830001120D4FCDF901120D4FFCF801120D4F3D
:1029930005F701120D4F58F601120D4FEAF501121A
:1029A3000D4FA0F704120D4F96F704120D4F2BF79E
:1029B30004120D4F7FF504120D4FD8EE05120D4F83
:1029C30032D603120D4F3DF504120D4F65F4041278
:1029D3000D4FD2D503120D4F9FD503120D4F4FF458
:1029E30004120D4F10F404120D4F6BF304120D4F2C
:1029F30056F004120D4F29EE04120D4FF9ED041297
:102A03000D4F9DED04120D4F37ED04120D4FF6ECF3
:102A130004120D4F28EC04120D4FC3EB04120D4F9B
:102A230067EB04120D4F0AEB04120D4FA8E90412D1
:102A33000D4F45E904120D4F8FE804120D4F8AE83C
:102A430004120D4F73E804120D4F3EE804120D4FAC
:102A53008AD503120D4F61E504120D4F5FD50312A2
:102A63000D4F4BFF01120D4F13FF01120D4FBCFE13
:102A730001120D4F40FD01120D4F82FC01120D4F4B
:102A83005EE504120D4F1CE504120D4F09E5041217
:102A93000D4FE5FB01120D4FFEE404120D4FDAE476
:102AA30004120D4FF4E204120D4F73E204120D4FA2
:102AB300A08202120D4F2FE204120D4FDBFB011215
:102AC3000D4F03E204120D4FACAB05120D4F6EAB6D
:102AD30005120D4F41AB05120D4F0DAB05120D4FF6
:102AE300ACAA05120D4F94AA05120D4F70AA051238
:102AF3000D4F39A705120D4F05A505120D4FECA279
:102B030005120D4F7BA205120D4F2AA205120D4F80
:102B1300E4A105120D4F4DA105120D4F96CF0500EF
:102B2300000080FB000022E4738F0001008A1A87F3
:102B3300000100881A350004004E1A2500020052D5
:102B43001A26000200541A27000200561A28000110
:102B530000601A29000100611A840004004C1786E2
:102B6300000100C6192A000100621A2B000100634C
:102B73001A2C000100681A2D0008005A172E0001B4
:102B830000691A2F0001006A1A300001006B1A3124
:102B93000001006C1A320001006217330001006368
:102BA30017340001006D1A36000100641738000164
:102BB300006E1A39000100671A83000200861A6347
:102BC3000001006F1764000100641A6500010065CD
:102BD3001A6D00010070177100080052176600019A
:102BE30000851A43000100761A44000200771A4553
:102BF300000100791A460002007A1A4700080067AC
:102C030017480001007C1A4B0001007D1A040001E3
:102C130000891AA10001008D1A370001008C1A885F
:102C23000001008B1A3C00010065173D0001006F95
:102C33001A490002007E1A6700010071174D000255
:102C430000801A4E000100821A4F000200831A3ED0
:102C5300000100751A51000100711A52000100723F
:102C63001A53000100741A54000100661700000093
:102C730000000000013636010100010201000103DA
:102C830001000104010606050200000701003408E3
:102C930001000F090401010D0100FF0E08000017D8
:102CA300020000190100FF1A0100011B0100FE1CB4
:102CB3000100081D0200001F010001200100012185
:102CC3000200002301000F24020000260100012757
:102CD300010008280200FF2A0100072B0102402CF3
:102CE3000100002D0100012E0100012F0100FF3022
:102CF300010B1D310800003A0100083B01000F3CA5
:102D03000100013D0100FF3E0400004204000046B3
:102D13000400004A0400004E040000520400005660
:102D23000400005A0400000000000020017D86001A
:102D3300000100200182860000020020017F86003E
:102D430000030020017E86000004004201B48500D8
:102D530000050042011485000006004201F38400CF
:102D630000070030018186000000404201F3840027
:102D730000FDFF21017B860300000021233316069B
:102D830000000010272F16060003F02123F4190179
:102D9300037103010301030103010301032203027E
:102DA30003010310030003000300030003000300F7
:102DB3000300034203000324030603000300030488
:102DC300031203250323032503230304030403003E
:102DD300030003000344030003000323030003650C
:102DE30003210035038103000305030003000300EF
:102DF3000300032503230303007100300160001166
:102E030000700031022003500480001000610000B4
:102E1300001400630073007200620043000000139B
:102E23000006000000000004001200000000000083
:102E330000000004000400370037003C0244000097
:102E43000000000000000065000000350081000064
:102E53000005000000830000000304710402046005
:102E63000411047004020402040104020410046146
:102E7300040004140463047304720462044304002E
:102E830004130406040004000404041204000400F0
:102E9300040004000451046400000400040004441A
:102EA30004000400040004000465040004350481E4
:102EB3000464000504000483040004030271023067
:102EC300016002110270020102020202028002107A
:102ED3000261023A0041006302730272026202431A
:102EE3000200021302380000020002040212020070
:102EF3000200020002000204020402370037003C11
:102F03000244020002390000020002650200023599
:102F130002810200020502820283020002010171A2
:102F230001010101011101010131010101010180CF
:102F330001100161013B001400630173017201621E
:102F43000143010001130106013D01350004011293
:102F530001000100010001000104010401330133F8
:102F6300013C01440132013600000100016501000A
:102F73000135008101000105018201830100013651
:102F8300000100060000000F000000000000000028
:102F9300000000000003FFFF00000403FFFF000028
:102FA300FFFF0FF4010005C4040320000100000B20
:102FB300000000000000000003010F0000000000FB
:102FC30000000000000000000000000000000000FE
:102FD300000000000000000000000000006E1898D0
:102FE300187418A2177A189E187A18AA188018A2AB
:102FF300177A189E188618A217000000008C18A2D2
:103003001700000000000000009218A21700000043
:1030130000000000000000000000000000000000AD
:10302300000000000000000000000000000000009D
:103033000000000000000000001300DE1A1F00E47F
:103043001A1F80EA1A0000441B0100441B02008A75
:103053001A0280841A0300901A0400961A04809CB2
:103063001A0500A21A0600AE1A3100C01A3300C6B0
:103073001A3400CC1A3600D21AFFFF00000A0000EF
:10308300000200000004000000080000001000001F
:10309300002000000040000000800000000001004C
:1030A30000000200000004000000080000001000FF
:1030B30000002000000040000001FA22062A230835
:1030C30024230B4823104820020023051823070656
:1030D300230CE2220DEE22643E1EFF000007ECFDEE
:1030E300FDFDECDCDCCCBCACAC9C9C8C7C7C6C6CCB
:1030F3005C5C5C4C4C3C3C2C2C1C1C00160F0000F4
:103103000B150B020002220F3300000E0F5A6967E2
:10311300426565416C6C69616E636530390000001E
:103123000000000000000000000000000006000096
:103133000010273116060003F02123F819060000BA
:103143000010273216060003F02123FA19D0D1D23A
:10315300D3D4D5D6D7D8D9DADBDCDDDEDF06000061
:103163000010273016060003F02123F619140AE590
:10317300D5C5B5A5A5958585756500034D4C465107
:10318300181A250502303017181921301B1D1F305E
:10319300303016181920231A1C1E30000119161876
:1031A300161618230300003C40423A3F3F392F478D
:1031B300300C0E020B040B0A0708000F0204020175
:1031C3000101010902060000001027351600BE04A4
:1031D3000AE8030000E80303000100FA0600007F89
:1031E300000000E0307031120006100A0C10080CC9
:1031F3000D030203021E021E0102FF0009033C0C21
:10320300040508150000FF09280805E4F0A3F0A34E
:10321300F0A32212320EF0229018B812481A122686
:10322300E42212322922E0F508E4F509F50AF50B48
:1032330022E824FBF582E934FFF58322E82411F523
:1032430082E439F583E022F58312325022E0F50857
:10325300A3E0F509221229607404120D7F7F08028E
:103263000B6E7401F090062AE0640F227409120DAC
:103273007F7F04020B6EEA2413FAE43FFB12288ECD
:10328300E922790512289A740622A3A3E024F5C340
:1032930094132212296C90064A1267D87A147B0081
:1032A30022C082C08390189774D8F0A37426F0A329
:1032B30074EAF0A37426F090189B74C0F0A37426EC
:1032C300F0A374BAF0A37426F0A374F6F0A37426E3
:1032D300F0A374FCF0A37426F0A374F0F0A3742697
:1032E300F0A374A8F0A37426F09018A774CCF0A3ED
:1032F3007426F0A374D2F0A37426F0A374C6F0A3CB
:103303007426F0A37402F0A37427F09018B8125136
:10331300E960099018B81248161216949018B5125D
:103323004B307408125E85A3F0901961F09018BABF
:10333300F07C0BFDF97ABB7B181215E67C0B7D0044
:1033430079007AC67B181215E602498A74F71207C8
:10335300B074F7120E32EAFEEBFF1233E274051279
:103363004C4E7403F01234F9124C302430FCE43F19
:10337300FD8C821233DA1233EE6008123C0774FFBD
:10338300F0A3F0EE242EE43F1C1CFD8C82F583A3F6
:10339300E0C0E08A828B831248E2D0E01233EE88E9
:1033A30082898312511D2403F0EE123C111210A5E1
:1033B3007403F090063F120BF77402120E121237C9
:1033C300DB120D7FE9F5087007EEFAEFFB122774A5
:1033D300A9087409023C20F583E08882898322EAE4
:1033E3001233E72212532C3FF58322126105124C4C
:1033F3003CE8F0A3E91263DCE02274F01207B0EAC0
:10340300FEEBFF8C0C8D0D890B1234F9F583124CF6
:103413004474101210A5E0F508A31233DCF0E8247D
:10342300FFF582E91237EDE508F0E824FEF582E9BD
:103433001237EDE50BF0900644E0C0E0E824FDF51B
:1034430082E91237EDD0E0F0900643E0C0E0E824D3
:10345300FCF582E91237EDD0E0F074121210A512D8
:10346300324C123234E509F0E824FAF8E934FFF972
:103473008882F583E508F0EE2404FCE43FFD880828
:103483008A828B83E0F50E8C828D83E0250EC395B3
:1034930008126105124A6A850C82850D83A3A3A3D2
:1034A300A3A3A3A3A3E064037009EE124C1EF0A32D
:1034B300E480031237F21237FA7409F07508BB750A
:1034C3000918750A007808120D68125BCF120D7F78
:1034D3007508FF7509FF7808120D6CAC0CAD0D1261
:1034E30037DB120D7FE9F5087007EEFAEFFB1227C1
:1034F30074A908023260EA2402FAE43FFB8A8222BA
:10350300C082C0839018D7E0C39408400474078036
:1035130001E08A828B83F033333354F8F902498A0A
:1035230074F01207B08A088B09890A8C0E8D0F7507
:103533000C00A2AFE433F50BC2AF9018D180451253
:103543003625503D12363F64037036E50824F9F5FD
:1035530008E50934FFF5098E828F83A3A3E02405D0
:10356300FCA3E03400FDAA08AB0912177EE508248A
:10357300FFF508E50934FFF5097410250CF50C1562
:103583000A123A14126B8DE50A6004EE4F70B0E52F
:103593000BA2E092AFA2AFE433F50BC2AF9018D108
:1035A300803E1250F68882F58312436A850882852D
:1035B3000983F08A828983123636A3A3E0C0E0E54B
:1035C3000824FFF582E5091237EDD0E0F0E5082481
:1035D300FEF508E50934FFF509050C150A123A143E
:1035E300123868602112363F640270F1123625EEFC
:1035F30040B0124D65A2E550E4850E82850F8374B9
:1036030001F0E50A70D7E50BA2E092AF8508828549
:103613000983E50CF0E50824FFFAE50934FFFB0212
:10362300326012362BA2E622EE2411F582E43FF536
:1036330083E02212363A2212513BA3228E828F83D9
:10364300A3A31248E61258122274F01207B074F3BF
:10365300120E3274031210A5E9F074021210A5EAD7
:10366300F08B0B852182852283E4F004120E0A126B
:10367300268AE9F8900629E0292437F508FA7B0021
:103683001215F88A0C8B0DAE0CAF0DEA4F700302C6
:1036930037D2EA2402F50EE43FF50FA808EA28F82A
:1036A300E43BF9850E82850F83124166900629E07B
:1036B300F9FAC3E49AFA95E0FB850E82850F83E05D
:1036C3002AF50CA3E03BF50D90062712324C750A40
:1036D300007808120D68E9FC7D00AA0CAB0D124BB3
:1036E300A0120D7FAC21AD2274011210A5E0F9E503
:1036F3000C24FFFAE50D34FFFB1226908A828B839C
:10370300E4F0E50BC454F0F9901962E0C433335488
:10371300C0F8900623E0A2E0E43313134849440FB2
:10372300C0E0EA24FFF582EB1237EDD0E0F0EA24A3
:10373300FEF50CEB34FFF50D74031210A5E0F874DD
:10374300021210A5E0C454F048850C82850D83F065
:10375300A80C850E82850F83125E522AC3988E822F
:103763008F83A3A3A3A3F0850E82850F83E8F0A321
:10377300E50DF01237F21237FAE4F0740C1210A5CB
:10378300E4F07508C67509187808120D68125BCF46
:10379300120D7F852182852283E06009EE240E12BB
:1037A3004D674408F012287CE9F9E4F508F5097837
:1037B30008120D6C7406120E121237DD120D7FE91A
:1037C3007006EEFAEFFB800BEEFAEFFB1215FE7AB2
:1037D300007B00740D02325D7903EEFAEFFB1228D1
:1037E30094740222EE24FFF582EF34FFF58322EE78
:1037F3001233E7E4F0A322F01237FF22EE125AF25B
:103803003FF5832274F21207B08A0C8B0DA2AFE44A
:1038130033F50AC2AF7508007509009018D1802CE2
:10382300123A245024850C82850D83A3A3125BE2F4
:103833008E828F83A3A3124816122882E9600A128C
:103843003A1FC2E6F08E088F09123A1412386870D4
:10385300CFE50845096006123901D2E6F0E50AA270
:10386300E092AF800DE0FEA3E0FFEE4F2274021260
:103873000D7F7F06020B6E74F01207B08A0E8B0F5A
:103883008C0C8D0D750A00A2AFE433F50BC2AF7E2D
:10389300007F009018D18010AE08AF091238F912DA
:1038A3004D65D2E7F01247F412480860341239012B
:1038B300A2E750F1850882850983A3A3120BF7AC15
:1038C3000CAD0DAA0EAB0F1228887402120D7FE9FE
:1038D30060D3EE4F60C2123C9B7006123913D2E4E0
:1038E300F0E50BA2E092AFEE4F600612276E750A69
:1038F30001A90A02326012362BD2E4F0EE22E50867
:10390300125B0C3509F583E022AA82AB8312177E82
:103913008E828F83A3A31248E6E02274F21207B0CB
:1039230074FE120E32750C00750D008521828522FE
:1039330083E4F0A3F0A2AF33F50AC2AF9018D1121B
:103943006B8D802BEE24FBF582EF34FF12324A7825
:103953000C120D6C123A02120D7FEEFCEFFDAA2140
:10396300AB2212161CAE08AF099018D7E014F0EE84
:103973004F602B123A24501DEE240BF8E43FF988D4
:1039830082F583E024FFF0A3E034FFF0888289838B
:103993001251E960AF8E0C8F0D123A1480A1E50A23
:1039A300A2E092AF9018D7E0602C90062AE0640F53
:1039B3006006901961E0701E7AAF7B1812296C9033
:1039C3008667120BF37AAF7B18124A12120D7F80AF
:1039D3000574F01248F3AA21AB221216228A088B2F
:1039E30009AE08AF09EA4F601312269C123A1FA2D0
:1039F300E28E828F83A350D974E980D7023870EEA8
:103A0300FCEFFD7AD17B1812162E7402228E0A8FD8
:103A13000BEE24FBF582EF34FFF58322EE12362CF6
:103A23002212362BA2E72274F71207B0EAFEEBFF4D
:103A330012269C1248DF122B2AE964019006467075
:103A43000AE02401F8A3E034008003124865F91268
:103A53004F67124A6A9018D7E0701F90062AE064F5
:103A63000F70177AAF7B1812296C908667120BF3CD
:103A73007AAF7B18124A12120D7FA8A8C2AF901812
:103A8300D7E004F0E8A2E78004E508A2E092AF02E1
:103A93004E7574F71207B0EAFEEBFFEA123ACBF069
:103AA30012269CEEFCEFFD7AD17B18121628A8A8EB
:103AB300C2AF9018D71243B990062AE0640F70057D
:103AC3007908122834024E7512362CC2E42274F798
:103AD3001207B074EA120E32EAFEEBFF900623E0FF
:103AE300602A8521828522837401F01210A5E412D5
:103AF3003B861210A512390CC0E0740A1210A5D02F
:103B0300E0125E72740B1210A51250D27416023CAE
:103B13002074F71207B0EAFEEBFF12267EE9F97470
:103B2300DC69601E74DD69601974E469601474F300
:103B330069600F74DE69600A74DF69600574DB69AC
:103B43007007EEFAEFFB12283A024E7574F712076C
:103B5300B074EB120E32EAFEEBFF852182852283DD
:103B63007406123B861210A5AA82AB8312177EEE4F
:103B73002408FCE43FFD740A1210A51250D27415F8
:103B8300023C20F0EA2413FCE43FFD74022274F7A4
:103B93001207B074F7120E32EAFEEBFFEA2430127A
:103BA3004D67605DEA123C111210A57403F0900694
:103BB3003F120BF7123C07120BF7900652E0F97411
:103BC30004120E12EEFAEFFB1226847404120D7F18
:103BD300E9F974DC69602374DD69601E74E469606B
:103BE3001974F369601474DE69600F74DF69600A25
:103BF30074E869600574DB697007EEFAEFFB12285D
:103C03003A0233D5EE242EF582E43FF58322125F88
:103C1300E3AA21AB2212177E7408227403120D7FCC
:103C2300024E7574F21207B08A0C8B0D750A00757B
:103C33000B007508E7A2AFE433F509C2AF9018D1C2
:103C43008003123A101238686025123A2450F31296
:103C53003C9B70EEEE2432123E32E06870E4780A48
:103C6300120D6C123A02120D7F9018D7E014F0E592
:103C730009A2E092AFEE4F6013EEFAEFFB12269C1F
:103C830079F0EEFAEFFB12283A750800A908AA0C9E
:103C9300AB0D12283A0238751237FFE06401227423
:103CA300F41207B074F7120E32EAFEEBFF8A82F5C4
:103CB30083A3E064F37003023D408A828B83A3E015
:103CC30064DF60798A828B83A3E064E8606F8A8211
:103CD3008B83A3E064DB60651226DEE9F50870558B
:103CE300EE240E124D67604D123D4A60487408126F
:103CF30010A5123D59120BF77508FF7509FF7808D7
:103D0300120D6C8E828F83A3A3A3A3A3A3A3A3E00B
:103D1300F97404120E121226847404120D7FE9F54D
:103D23000874F369600F74DF69600A74E8696005F9
:103D330074DB69700F8E828F83A3E508F0EEFAEFD0
:103D4300FB1226EA02326FEE240FFAE43FFB7909F5
:103D5300122720EA4B2274021255D874FFF0A312E3
:103D63003D6622125126A3A32274F11207B0EAFE84
:103D7300EBFF7508008A82F583A3A3A3A3A3A31271
:103D8300328D40037508E88A828B83A3A3A3A3A380
:103D9300A3A3A3A3A3E0C3941040057508E880136D
:103DA3008A828B83A3A3A3A3A3A3A3A3A3A3E06454
:103DB3000F600B90193EE0540870037508E8EA247D
:103DC3000B123E32A3A3A3A3A3A3A3A3E0C39850C0
:103DD3000DEA240B124D67640F60037508E8900623
:103DE30043E0F47003A3E0F470037508EC7A237BDB
:103DF3000012168E8B0BA90B9018B8123E41602748
:103E03008E828F83A3A3A982AA83890C8A0D750E40
:103E130000780C120D687C237D009018B8E0FA122C
:103E23004BA0120D7F800375081AA908025BCAF51F
:103E330082E43FF583E0F88A828B83A3A322EAF02E
:103E4300A3EBF0EA492274F51207B0EAFEEBFF8A0E
:103E530082F583A3A3A3A3A3A3A3A3E090062A129B
:103E63003ED9E0900645F0EA240B124D67900625F3
:103E7300123ED9A3E0901962F0F91214429019622C
:103E8300E0600BEE2404124D592406123ECF901924
:103E93006112326560047401800274009018BA12D2
:103EA300651D120D687C0B7D007ABB7B18124BA03D
:103EB300120D7FEE2418F508E43FF5097808120D7A
:103EC300687C0B7D007AC67B18024B8DFAE43FFBBE
:103ED30079E112142A22126507A3A3A3A32274F77C
:103EE3001207B0EAFEEBFF8A82F583A3E0700312A8
:103EF300321B12608E024E7574F71207B0EAFEEBA6
:103F0300FF9018B81251E960109018B81248169033
:103F130018B8E4F0A3F01216948E828F83740812FB
:103F230048FA121D24024E7574F61207B0901961F7
:103F3300E060109018BAE0700A123F49EA4B600340
:103F4300122774026188900625E0FB900645E0FA8B
:103F530090062AE0F91226962274F41207B074E749
:103F6300120E32EAFEEBFF750B018A82F583A3A3DF
:103F7300A3A3A3A3A3E0A2E25069EA242BF582E45E
:103F83003F125BE0EA2413FAE43FFB1226A2E97036
:103F9300529085D1E064017005750B008045124095
:103FA3001B120D687C0B7D007411120E0A124BA0BC
:103FB300120D7F12287CE9FA740E120E028808890A
:103FC300097808120D6C7508307509007808120D10
:103FD3006CEE125E3B120BF7125FD579011232873A
:103FE300120D7F8521828522837410F0125FD574B0
:103FF300021210A5AA82AB83121772EE242B12674A
:10400300CE740B1210A5124A6A740D1210A5E50B9B
:104013001262477419023271EE240812652522C018
:1040230082C083901962E060031228EE02498AC0BD
:1040330082C0839019597497F0A37418F0A3749BEA
:10404300F0A37418F0A374A7F0A37418F0901AA344
:10405300745CF0A3742EF09019437478F0A3742663
:10406300F09018DC74AEF0A37426F09018DE74B4EC
:10407300F0A37426F090193EE0440202448EC082FD
:10408300C083EAFCEBFD7903025195C082C08379BA
:1040930008026308C082C08374FE120E329018E4D3
:1040A300745CF0A37427F09018E67456F0A3742799
:1040B300F080077AD17B181240F39018D11251E99E
:1040C30070F19018D31251E960097AD37B1812402A
:1040D300F380EF9018D1E4F0A3F09018D7F0A3F099
:1040E300A3F09018F27498F0A37427F07402801C64
:1040F300121622852182852283EAF0A3EB1241075F
:1041030012286A22F0AA21AB22227411120D7F0217
:10411300498A74F61207B0E9FF74A929F582E434D9
:1041230031F583E493FEFA7B001215F8EA4B60073E
:10413300EA2E12416380267A027B001215F8EA4BBD
:10414300601774882FF582E43431F583E4938A820F
:104153008B83F0A3741A12452C7A007B00026188CA
:10416300124A59E8126102A3A3A3A3E4F022E9FCD3
:10417300740629F8EAA2E0501EE875F00A84E5F017
:10418300F96014740A28C399F8E9C39405400474C8
:104193000A28F8740B28F8ECC394134004791480AC
:1041A300027906E82979002409F85001097A0A7B83
:1041B30000120660E8F9020D4CC082C08390193EDC
:1041C300E05402600A121D2AE96004790180027931
:1041D3000002498AC082C08390193EE054026014F1
:1041E3009018D7E0700A1251E660091241FC50049E
:1041F30079018002790002498A12323FA2E722C084
:1042030082C0839085CEE0F89018D9E0C39850051A
:104213001215F880047A007B0002498AC082C083A9
:1042230012286A790002498AC082C08374FE120E82
:1042330032852182852283EAF0A3EB124395A3A35F
:10424300A3A3A3E0600A14605724FE605A02430547
:1042530090062AE0640F6012122840E9700C12489D
:10426300109018E01248E2122B2A900652E0C0E0A8
:10427300852182852283125109D0E012439574145B
:10428300125B26FCA3E0FD7AD37B1812161CA8A8A8
:10429300C2AF9018D91243B979201228340240EFE3
:1042A300124663741580D9124663A3A3A3A3E060E7
:1042B30051124663123917C0E0852182852283E0BB
:1042C3002406F582E43BF583D0E0125B262402F852
:1042D300A3E03400F98882F583E02401FAA3E034F3
:1042E30000FB88828983EAF0A3EB125B261246A3C4
:1042F300852182852283601312436A600512437C01
:104303004048AA21AB2212286A809212436A60F2C3
:1043130012437C5021124389FA852182852283A38B
:10432300E0C8240612465FF874BE12531E3431F5FA
:1043330083E4936A601485218285228312436A642D
:104343000870BF124389640870B81243891412437A
:104353009D240AC0E08521828522831248E2D0E0B1
:1043630012439D0402428312436E22124865C824FD
:1043730006F582E438F583E02285218285228312C3
:10438300436EC3940A2285218285228312363AA37F
:10439300E0221243A7F5838882221243A7C824068A
:1043A30012468D22F085218285228312486522A838
:1043B300A8C2AF9018D8E004F0E8A2E792AF22C0F9
:1043C30082C0839018E81251E9600812466A122BE2
:1043D3002A8002790002498A74F71207B0EAFEEBD9
:1043E300FFEA1238007401124A18F8A3E0F91233F5
:1043F300E2124A6AEA2435124D67C0E0EA2413F553
:1044030082E43FF583D0E0F0EA2436124D67C0E042
:10441300EA2414F582E43FF583D0E0F0EA2438126D
:104423004D67C0E0EA2418F582E43FF583D0E0F05D
:10443300EA242FF582E43FF583120BF7125FE2EAD9
:104443002431124D67F91237E1120D7FE9F5087037
:1044530007EEFAEFFB122774A908024E75C082C05B
:1044630083122840E9600479208002790102498A95
:10447300C082C083EA2411124484D2E0800DEA246E
:104483000DF582E43BF583E022F0A3F002498AC0F4
:1044930082C08312448164017011124526400C8A44
:1044A300828B83A3E0F912283A8066124517A2E6AD
:1044B30050128A828B83A3E0F99018E21248E21229
:1044C3002B2A804D1244816401700D124526500839
:1044D3008A828B83743080368A828B83A3E0641B49
:1044E3008A828B83700474228024A3E0700D1244AB
:1044F30081F8749312531E3431800B124481F87483
:104503008812531E3431F583E4938A828B831245D8
:104513002C02498A12451B22EA2410F582E43BF55A
:1045230083E02212451BA2E322F0901939E0F9122D
:1045330016042274F71207B0E9FE1251E670030263
:10454300465CEE6014741B6E701AE8125AF239F569
:1045530083E0640570030246349018DB12466AA3B5
:10456300E402463B74E96E7068E82412F582E4398C
:10457300F583E0700B121D30E960051246AD6061F2
:1045830079EE1213AC9018DA1246849018DA603A76
:104593001246B09018DA700B12468414F012156E9E
:1045A30002465C1246A2C2E712484B240D12465F34
:1045B3006403700912467D124801D2E2F079ED12CC
:1045C30013AC124695122B2A807812467074E98038
:1045D3006774E16E703E121D30E960551246AD708E
:1045E3005090064CE0C0E012467D2412F582E43878
:1045F300F583D0E0F090063BE0C0E09018DA124675
:1046030079124679D0E0F090063BE004F07901128C
:1046130015568045741C6E70189018DA124816905F
:1046230018EA1248E2122B2A9018DAE4F0A3F08079
:10463300289018DA124670EEF09018DA1248161223
:10464300276212482CE0548060031262F79018DA54
:10465300E4F0A3F07910122834024E7512468D222D
:10466300852182852283A3E0F58388822212467402
:10467300221248EAA322125137229018DA12511853
:1046830022125118241212468D22F582E438F58342
:10469300E0229018DA12481A9018DE1248E622E057
:1046A300F8A3E0C8241012468D229018DA1248337A
:1046B300E054042274F41207B0750A00750B00A2CB
:1046C300AFE433FEC2AF1251E660030247AA1248B9
:1046D300DF122B2AE94410F89018D1800985080AC3
:1046E30085090B1247F412480870030247AA1239CE
:1046F30001586870E8780A120D6CAC08AD09123ADB
:1047030006120D7F9018DAE508F0A3E50912484B6D
:10471300124801A2E750030247B19018D8E014F001
:10472300EEA2E092AF9018DAE0240EF8A3E0340092
:10473300F9E8FEE9FF8882F5831248169018DA1229
:10474300438FF9122726E99018D5125E858E828F42
:1047530083E05480601812467D241312465FF912D9
:10476300146612467D241412465FF912145A124835
:104773002CA3E05401605F9018D51251E9604512F3
:1047830048426040124842F879009018D512481602
:10479300120668E8C0E0124820D0E0124850C394E3
:1047A3001340117402800FEEA2E092AF803790188D
:1047B300D70247207400C0E09018DBE0C81247EB33
:1047C300D0E0800D124820740112484B1247EB745D
:1047D30001F07903800C9018DA1246A2A2E1B3E447
:1047E30033F9121556023274241AF582E438F5832C
:1047F30022E50824FBF582E50934FFF58322125BE9
:104803000C12469022123250E50845092285218276
:1048130085228312481A22E0FAA3E0FB22125115E3
:104823002419F582E438F583229018DA12483322EA
:10483300124865C812483B2212532C38F5832212C2
:104843005115241812468D2212485DC82212485D64
:10485300F5838882A3A3A3A3E022F09018DA124879
:104863006522E0F8A3E02274F71207B0EAFEEBFF3B
:10487300122864124D64A2E3400A123C9B70059017
:1048830085CC80039085CDE0F9EEFCEFFD7AD17BFA
:1048930018121634E96038EEFAEFFB9018E4124868
:1048A300E2122B2AEE240E124D67540470121243A7
:1048B300B2EE1233E3A3E05401701E12276E801987
:1048C300EEFAEFFB9018DC1248E2122B2A800A8ED4
:1048D300828F83A374F11248F3024E759018E61287
:1048E30048E6221248EA22E0F8A3E0F58388822210
:1048F3001248FA12276222F0EEFAEFFB22024983F2
:1049030074F71207B0EAFEEBFF790090193EE0540A
:1049130002700CEA2433124D675404600279E89064
:10492300193EE05460700CEA2433124D6754026060
:104933000279E88A828B83A3A3A3A3E0F89085D2AC
:10494300E0C398500279E8EA2431124D67700CEA0B
:10495300242E124D67700479F5800BE97005122738
:1049630050E9F9E96007EEFAEFFB12283A024E75B7
:10497300C082C0838A828B83740DF0121D2480074A
:10498300C082C08312276ED083D082020D4C74F490
:104993001207B0EAFEEBFF8A82F583E4F0A3124A22
:1049A3001854049085CC7012E0F89018D8E0C3989E
:1049B300401279F112283A023274E0F89018D7E0E5
:1049C300C39850EE124A1EA3E054016037EA24371D
:1049D300124D67C394054033EA2433124D675405DF
:1049E30070297AEC7B1812296CEE2437F582E43FA8
:1049F300F5831232257808120D647AEC7B18124A7B
:104A030012120D7FEEFA12540F80AC79E880A512D2
:104A13002960740422F0124A1EE022EA2433F5824C
:104A2300E43FF5832274F61207B0E9FE2451FAE459
:104A33003400FB1215F8EA4B6015EE8A828B83A3D0
:104A4300A3A3A3F0EA2451124A59124A6A80047AB2
:104A5300007B00026188F8E43BF98A828B83A3A37D
:104A6300221267D89019B6E8F0A3E9F0220249832D
:104A7300C082C0839018F574C2F0A37427F0A374A6
:104A8300F2F0A37427F0A374C8F0A37427F0A374FF
:104A9300CEF0A37427F0A374ECF0A37427F0A374EF
:104AA300E0F0A37427F0A374DAF0A37427F0A374DF
:104AB300F8F0A37427F0A374FEF0A37427F0A37493
:104AC30004F0A37428F0A37410F0A37428F0A37463
:104AD300D4F0A37427F0A374BCF0A37427F0A374D9
:104AE300B6F0A37427F090191174E6F0A37427F0BD
:104AF300A3740AF0A37428F0A37424F0A37429F018
:104B0300A37416F0A37428F0A3741CF0A37428F004
:104B1300901935E4F0901938F0901921124B307444
:104B230002F090192A124B30740102448E7434F04F
:104B3300A37428F0A32274F51207B074F1120E3295
:104B43008521828522837402F074011210A5E9F095
:104B530060047AFF7BFF74021210A51255CD75080D
:104B63002D750919750A007808120D687C0B7D00F4
:104B730074071210A5AA82AB83124BA0120D7FAA51
:104B830021AB22121D24740F8003124BA0120D7F40
:104B93007F03020B6E7C0B7D007A2D7B191215DAD5
:104BA30074032274F71207B074FD120E328521824A
:104BB300852283740AF074011210A5E9F0740212BD
:104BC30010A5EA126247023C1E74F61207B074F78E
:104BD300120E32EAFEEBFFEA124C1E124C4E740226
:104BE300F0EA2428FCE43FFDAA21AB22121772EE5F
:104BF3002431124C242433125C46120D6C740212BD
:104C03000E1279831A1A1237DF120D7FE9F5087035
:104C130007EEFAEFFB1227740261811233E7740186
:104C230022F582E43FF5831232501250EEF58312DF
:104C33004C3CE8F0A3E9F0EE22124C448A828B83C9
:104C430022E024FFF8A3E034FFF922F0A3E4F0EA22
:104C53001238002274F01207B01266B612103078C0
:104C630008790C1206C17808120D647A247B1902A4
:104C7300325874F41207B074C6120E3290062AE04A
:104C8300640F600D852182852283742E1255EC807A
:104C9300227A1B7B1912329612066888088909E466
:104CA300F50AF50B7808120D647A1B7B19124A1268
:104CB300120D7F743A02327174F51207B0EAFEEBFB
:104CC300FF8A82F583A3E0F87078EA2430124D67F7
:104CD30064026007E06403600278E8EA2426F58250
:104CE300E43FF58312328F400478E88058E870522D
:104CF300EA2426123ECFEE2431124D592430124DB0
:104D0300676402700EEE24281267CE900639124AA9
:104D13006A801790063974FEF0A304F0EE2428FC91
:104D2300E43FFD7A307B0612177EEE241B12401EF1
:104D3300120D68124B98120D7FEEFAEFFB1227B09B
:104D4300E9F8E8600EE88E828F83A3125FEA741796
:104D5300126094024B93FAE43FFB795012142AEE4B
:104D630022EE2410F582E43FF583E02274F6120765
:104D7300B074F7120E32901938E070377401F0F9FD
:104D8300121520AA21AB2212287675082D75091950
:104D93007808120D6C7508017509007808120D6CFE
:104DA30090063F120BF77406120E127A0312328525
:104DB300120D7F02618374F71207B0124F957004CE
:104DC300A374EBF0901938E0A2E25003C2E2F0E0E2
:104DD300A2E15005124FA680098E828F83742A1296
:104DE3006094024E7574F41207B074FE120E321200
:104DF3004E9B1250E1EC852182852283125130E0D3
:104E0300F50B7015AA21AB22795312142AEE241341
:104E1300FAE43FFB794A12142A12401B120D68125E
:104E23004B98120D7F124810A90B1227A490193822
:104E3300E0A2E15003124FAD901938E4F07402027E
:104E4300327174F71207B0EAFEEBFF8A82F583A38F
:104E530074EBF0901938E0A2E150077A0079EB1275
:104E630027AAEEFAEFFB1227E08007EEFAEFFB1218
:104E730028E27F01020B6E74F71207B0124E9B906B
:104E83001935E4F0901938F07AFF7BFF8E828F8317
:104E9300A3E0F91227A480DA124FE67A247B1912D1
:104EA300296C2274F71207B0EAFEEBFF1227DA80AF
:104EB300BA74F71207B0125023A3A3A3E0600474DB
:104EC30000800274EB124EF45003C2E2F0E0A2E160
:104ED3005005124FF78011A2E0500D8E828F83741C
:104EE3002AF0A374EB126094EEFAEFFB122786808C
:104EF300818E828F83A3F0901938E0A2E22274F6A8
:104F03001207B0EAFEEBFF901938E0D2E1F0790125
:104F13001215208E828F83A3E0703812287CE9FA61
:104F2300EE240DF508E43FF5097808120D6C7508B9
:104F3300017509007808120D6C124F67120BF7EE1A
:104F43002402FCE43FFD123285120D7FE98E828F2D
:104F530083A3F08E828F83A3E060067A00F9122781
:104F6300AA026188EE240BF582E43FF5832274F7ED
:104F73001207B0124F957004A374EBF0901938E048
:104F8300A2E25003C2E2F0E0A2E15003124FA602F4
:104F93004E75EAFEEBFF79011215268E828F83E0B0
:104FA300642022C2E1F0124FAD227A008E828F83F9
:104FB300A3E0F91227AA2274F71207B0124FE68E64
:104FC300828F83A3A3A3A3E060047400800274EB25
:104FD300124EF45003C2E2F0E0A2E15003124FF785
:104FE300024EEBEAFEEBFF79011215267A1B7B19C1
:104FF30012296C22C2E1126518E0A2E4E433FA122A
:105003004FAF2274F71207B012502374EB124EF90C
:105013005003C2E2F0E0A2E15003124FA6024E7524
:10502300EAFEEBFF79011215268E828F83A3227489
:10503300F71207B0125048024E6E74F71207B012FF
:105043005048024E75EAFEEBFF7A1B7B1912296C5E
:10505300EEFAEFFB1228042274F71207B074EF1272
:105063000E32EAFEEBFFEA125FD67A307B061217A6
:105073006CE960568521828522837409F0740112DC
:1050830010A574EFF01250E174021210A5EC125146
:1050930030A3A3E0C0E074041210A5D0E012511DA8
:1050A300640870158E828F83A3A3125109E0C0E0B8
:1050B30074051210A5D0E0800674051210A5E41241
:1050C3005E7274061210A51250D27411023C20AA0B
:1050D30082AB831228ACAA21AB22121D24221250C8
:1050E300EEF583125100FCA3E0F922EE1250F6FB19
:1050F3008882222402F8E43FF9E8FAE9221248659B
:105103008882F583E0221251182407F582E438F5EA
:1051130083229018DA124865C822125121221251B3
:1051230026E022F08E828F83A3A3A3A3221261021F
:105133001251372212513B22E0F8A3E0F583888213
:10514300A3A322C082C0831228EE02498AC082C070
:105153008390195574F5F0A37418F0A37411F0A398
:105163007419F0901A9D7420F0A3742FF0A374BEE9
:10517300F0A3742EF0901941749EF0A37427F0905D
:10518300193EE0440102448EC082C083EAFCEBFD79
:10519300790212285202498A74F61207B074FE1279
:1051A3000E3290193A1251E960077A3A7B191228A4
:1051B3006A901940E4F0900D1A1251E960208007BB
:1051C300AA21AB2212286A901939E0F91216108B22
:1051D30009A909852182852283123E4170E2740266
:1051E3000261859018DA1267D8E8492274F712072A
:1051F300B0E9FA7B00901939E0F912163A024E75BC
:1052030074F71207B074F0120E32EAFCEBFDE9FEFC
:105213008A828B83E0F874B412531E3431F583E42D
:1052230093C0E074011210A5D0E0F0640B700DE997
:105233008A828B83A3F01228D0025319E0700302F1
:105243005319640C600302530A741A6E700B7404CE
:105253001210A5E4F0A302530974041210A5125509
:10526300CDEA2432125AD6C0E074031210A5D0E05E
:1052730012650312108E74061210A512106A8C8226
:105283008D83A3A3A3A3A3A3A3A3A31267D4740A85
:105293001210A5E8F0A3E9125323E0541060098526
:1052A3002182852283E48013EC2412125AD6F890CB
:1052B300064CE0C398852182852283F0E0C0E07428
:1052C3000C1210A5D0E0F0EC2415125AD6C0E074ED
:1052D3000D1210A5D0E0F0EC2416125AD6C0E074DB
:1052E3000E1210A5D0E0F0EC2417125AD6C0E074C9
:1052F3000F1210A5D0E0125323A3E05401600874E9
:10530300011210A57411F074021210A5EEF07401CD
:10531300120E0A121D247410023C2028F582E42286
:10532300F0EC12532C3DF58322240EF582E422C0C7
:1053330082C083901940E06403700479018002798C
:105343000002498A74F71207B0901940E01253C261
:10535300749B28F582741A39F583125854C2E7F006
:105363001253C9A3E493FE25E0FCE433FD749B2CA4
:10537300F582741A3D125BE0EC4D6005EE90194026
:10538300F08A828B83E025E0FCE433FDE82CF58290
:10539300E93DF583E493FCC4540F25E0F8744F1200
:1053A300531E3419F5831251E970051228BE800C7F
:1053B300EC540F1253C91248E2122B2A024E7525E0
:1053C300E0F8E433F92225E0FCE82CF582E439F532
:1053D300832274F21207B074FE120E32890B8A080C
:1053E3008B09125474125465601A125E7FF50A78A1
:1053F30008120D681254812402125BD6120D7F121B
:10540300540D8003125493023870AA0CEFFB9019C9
:1054130039E0F91216042274F01207B074FE120E6A
:1054230032890B8A0E8B0F125474F508125465607F
:1054330027125E7FA808EA28124163850E08850FAC
:1054430009F50A7808120D68125481125BD4120D03
:105453007F12540D79008005125493791A74020255
:10546300325DFA7B001215F88A0C8B0DAF0DEA4FF3
:1054730022747D29F582E43431F583E49322A80B69
:10548300749E12531E3431F583E493FC7D00EA22AB
:10549300852182852283E50BF0791AAA21AB22129A
:1054A300283A22C082C083E990193902448E74F6E7
:1054B3001207B074FE120E32EAFEEBFFEA542070BC
:1054C300308039A8A8C2AF9018D9E0141243BB8A20
:1054D300828B831255BA90193C1255CD12284685FA
:1054E3002182852283E0641560077A3C7B191228A8
:1054F3006A7AD37B18121622EA4B70C7EF54807076
:105503000C801690193CEAF0A3EB1255E090193980
:10551300E0F9121610EA4B70EAEE5410600B852185
:1055230082852283742D1255ECEEA2E0500B852167
:105533008285228374241255ECEE5402600B85217C
:105543008285228374251255ECEE5404600B852169
:105553008285228374261255ECEE5408600B852154
:105563008285228374281255ECEE5440600D740139
:105573001210A51255D3742C1255ECEE5480600D05
:1055830074011210A51255D3742F1255EC90193AC9
:105593001251E9601BA8A8C2AF90193A124816909D
:1055A300193AE4F0A31243BBA3EAF0A3E91255E0CE
:1055B3007A007B000251E11255BE22E085218285EB
:1055C3002283F022A3A3A3A3A3A3EAF0A3EBF022D5
:1055D300E41255D822F085218285228322F01228F5
:1055E300467A3C7B1912286A221241071228462266
:1055F300C082C08390193C126242687002EB6970EA
:105603000790193CE4F0A3F002498A74F71207B03B
:10561300EAFEEBFFEA4F7003121262A2AFE433F526
:1056230008C2AF8E828F831251E96028E824FBFA07
:10563300E934FFFB90193C125BE2E86C7002E96D00
:10564300700790193CE4F0A3F08E828F83E4F0A3FB
:10565300F0121694023A8CC082C08390196374B21C
:10566300F0A37428F0A374C4F0A37428F0A374CA3D
:10567300F0A37428F0A37480F0A37427F0A374D06C
:10568300F0A37428F0A3747AF0A37427F0A37486AC
:10569300F0A37427F09019717400F0A37429F0A398
:1056A30074D6F0A37428F0A374DCF0A37428F0A3D9
:1056B30074E8F0A37428F0A374E2F0A37428F090C4
:1056C3001962E402448EC082C083900639E064FE0E
:1056D3007003A3E0F470097C307D06121772801CFE
:1056E3008A828B83A3A3A3A3A3A3A3A37402F0908F
:1056F30006391267D48A828B83124A6A02498AC0A6
:1057030082C083900643C3E094FEA3E094FF400469
:1057130079038002790202498AC082C08312585DEC
:105723008C828D83125812687039740268701C8AD7
:10573300828B8312576BE06870298A828B83A31252
:10574300576BA3E068701C7901801A7403687013A7
:10575300EC2405FC50010DEA2405FA50010B121745
:10576300788002790002498AA3A3A3A3A3E0F88C5B
:10577300828D83A3A3A3A3A32274F61207B07E0092
:10578300740A1210A5E0125806FF8A828B83A3A322
:10579300A3A3A3A3A3A3E06F706474026F704E8AE4
:1057A300828B83C082C08388828983A3A3A3A3A39C
:1057B300E0F50888828983A3A3A3A3A3A3E0FBAA9C
:1057C30008D083D082E06A7003A3E06B70308882D4
:1057D3008983A3A3A3E0FA88828983A3A3A3A3E075
:1057E300F9EA6C7002E96D70157E01801174036F24
:1057F300700CE82405FCE439FD121778E9FEEEF994
:10580300026188F8A3E0F98882F58312581222A373
:10581300E01313543F540322C082C0838A828B83D4
:10582300A3A3A3A3A3A3A3A3E064027016900639C2
:10583300125854687003A3E06970047901800F79EA
:1058430000800BEAFCEBFD7A307B0612176C0249F1
:105853008A1267D88A828B83E0228A828B831258CA
:1058630012F82274F01207B074FC120E32E985218B
:1058730082852283F074021210A5ECF0A3EDF08A66
:105883000A8B0B75080074021210A5E02408125A43
:10589300D6C0E074011210A5D0E0125B26A2E75037
:1058A30008750EFF750FFF800A90063FE0F50EA303
:1058B300E0F50F852182852283E0C2E7125B2B543A
:1058C300206007125AF874088004125AF8E4125B35
:1058D3002B54046007125B0374808005125B03740E
:1058E30010125B2B54106006125ADEE4800B9006F4
:1058F3004CE0C0E0125ADED0E0125B2BA2E0500372
:105903007508205408600674104508F5088A828BD0
:1059130083A3A3E024FFFEA3E034FFFFEA125AE9C6
:10592300C39402E0400F640B6009E0148E828F83FE
:10593300125B1C74034508F50875090090065FE0C7
:10594300640170118A828B83A3A3A3A3E0C394672A
:105953004003750910852182852283E0F50C750DBE
:1059630000740E780C120F3CE50D4509F509E0644F
:1059730002701B900644E08E828F83F0900643E012
:10598300C0E01237E7D0E0F0EE24FEFE801CE064B6
:1059930003701DEE24F9FEEF34FFFF7C537D06EE0A
:1059A300FAEFFB12177EEE24FF1EEF34FFFF800396
:1059B300E0602F74011210A5E0601874141210A592
:1059C300E0650E7004A3E0650F700874404508F5A8
:1059D30008800F8E828F83E50FF01237E7E50E12F2
:1059E3005B1274011210A5E0F50C750D00740A78B2
:1059F3000C120F3CE50D4509F509E06402702374B0
:105A0300021210A512623D8E828F83F0740212106F
:105A1300A5123919C0E01237E7D0E0F0EE24FEFEFC
:105A23008020E064037021EE24F9FEEF34FFFF745D
:105A3300021210A5125BE2EEFAEFFB12177EEE24C0
:105A4300FF1EEF34FFFF8003E0601C74141210A5E7
:105A5300A3E08E828F83F074141210A5E0C0E012CD
:105A630037E7D0E0125B12EEF8EFF9E824FF1EE906
:105A730034FFFFE50A125AE9700590062F80039060
:105A8300063BE0FA04F0EA88828983125FEAE509BB
:105A9300125B1C8E82F583E508F0E50A2404F8E422
:105AA300350BF9E50A2402FAE4350BFBEEFC8A8296
:105AB3008B83E0F50888828983E02508C39C126103
:105AC30005EEF0A3EFF0850A82850B83A3E4F0F9DA
:105AD30002325BF582E43DF583E022EA2412F5828B
:105AE300E4350BF58322125AF2350BF583E02224B9
:105AF3000DF582E422EA2410F582E4350BF58322C6
:105B0300EA125B0C350BF583222411F582E422F0B3
:105B1300EE24FEFEEF34FFFF22F0EE24FF1EEF34EF
:105B2300FFFF221255D8E022F0EA12532C350BF571
:105B330083E02274F11207B074FE120E32852182C3
