:020000040000FA
:060000000212D102080B00
:03002B000210813F
:03003300020CC3F9
:0300530002074061
:03006B00020C91F3
:1000830002079F0100F0FF0700080000FFFF0000C8
:100093000704000000030001FF14102700000020E4
:1000A300FD000206FFFF1E7F1B0000911B000000E6
:1000B3000000000000000000000000000000001E1F
:1000C300001E001E001E0001040100000203D38570
:1000D300024786020401000002017B860179860340
:1000E3000401000002017786017586040401000003
:1000F30002017386017186050401000002016F8607
:10010300017D86010400006216000000E803000080
:10011300FFFFBF160188130000E8030000640064BA
:1001230000B801A0BB0D00A0BB0D00020202070432
:100133000101051E02051E020A0A01010108090840
:100143000103B80B02803E0102FEFFE8030A05002B
:1001530001FFFF010A011401E0F304353F000080B1
:10016300BF0000803F1872313F2292D43EDD9B2AAC
:100173003F04000040D85BDE3E020000000105039F
:1001830001010F10FEFFDB300000000073300000A0
:100193000000FF000000FF0012131D60461212E171
:1001A300603DE9687008F618F618F618F6227480B0
:1001B30067F71201CF090909748067F7221212E168
:1001C300601D12131D7005191919801A1211BA70C6
:1001D3001F1211CEC37003E66733191919400718AC
:1001E30018182208080874FFF618F618F618F622ED
:1001F3001211CE601712137E702192F012139070B9
:1002030019501720F014080808090909E7F6181906
:10021300E7F61819E7F61819E7F62212139060E6C5
:10022300E869701F0808E62480F608E436F61854D7
:100233007FB47F0CE654806007F6E418F618F622C4
:10024300181822E9C6CC08C6CD08C6CE08C6CFC04A
:10025300E0E8C0E0EAC0E0EBC0E009E9F809E7FA4A
:1002630009E7FBE6F918E6F8C3EC98ED99EE9AEB8B
:10027300C2E7F5F0EFC2E795F0500E600CEBCFFB51
:10028300EACEFAE9CDF9E8CCF8EAA2E7D2E7FAEB4D
:1002930033FB13F5F0EEA2E7D2E7FEEF33FFC5F031
:1002A30013A2E730E601B313C5F0C3C0E0C0F07F8B
:1002B30000C39BFB605E9418600F401D14601AD04E
:1002C300E023F9D0E0F80203A18AF0E9486003D201
:1002D300F0E4AFF0FAF9F8803BEB30E40D89F0EA93
:1002E3006003D2F0E4AFF0F9CAF8EB30E30D88F025
:1002F300EF6002D2F0AFF0E4CAC9F8EB5407601420
:10030300FBC3EA13FAE913F9E813F8EF135002D227
:10031300E0FFDBEDD0E0C0E030E739C3E49FFFF559
:10032300F0EC98FC42F0ED99FD42F0EE9AFE42F0BB
:10033300D0E0F9D0E0F8E5F0607AE923F9EE20E7C0
:1003430042D8028067C3EF33FFEC33FCED33FDEE9D
:1003530033FE80EAEC28FCED39FDEE3AFED0E023D3
:10036300F9D0E0F84002801BC3EE13FEED13FDEC61
:1003730013FCEF135002D2E0FF08B800067F7F742E
:10038300FF802EEF3350178CF020F00260100CBC6E
:10039300000C0DBD00080EBE000408E860DFE93361
:1003A300E813FFEE2313FE4F4D4C8008E95480FF02
:1003B300E4FEFDFCEE33EF33F47004FCFD7E80D0ED
:1003C300E0FBD0E0FAD0E0F8D0E0CFC618CEC618F4
:1003D300CDC618CCC6F9221212E1700418181822DF
:1003E30012131D700D74FFF61819F61819F6181963
:1003F300F622E7548066F6121390700F12137E7084
:10040300F014F608F608F608F680D112137E700C85
:10041300F608F608768008E6447F80EC1211D17066
:100423000C1211BD60BFE65480F6E480BB1211BD0F
:10043300700519191980A5E869700C763F18768044
:1004430018F618F6E8F922E6CDC0E018ECC0E0E6AD
:1004530033CD33CDD313F6E719FCE7191933CC3376
:10046300C3947F400ECD9D502408E65480F6E418D3
:10047300F6800FF4043D14501408E6447FF6187612
:1004830080E418F618F6D0E0FCD0E0FD22CCD313BC
:10049300CCFD18E4C6CBC0E018E4C6CAC0E0080827
:1004A300ED08C633E613F618E433C675F003C3CA82
:1004B30097CA09CB97CB199C40047D08802EBD00B9
:1004C3000302058316B6FF050606081618C3CA33CA
:1004D300CACB33CB33CA27CA09CB37CB193CC37D2D
:1004E30008803E187D0820E75CC633C6CA33CACBF2
:1004F30033CB33DDF1D5F0EB30E77BCA97CA09CBB9
:10050300974ACB199C406F4B7025E620E02180660B
:10051300187D08C3CA97CA09CB97CB199CD3C63396
:10052300C6CA33CACB33CB3350C9DDE7D5F0E1D3E9
:10053300E4C636C608C636C608C636C608C636C6B4
:100543001818188031C3CA97CA09CB97CB199CB323
:100553004097C633C6CA33CACB33CB33DD34D5F069
:100563002EC6A2E0C640C8CA27CA09CB37194A70AB
:10057300BECB3CB480B90808E63308E633601F18E5
:100583001818D0E0FAD0E0FBD0E0FCD0E0FD221850
:100593007D08CA27CA09CB37CB193CD3808013F611
:1005A30018E4B67F11F618B6FF0EF618C60470D21B
:1005B3000808768080CAF618F618F680C50012126D
:1005C300E1604F12131D6012E7548066F61211BAF0
:1005D300701112137E703B090909F4F618F618F628
:1005E30018F6221211CE701512139008080860EA4B
:1005F300E6447FF618768018E4F618F62212139074
:10060300601612137E7012E4F608F608F608E65434
:1006130080F609090918181822EAC0E0EBC0E0ECDB
:10062300C0E0EDC0E0E687F0A4FBACF008E687F09D
:10063300A42CFCE435F0FA1809E687F0A42C4B60EF
:10064300027401CA35F0FCE433FB09E687F0D2F704
:10065300A42CCB35F0FC1908E687F0A42BCC35F09D
:10066300FBE433FD0819E687F0D2E7A42C4ACB3527
:10067300F0CD3400FC09E687F0D2E7A42DCC35F0A9
:10068300FDE433FA0918E687F0D2F7A42CCD35F050
:10069300CA3400FC08E687F0D2E7D2F7A42ACC35A7
:1006A300F07A7E20E70B0ACB33CBCD33CDCC33CCE2
:1006B30033CB3350147004ED30E00ED2F1E4CD3D72
:1006C300CDCC3CCC3B5005DA05C2F1EB547FC633AD
:1006D30008E63392F0FBE73309E733C39A502D2B37
:1006E30070190C0D4C4D70151806E608C333700DC8
:1006F30020F10AA2F013F6E418800B4024E4F6304C
:10070300F002768018F618F618F68024D33B1450BE
:100713001074FFA2F013F6187680E418F618F6802A
:100723000FA2F013F618E63303F618ECF618EDF6FD
:10073300D0E0FDD0E0FCD0E0FBD0E0FA22C0E074D2
:10074300F1120B34A2AFE433F509D2AF85A708AF9A
:10075300A1EF5508FE74105E60061215F775A1EF40
:1007630074085E60081215FD75A1F78024EFA2E0FE
:1007730092F0E508A2E082F05017906198E0F890BB
:100783000612E0C398A2D265D0335002E8F075A1F7
:10079300FEE509A2E092AF7F02020B93C0E074F280
:1007A300120B34A2AFE433FED2AF9061A4E0F8752C
:1007B3009B00E59158540860087591F71216518013
:1007C30023E59158541060087591EF121657801461
:1007D300E591A2E092F0E8A2E082F05007E0C2E0E7
:1007E300F01217AD9061A3E0F8E5E9585404600EE8
:1007F30012178375E9FB906193E0A2E640F2EEA243
:10080300E092AF7F01020B93C0E074F2120B34A2AB
:10081300AFE433FED2AF9061A5E0F8E5BF585404CE
:10082300600675BFFB1217C580D412087830F03903
:100833001208BD803412087820F01430E72B74FFBF
:10084300FCFBFA747F8022E4FCFBFA7480801AB408
:100853008008BC00F2BB00EF800F50EBF9E4C39AB1
:10086300FAE49BFBE49CFCE499C6CC18C6CB18C6FF
:10087300CA18C6F922E4C9C608CAC608CBC6D33308
:100883000308CCC63392F0C3947F402E94184019CA
:10089300C9B90704CACBCC225025C309CA33CACB72
:1008A30033CBCC33CC33D9F422F4600DC9CCC3138E
:1008B300CB13CBCA13CAD9F6CC22E4FCFBFA22141D
:1008C300FCFBFA22C3E498F8E499F912090880269C
:1008D300C3E49AFAE49BFBE920E7E9120908E498E8
:1008E300F8E499F922C3E498F8E499F9120908E4C1
:1008F30098F8E499F9C3E49AFAE49BFB22EB20E726
:10090300CFE920E7E0B90010BB0008E88AF084F8DB
:10091300AAF022E4FBC8FA22EB70227B10C833C88A
:10092300C933C9335007C39AC3DBF280069A500117
:100933002ADBEAC833F4C8C933F4C9FA2275F008CC
:10094300E4C833C8C933C933C99AC99B5004C92AF7
:10095300C93BD5F0ECFBC833F4C8E4C9FA22080854
:1009630008EAC0E0EBC0E086F0E7A4FA180986F0D5
:10097300E7A42AFA180986F0E7A42AFA180986F0E8
:10098300E7A42AFA1986F0E7A4FBE5F02AFA190886
:1009930086F0E7A42BFBE5F03AFA190886F0E7A402
:1009A3002BFBE5F03AFA18180986F0E7A4C5F02BFB
:1009B300FBE43AFA1908E7C5F0C6A426F6E5F03BCE
:1009C300FBE43AFA1886F0E7A4F6E5F00826F6E425
:1009D3003B08F6E43A08F6D0E0FBD0E0FA22080838
:1009E30008E630E71112117E1209F9080808C64417
:1009F30080C618181822181818E9799EC608CAC69E
:100A030008CBC608CCC6C370207996CACBCC701964
:100A1300798ECBCC70137986CC700EF9802ACA33C9
:100A2300CACB33CBCC33CC331930E7F2CCCBCA337C
:100A330050147004EA30E00DE4CA3ACACB3BCBCC85
:100A43003CCC500209C3E913C6CC182313C6CB18F8
:100A5300C6CA18C6F922E4CFC0E0E4CEC0E0E4CDB4
:100A6300C0E0E4CCC0E075F020E626F608E633F6F5
:100A730008E633F608E633F6181818EC33FCED33C2
:100A8300FDEE33FEEF33FFC3EC9709ED9709EE97C5
:100A930009EF97191919400FFFEC97FC09ED97FD22
:100AA30009EE97FE191906D5F0BFECF709EDF70922
:100AB300EEF709EFF7191919D0E0FCD0E0FDD0E00B
:100AC300FED0E0FF222521C582C0E0E52234FFC528
:100AD30083C0E0E521C3958224F810AF0885832203
:100AE3008582218008858322858221D2AFCEF0A31F
:100AF300E520F0A37808E608F0A3DEFAEFF0A3E51B
:100B03008124FAF8E608F0A3E608F0A3E608F0A3C8
:100B13000808E608F0A3E608F0A315811581D0E0E4
:100B2300FED0E0F8158115811581E8C0E0EEC0E044
:100B330022C0D02521C582C0E0E52234FFC583C091
:100B4300E0E521C3958224F310AF088583228582D3
:100B5300218008858322858221D2AFC8F0A3E9F0E2
:100B6300A3EAF0A3EBF0A37908E709F0A3D8FAEC22
:100B7300F0A3EDF0A3EEF0A3EFF0A3D0E0F0A3D049
:100B8300E0F0A3D0E0F0A3E520F0A3E5F0F0A3228A
:100B9300852283852182E0C0E0A3E0F9A3E0FAA3E4
:100BA300E0FBA37808E0F608A3DFFAE0FCA3E0FD8E
:100BB300A3E0FEA3E0FFA3E0C0E0A3E0C0E0A3E066
:100BC300F5D0A3E0F520A3E0A3F5F010AF088583EB
:100BD300228582218008858322858221D2AFD0821B
:100BE300D083D0E0F8D0E032121369B90003020CCD
:100BF3002AE490050178BA79158002F0A3D8FCD9CC
:100C0300FA7ABA7B19900086781679028015E493F4
:100C1300A3AD82AE838A828B83F0A3AA82AB838D3A
:100C2300828E83D8E9D9E77582887583F3740512B8
:100C3300101275820375832E740012101275F01052
:100C43008E238F248582288583278521828522838D
:100C5300E0CEA3E0CF852882852783EBC9EAC8EDE0
:100C6300CBECCAC3E833C8E933C9EA33CAEB33CBA5
:100C7300C3EA9EF526EB9FF525B35004AB25AA26C0
:100C8300EC33CCED33CDD5F0DAAE23AF2422C0E084
:100C930074F2120B34A2AFE433FED2AFE589A2E4BF
:100CA3005003121567E589A2E15003121567758990
:100CB30000758900C2EBEEA2E092AF7F01020B93B5
:100CC300C0E074F2120B34A2AFE433FED2AFE58B73
:100CD300A2E05003121567758B00C2E880D8121288
:100CE300E1601C12131D6017121390700712137E1C
:100CF3007001D322C0D012137E7006D0D0B322C3AA
:100D03002233D0D0501430E0F6C3E7960809E796B3
:100D13000809E7960809E796B32220E0D5E6970885
:100D230009E6970809E6970809E697B3221212E144
:100D3300601B12131D6016121390700712137E604E
:100D43000CB322C0D012137E7005D0D022C322333D
:100D5300D0D0501330E0EBC3E7960809E7960809B3
:100D6300E7960809E7962220E0E4E6970809E69764
:100D73000809E6970809E69722D083D082ECC0E001
:100D8300EDC0E0E493A3FCE493A3FDED4C600D12EE
:100D93000E54EC24FFFCED34FFFD80EFE493A3FC41
:100DA300E493A3FDED4C600D120F1DEC24FFFCED4D
:100DB30034FFFD80EFD0E0FDD0E0FCE493A3C0E07E
:100DC300E493C0E022D083D082E9C0E0E493A3C3DC
:100DD30086F0C5F095F0F908E493A386F0C5F09585
:100DE300F0700BE493A3C3994005E9048002A3E4E4
:100DF30075F002A42582F582E5F03583F583D0E012
:100E0300F9E493A3C0E0E493C0E022852283852123
:100E130082E0A3FEE0A3F5207808E0A3F608DFFA5A
:100E2300E0A3FFE0A3C0E0E0A3C0E0E0A3C0E0E0F4
:100E3300A3C0E0E0A3C0E010AF0885822185832230
:100E43008008858221858322D2AFD083D08202108D
:100E530018C0E0C3E49396087401939618400FE416
:100E63009366700808740193661870007019A3A341
:100E7300C3E49396087401939618A3A3400DD0E09E
:100E8300D0E0D0E0020DB8A3A3A3A3A3A3D0E02294
:100E93007404800474028000CCC0E0EDC0E0E5215E
:100EA300C39CCCAD2250011D10AF068C218D228036
:100EB300068C218D22D2AF120F94D0E0FDD0E0FC3E
:100EC3002274028000CCC0E0EDC0E0E521C39CCCDD
:100ED300AD2250011D10AF068C218D2280068C217E
:100EE3008D22D2AF120F72D0E0FDD0E0FC2212129D
:100EF300E1602512131D6020121390700302137E0C
:100F0300080808E76670101819E766700A1819E7E9
:100F13006670041819E76622F422C0E0C0F088F076
:100F2300E4936670080874019366187000A8F0A330
:100F3300A3700BD0F0D0E0D0E0D0E0020DB8A3A3B3
:100F4300D0F0D0E022D083D082CCC0E0E493A36081
:100F530006120FB51470FAE493A360061210FE1480
:100F630070FAD0E0FCE493A3C0E0E493C0E022CAAB
:100F7300C0E0E493A3C582CCC582C583CDC583F00D
:100F8300A3C582CCC582C583CDC583DAE5D0E0CACB
:100F930022CAC0E0E0A3C582CCC582C583CDC58388
:100FA300F0A3C582CCC582C583CDC583DAE6D0E084
:100FB300CA22C0E0E493A3D39C5010E493A3C39C40
:100FC300400AD0E0D0E0D0E0020F65A3A3A3D0E0B5
:100FD300227009080808226016181818C6C333C6F9
:100FE30008C633C608C633C608C633C6D5E0EA22E8
:100FF300C008C3E096F50808A3E096420808A3E0FA
:1010030096420808A3E09645087001D3D00822C091
:101013009FF59FE473D09F22D083D082C09FE49337
:10102300C0E0740193C0E0740293F59F222521F57B
:101033008210AF08F521400C15228008F5214002EB
:101043001522D2AF852283227404800A740380069A
:10105300740280027401C0E0F404121030D0E01274
:10106300132C2200C0D0252110AF08F521500C0508
:10107300228008F52150020522D2AFD0D022C0E051
:10108300C0D0E8C0E0A8A8D2AFC2C7E8A2E792AF39
:10109300D0E0F8D0D0D0E032BB0102E722C082C05A
:1010A3008389828A83BB0003E08002E493D083D0E8
:1010B30082226016080808C6C313C618C613C618CA
:1010C300C613C618C613C6D5E0EA22C3E0C696F611
:1010D30008A3E0C696F608A3E0C696F608A3E0C602
:1010E30096F6222521F8E43522F9222521FAE43562
:1010F30022FB222521FCE43522FD22C0E0E493A358
:101103006C7009D0E0D0E0D0E0020F65A3A3D0E07B
:1011130022252110AF08F521400C15228008F52166
:1011230040021522D2AF22C3E09608A3E09608A39B
:10113300E09608A3E096A2D265D03322E76670104A
:101143000809E766700A0809E76670040809E76694
:1011530022E066701008A3E066700A08A3E06670D8
:101163000408A3E06622C3E7960809E7960809E79F
:10117300960809E796A2D265D03322181818E4C35B
:1011830096F608E496F608E496F608E496F622C383
:10119300E096F008A3E096F008A3E096F008A3E039
:1011A30096F022C3E697F60809E697F60809E6974C
:1011B300F60809E697F622181818E6084608700993
:1011C300E626087005E633F4220822191919E709FF
:1011D30047097009E727097005E733F4220922C399
:1011E300E493960874019396087402939608740323
:1011F300939622E627F60809E637F60809E637F656
:101203000809E637F622700422600D18C6C333C6F8
:1012130008C633C6D5E0F41822E056F608A3E05614
:10122300F608A3E056F608A3E056F622E026F608F1
:10123300A3E036F608A3E036F608A3E036F622E08C
:1012430026F008A3E036F008A3E036F008A3E03662
:10125300F022E056F008A3E056F008A3E056F008A9
:10126300A3E056F022E493F608740193F60874029F
:1012730093F608740393F622E647F60809E647F661
:101283000809E647F60809E647F622E657F608098D
:10129300E657F60809E657F60809E657F622C6F4B4
:1012A300C608C6F4C608C6F4C608C6F4C622C3E018
:1012B3009608A3E09608A3E09608A3E09622C3E766
:1012C300960809E7960809E7960809E7962275D074
:1012D3000075813F75210175220500020BEBE608BD
:1012E3004608C3134608336002E633F422600C0851
:1012F300C6C313C618C613C6D5E0F422E0F608A386
:10130300E0F608A3E0F608A3E0F622E6F008A3E679
:10131300F008A3E6F008A3E6F022E7094709C313A0
:101323004709336002E733F422CAC0E0E6F0A308BA
:10133300DAFAD0E0FA22E8F0A3E9F0A3EAF0A3EBAB
:10134300F022E0FAA3E0FBA3E0FCA3E0FD22EAF035
:10135300A3EBF0A3ECF0A3EDF022E0F8A3E0F9A3F4
:10136300E0FAA3E0FB22E5C754F84401F5C779018D
:10137300222521F582E43522F58322E7271947192F
:1013830047194722C2AF75D69F02000022E62618EE
:1013930046184618462212101BFEDD0312101B4B83
:1013A300DE0312101BD3DE0312101B8EDF03121099
:1013B3001BF1DF0312101B35E00312101BCFE003F8
:1013C30012101B4DE10312101B80E10312101B8E40
:1013D300E20312101BAEE20312101B02E30312100E
:1013E3001BEAE30312101BECE50312101B8EE6034A
:1013F30012101BDEE80312101B62E90312101B67B5
:10140300EC0312101B9BEE0312101BD3EE031210FE
:101413001B32F00312101B3CF00312101B8BF00362
:1014230012101B5DF20312101B966F0012101B1299
:10143300700012101B45700012101B737000121005
:101443001BB1700012101BEC720012101B0B730007
:1014530012101B50730012101BE6730012101B3284
:10146300740012101BC6740012101B9E750012101C
:101473001BFA750012101B58760012101BD576004C
:1014830012101B0B770012101B56770012101B7CD7
:10149300770012101B0C780012101BA37800121097
:1014A3001BEF780012101B20790012101B577900D4
:1014B30012101BDD7A0012101BA77B0012101B7782
:1014C3007C0012101B38E40512101B64E405121093
:1014D3001B84E40512101BABE40512101BF2E50597
:1014E30012101B13E60512101BCEE60512101B0388
:1014F300FF0512101B08FF0512101B3BFF051210FE
:101503001B8CF10512101B53F20512101B65F2051B
:1015130012101BD6FF0512101BEEFF0512101BFC49
:101523007F0012101B15810612101BF8FD05121007
:101533001B08FE0512101B1AFE0512101B82FE0566
:1015430012101BA6FA0512101B29FB0512101B8F84
:10155300FB0512101B42F80512101B75F80512103B
:101563001BE8F80512101B3BF90512101BD7D90510
:1015730012101BE5D90512101B5EDA0512101B367B
:10158300DB0512101BF9DC0512101B448006121038
:101593001BC3FA0212101BEFFA0212101B33FD02D7
:1015A30012101B73FD0212101BB3FD0212101BC796
:1015B300FD0212101BE0FD0212101BD2FE021210DC
:1015C3001B77FF0212101B8BFF0212101BE4F605A0
:1015D30012101B08F70512101B21F70512101B53DD
:1015E300F70512101B83F70512101BB0F705121035
:1015F3001B12F80512101B21F80512101B2BF805FE
:1016030012101B38F80512101B76EA0512101B96F0
:10161300EA0512101BD5EA0512101BF0EA05121099
:101623001B0FEB0512101B75EB0512101B7EEB0550
:1016330012101BDBEB0512101B07EC0512101B1617
:10164300EC0512101B3AEC0512101BFBEC051210F3
:101653001B08ED0512101B19ED0512101B49FF05A0
:1016630012101B61FF0512101B8DFF0512101BC109
:10167300C50512101B15C70512101B23C705121031
:101683001B36C70512101B4BC70512101B60C7057D
:1016930012101B73C70512101BE7C70512101B4C52
:1016A300C80512101BEEC80512101BB2C905121093
:1016B3001BC2C90512101BD1C90512101B5FFD0502
:1016C30012101B83FD0512101BABFD0512101BD35B
:1016D300FD0512101B507D0012101B777D001210A8
:1016E3001B957D0012101B087E0012101B65E70579
:1016F30012101B7EE70512101B8AE70512101B9EB2
:10170300E70512101BBCE70512101BC6E7051210F4
:101713001BD0E70512101BE3E70512101B6DE8054C
:1017230012101BE2E80512101B16E90512101B64C8
:10173300E90512101BB1E90512101BCCE9051210C3
:101743001BD6E90512101BFCE90512101B61EA0503
:1017530012101BA8FC0512101BCAFC0512101BFB60
:10176300800612101B48B10512101B72B10512102E
:101773001B8FB10512101BA2B10512101BB8B105C6
:1017830012101B16B20512101B4EB20512101B4687
:10179300B60512101B8BB70512101BBEB70512102E
:1017A3001B21B80512101B9AB90512101BC2B905EB
:1017B30012101BD7B90512101BE7B90512101B2B0A
:1017C300BA0512101B86BA0512101B96BA05121021
:1017D3001B76F90512101B90F90512101BB8F905B9
:1017E30012101BD1F90512101BF5F90512101B136A
:1017F300FA0512101B2AFA0512101B58FA051210CB
:101803001B73FA0512101B00800612101B28D60545
:1018130012101B38D60512101B67D70512101B991F
:10182300D70512101BC9D70512101BECD7051210D0
:101833001B03D80512101B3DD80512101BA2D80597
:1018430012101BE4D80512101B23D90512101B54C8
:10185300D90512101B7FD90512101B80F505121034
:101863001BA0F50512101BB4F60512101BB7F605E5
:1018730012101B07FF0312101B3DFF0312101B5313
:10188300FF0312101B95FF0312101BA5FF03121079
:101893001BE9FF0312101BD0F70412101B13F804EB
:1018A30012101B78F80412101B95F80412101B3742
:1018B300F90412101B40F90412101B85F9041210CD
:1018C3001BAEF90412101BBBF90412101B36FA04E9
:1018D30012101BC1FA0412101B06FB0412101B5139
:1018E300FB0412101BB6FB0412101BD9FB041210CD
:1018F3001B4AFC0412101B9FFC0412101BDAFC048D
:1019030012101B0FFD0412101B21FD0412101B33B8
:10191300FD0412101B52FD0412101B5BFD04121078
:101923001B09FE0412101B4CFE0412101B8AFE043A
:1019330012101BA17F0012101BB6FE0412101B47CE
:10194300ED0512101B7DED0512101BC5ED051210E0
:101953001B1EEF0512101B00800512101B198105B9
:1019630012101B53810512101B01830512101B2F2C
:10197300830512101B95850512101BD585051210C2
:101983001B79870512101B09880512101B5D88053A
:1019930012101BFF880512101B41890512101B83AF
:1019A300890512101BE08A0512101B2E8C051210DC
:1019B3001B658E0512101B938E0512101BBA8E0524
:1019C30012101BC38E0512101B1A8F0512101BB5A4
:1019D3008F0512101BBD920512101B4493051210A4
:1019E3001BDB800612101BF1800612101B3ECE0576
:1019F30012101B54CE0512101BF8CE0512101B3704
:101A0300CF0512101B54CF0512101B85CF051210E2
:101A13001BD2CF0512101B05D00512101B40D00599
:101A230012101B35D20512101BA8FB0512101B0741
:101A3300FC0512101B45FC0512101B86FC05121039
:101A43001B00800412101B0C800412101B6E8004F8
:101A530012101B78800412101B09810412101B45FD
:101A6300810412101B2E820412101B4182041210D7
:101A73001B8E820412101B1D830412101B5383043C
:101A830012101BCE830412101B9D850412101B978A
:101A9300870412101B75880412101B9389041210FB
:101AA3001BD98B0412101B1C8D0412101BCB8D042D
:101AB30012101B6B920412101B5F930412101B0372
:101AC300940412101B28940412101BC494041210C3
:101AD3001BD9940412101BFD940412101B6B950464
:101AE30012101B88950412101BB2950412101B4888
:101AF300970412101B69970412101B0F98041210FD
:101B03001B57980412101BAC980412101B4C990419
:101B130012101BB0990412101B0E9A0412101BB75B
:101B23009A0412101B259B0412101B589B041210BD
:101B33001BC69B0412101B019D0412101B779E04ED
:101B430012101B149F0412101B52A10412101BBB72
:101B5300A10412101BE5A10412101B01A40412100E
:101B63001BA8A60412101BD1A70412101BC6BA058A
:101B730012101B85BC0512101B6CBE0512101B92A4
:101B8300BE0512101BA5BE0512101BCBBE051210FD
:101B93001B48BF0512101BD4BF0512101B65C005DF
:101BA30012101B7C800612101B6EDD0512101B2801
:101BB300DE0512101B8EDE0512101BAFDE051210A0
:101BC3001B80DF0512101BB8C70412101BE7C704E4
:101BD30012101B63C80412101BB1C90412101B930B
:101BE300CA0412101B49CC0412101B6ECC04121031
:101BF3001BC0CC0412101B42CD0412101B89CD0450
:101C030012101B9CCD0412101BF3CD0412101BB930
:101C1300CE0412101B29CF0412101B53CF04121031
:101C23001B9CCF0412101B21D10412101BFAD104E8
:101C330012101B43D30412101B24D40412101BAC28
:101C4300D40412101BEFD40412101B09D504121074
:101C53001B50D50412101B70D50412101B2BD60475
:101C630012101B4ED70412101BA8D70412101BF21C
:101C7300D70412101BEED80412101B83DB041210BE
:101C83001BA2DB0412101B17DC0412101B3CDC0428
:101C930012101BA6DC0412101B6EDD0412101BAB0A
:101CA300DD0412101B25DE0412101B21DF041210A9
:101CB3001B24DF0412101B2EDF0412101B38DF0459
:101CC30012101B4BDF0412101BBDDF0412101BF399
:101CD300DF0412101B1FE00412101B46E004121055
:101CE3001B6AE00412101BA5E00412101B17E10489
:101CF30012101B3FE10412101B49E10412101B8553
:101D0300E10412101BBAE10412101BD0E1041210FB
:101D13001B90FF0512101BA8FF0512101BF97F0073
:101D230012101BFEAB0412101B21AC0412101B80FB
:101D3300AD0412101BC9AD0412101B30AE041210F7
:101D43001B8EAE0412101B91AE0412101BDDAE04E9
:101D530012101B4EAF0412101BE1AF0412101BE450
:101D6300AF0412101B6EB00412101BAFB00412109C
:101D73001BD4B40412101B6DB60412101BE7B60477
:101D830012101B56BA0412101B9FBB0412101B71B6
:101D9300BC0412101BD6BC0412101BF8BC04121096
:101DA3001BBBBE0412101B91C00412101B3BC104C9
:101DB30012101BE8C10412101BEAC20412101B52BA
:101DC300C50412101BB7C60412101BFDC604121063
:101DD3001B93930512101B3D940512101BA394052E
:101DE30012101BBC940512101B34950512101B8A8C
:101DF300950512101BCE950512101B2D960512107A
:101E03001B3D970512101B649A0512101B929B052C
:101E130012101B139C0512101B199E0512101BC7D1
:101E23009E0512101B639F0512101B25A00512109F
:101E33001BD4A10512101B7CA30512101B27A4059C
:101E430012101B4CA50512101B04D90212101B788B
:101E5300D90212101BC0D90212101B04DA0212108D
:101E63001B53DA0212101B9DDA0212101BD5DA0281
:101E730012101B53DB0212101BADDB0212101B01ED
:101E8300DD0212101B90DD0212101BB0DE021210D5
:101E93001BD8DE0212101B18E00212101B29E002ED
:101EA30012101B41E00212101B48E10212101B101A
:101EB300E20212101B1DE30212101B41E302121077
:101EC3001B58E30212101B79E30212101B9BE3025F
:101ED30012101BB8E30212101B96E40212101BEE41
:101EE300E40212101B7EE70212101BCDE702121050
:101EF3001BECE70212101BD0E80212101B06E902CA
:101F030012101B36EA0212101BB3EA0212101B0254
:101F1300EB0212101B3AEB0212101B9BEB02121086
:101F23001B41EC0212101B0FEE0212101B0FEF02EB
:101F330012101B8DF00212101B6EF20212101BD432
:101F4300F40212101B84F60212101B54F702121033
:101F53001BC2F70212101BD9F70212101BD1F80291
:101F630012101BC1F90212101B2CFA0212101BFED5
:101F7300E00512101BA3E20512101B60E30512100B
:101F83001BC4E30512101B42D20512101B60D205BD
:101F930012101BA4D20512101BCAD20512101BF07B
:101FA300D20512101B08D30512101B20D3051210E3
:101FB3001B83D30512101BC5D30512101BE8D405D0
:101FC30012101BF1D40512101BFAD40512101B03B7
:101FD300D50512101B0DD50512101B2ED505121099
:101FE3001BD9C00512101B86FC0112101B13C5055B
:101FF30012101B18C50512101B0DF40512101B95AA
:10200300FF0112101B7DEF0512101BD1DD0312100F
:102013001BAF800612101B9FFF0212101BAFFF02A3
:1020230012101B0ACA0512101B00800212101B3269
:10203300800212101B9E800212101B3981021210A3
:102043001BD8810212101B1D820212101B3F820239
:1020530012101B58820212101B7E820212101BA048
:10206300820212101BDE820212101B94D70312107D
:102073001B44830212101BA6830212101B6D8402E1
:1020830012101B24850212101B96850212101B6866
:10209300860212101BB2860212101B058702121051
:1020A3001B6B870212101BA5870212101BF78702F6
:1020B30012101B13880212101B3E880212101B45BC
:1020C3008A0212101B998B0212101BBB8B02121077
:1020D3001BEF8B0212101B108C0212101B1F8C02A1
:1020E30012101B2A8C0212101BDA8C0212101B43D3
:1020F3008D0212101BF08D0212101B288E0212107B
:102103001BEE8E0212101BFB8F0212101B45900256
:1021130012101BD4900212101B38910212101B7361
:10212300910212101BDF930212101B33950212103F
:102133001B6C980212101B39990212101BC79902CB
:1021430012101BF0990212101B629A0212101BF656
:102153009A0212101B549B0212101B469C0212106F
:102163001B689C0212101BC49D0212101BDD9D02F2
:1021730012101BF09D0212101B5F9E0212101B6BAC
:102183009F0212101B789F0212101B819F021210D4
:102193001B59A10212101B7FA20212101B8FA20255
:1021A30012101B91A30212101B08A40212101B375A
:1021B300A40212101B4CA50212101B18A702121026
:1021C3001BF0AA0212101BFAAA0212101B0EAB027A
:1021D30012101B18AB0212101B22AB0212101B2C85
:1021E300AB0212101B45AB0212101B4FAB021210B5
:1021F3001BC3AB0212101BCEAB0212101BF3AB02BC
:1022030012101BFEAB0212101B4CAC0212101B5619
:10221300AC0212101B61AC0212101B85AC0212102F
:102223001BA9AC0212101B05AD0212101B4BAD0211
:1022330012101B68AD0212101BE5AD0212101B1C1D
:10224300AE0212101B5BAE0212101BA8AE021210DC
:102253001B2AAF0212101BC3AF0212101B93B10251
:1022630012101BF1B10212101B0DB30212101B331B
:10227300B30212101B72B40212101B98B702121091
:102283001BD9B90212101BB5BB0212101B4BBC02A7
:1022930012101B72BE0212101B1EBF0212101B5320
:1022A300BF0212101BB8BF0212101BC2BF021210D2
:1022B3001BECC10212101B13C30212101B53C302E7
:1022C30012101BF9C30212101B8AC50212101B1332
:1022D300C70212101B33C70212101B8CC702121045
:1022E3001B8EC80212101BD8C80212101B28C90269
:1022F30012101B12CA0212101B87CA0212101BA152
:10230300CB0212101B1CCC0212101B21CD02121087
:102313001BCCCF0212101BEBCF0212101B4CD102AD
:1023230012101B0ED30212101B62D30212101B1ABF
:10233300D40212101BC9D40212101B1FD502121093
:102343001BD5D50212101B6AD60212101BD6D60259
:1023530012101B10D70212101B41D70212101B9D23
:10236300D80212101B00800312101B3280031210BC
:102373001B69800312101B52820312101B35830347
:1023830012101B8D830312101BC8840312101B141D
:10239300850312101B3C880312101B9E8B03121023
:1023A3001BEB8C0312101B818D0312101B8D8D03ED
:1023B30012101BBF8D0312101B418F0312101BDC65
:1023C300900312101B84910312101BC79103121068
:1023D3001B2D920312101B4A920312101B7A9203B5
:1023E30012101BAF920312101B7F930312101B28B2
:1023F300940312101BAC960312101BCC97031210FC
:102403001BB5980312101B37990312101B569D031B
:1024130012101B939D0312101BEB9D0312101B1E26
:102423009E0312101B9F9E0312101BEC9E0312109F
:102433001B779F0312101BC99F0312101BA0A0033D
:1024430012101B59A10312101BF4A10312101B0D30
:10245300A50312101B2DA60312101BDAA9031210D9
:102463001BF8AA0312101BFBAA0312101B2AAB03AF
:1024730012101B30AD0312101B09AE0312101B3ECA
:10248300AE0312101B46AF0312101BFCAF03121056
:102493001B9DB10312101BC2B10312101B01B20327
:1024A30012101B73B20312101B57B30312101B2419
:1024B300B40312101B5AB60312101BCBB60312102F
:1024C3001B0BB70312101B6CB70312101B2FBB039C
:1024D30012101B1EBC0312101B05BD0312101B7D23
:1024E300BD0312101B3FBE0312101B3DC00312108D
:1024F3001B55C00312101B69C00312101BA1C0039C
:1025030012101BCFC00312101B56C20312101B6103
:10251300C30312101BB3C30312101B14C403121002
:102523001BC6C40312101BEDC40312101BD1C50339
:1025330012101B82C60312101B71C80312101BA6B4
:10254300C80312101B0EC90312101B3DCA0312103D
:102553001BEFCA0312101B20CB0312101B38CB0333
:1025630012101BC7CB0312101B7BCE0312101B537D
:10257300D00312101B6FD00312101B8BD003121049
:102583001B59D10312101B3DD50312101B87860163
:1025930012101BBF860112101B9D8B0112101BE32F
:1025A3008B0112101B308D0112101B9B8D01121019
:1025B3001B248F0112101B34920112101B4F930125
:1025C30012101B619D0112101BF49D0112101B467A
:1025D300A10112101B42A20112101B9DA201121095
:1025E3001BE7A30112101BD5A40112101B71A70135
:1025F30012101BE5A80112101B68A90112101B6B16
:10260300A90112101BE0A90112101BEAA901121063
:102613001BF7A90112101B22AA0112101BD2AA0137
:1026230012101BCBAB0112101B76AC0112101B94C2
:10263300AC0112101BADAC0112101BD6AC01121071
:102643001BF8AC0112101B4DAF0112101B12B0018D
:1026530012101B57B00112101BD6B00112101B82AF
:10266300B10112101BB4B10112101B08B2011210F8
:102673001B43B20112101B8AB20112101BDAB20102
:1026830012101BDFB20112101B33B30112101B5FB8
:10269300B30112101B48B40112101B99B40112109C
:1026A3001BF9B40112101B53B50112101BEEB50137
:1026B30012101B2DB90112101B3FBA0112101BB9C6
:1026C300BB0112101BC9BE0112101B67BF01121000
:1026D3001B5DC20112101B1CC30112101B60C3013E
:1026E30012101B0BC50112101B1FC50112101B2951
:1026F300C50112101B33C50112101B3FC501121077
:102703001B64C50112101B3DC70112101B92C701A8
:1027130012101B9CC70112101BA6C70112101B1B12
:10272300C80112101B6AC80112101B7BC9011210C9
:102733001BC8C90112101BD5CA0112101B19CB01EA
:1027430012101BBFCB0112101BB2CC0112101B784D
:10275300CD0112101B9BCE0112101BB9CF01121019
:102763001BA1D00112101BB9D00112101B10D101F3
:1027730012101B1AD10112101B25D10112101B4379
:10278300D10112101B8BD10112101BEDD1011210BC
:102793001B14D20112101B26D20112101BC1D2012D
:1027A30012101BF6D20112101BDDD30112101B22D3
:1027B300D40112101B08D50112101B2FD5011210C2
:1027C3001BB2D50112101B23D60112101BACD7016B
:1027D30012101BD8D80112101B9BD90112101B63B6
:1027E300DA0112101BEDDA0112101B15DC011210B5
:1027F3001BB7DC0112101B32DD0112101BEEDD01D1
:1028030012101B38DE0112101B92DE0112101B6A1C
:10281300DF0112101B8DDF0112101B40E0011210AB
:102823001B62E00112101BCBE00112101BE1E2015D
:1028330012101BD9E30112101B9DE40112101BCFD0
:10284300E60112101B19E70112101B69E7011210B0
:102853001BCDE70112101B2FE80112101B5DE801CD
:1028630012101B81E80112101BB6E80112101BE7BE
:10287300E80112101B1AE90112101B6AE901121078
:102883001BBDE90112101BE2EA0112101B82EC01CD
:1028930012101BDDEC0112101B06ED0112101B932D
:1028A300ED0112101B01EE0112101B0FEE011210AD
:1028B3001B33EE0112101B88EE0112101BA3EE0155
:1028C30012101B55EF0112101B8DEF0112101BD0BC
:1028D300EF0112101B33F00112101B35F20112101D
:1028E3001B5FF20112101B56F30112101B60F4015F
:1028F30012101B10F50112101BF2F30312101B2A06
:10290300F40312101B4BF40312101B8DF40312106B
:102913001BEFF40312101BF9F40312101B09F50348
:1029230012101B44F50312101B24F90312101B1180
:10293300FB0312101BF7FC0312101B8EFD03121076
:102943001B30FE0312101B87350012101B3236009A
:1029530012101BE0360012101BE6370012101B0684
:10296300380012101B2F390012101BEA3A00121004
:102973001B5D3B0012101B013C0012101B0D3D00A0
:1029830012101B783D0012101BB43D0012101BF7F0
:102993003D0012101B323E0012101B743E00121039
:1029A3001B093F0012101B853F0012101B4F4000F4
:1029B30012101B2C410012101BC4410012101BDE0D
:1029C300410012101B0E420012101B3F4200121056
:1029D3001B05430012101B15430012101B64430018
:1029E30012101B71430012101B7A430012101BF8C4
:1029F300430012101B54440012101B9F440012107A
:102A03001BBA440012101BE5440012101B024500C0
:102A130012101B0E450012101BA5460012101BBE00
:102A2300460012101B43470012101B56470012109A
:102A33001B75470012101B19480012101B9A4900FE
:102A430012101B4D4B0012101BE34B0012101BE620
:102A53004B0012101B564C0012101B744C0012102A
:102A63001B0B4D0012101B534D0012101B564D0033
:102A730012101B1C4E0012101B894E0012101BAFAC
:102A83004E0012101B3A4F0012101B584F00121029
:102A93001B9E4F0012101B52500012101B9C500023
:102AA30012101BCB500012101B28510012101B5D7B
:102AB300510012101B89510012101B975100121064
:102AC3001BE4510012101B54520012101B9D5200A4
:102AD30012101BE9520012101B15530012101B2079
:102AE300530012101B3E530012101B2954001210E6
:102AF3001B33540012101B6E540012101B7E540023
:102B030012101BD2540012101BE6540012101B1596
:102B1300560012101B2A560012101BB85600121032
:102B23001BFD560012101B89570012101B945700EF
:102B330012101BD6580012101BF1580012101B3D27
:102B4300590012101BAC590012101BE5590012104A
:102B53001BFF590012101B5F5A0012101BFE5A0074
:102B630012101B495B0012101B195E0012101BCBC5
:102B73005E0012101B385F0012101B7861001210E8
:102B83001B90610012101B93610012101B9F6100C8
:102B930012101BB3610012101BBB610012101BEE5D
:102BA300610012101BF1620012101B7E63001210F1
:102BB3001BEE630012101B70640012101B316500C2
:102BC30012101B50650012101BF1650012101B4EF2
:102BD300660012101B51660012101BC5660012100E
:102BE3001B14680012101B1A690012101BA5690040
:102BF30012101BC06A0012101B886B0012101BB945
:102C03006B0012101BDC6B0012101BE56B00121023
:102C13001B146C0012101BA46C0012101B5A6D00C5
:102C230012101BCF6D0012101B766E0012101BEBDF
:102C33006E0012101B226F0012101B606F00121027
:102C43001B3ADD0312101BE9FB0112101BDFFB0112
:102C530012101B89FB0112101B6EFB0112101BCDFE
:102C6300FA0112101BD1F90112101B00F901121005
:102C73001B09F70112101B5CF60112101BEEF50184
:102C830012101BA0F70412101B85FE0512101BDB8C
:102C9300DA0312101B96F70412101B2BF704121001
:102CA3001BD5D60312101B32D60312101B7FF5045B
:102CB30012101B3DF50412101B65F40412101B4F78
:102CC300F40412101B10F40412101B6BF304121003
:102CD3001B56F00412101B29EE0412101BF9ED040D
:102CE30012101B9DED0412101B37ED0412101BF67E
:102CF300EC0412101B28EC0412101BC3EB0412107B
:102D03001B67EB0412101B0AEB0412101BA8E90447
:102D130012101B45E90412101B8FE80412101B8AC2
:102D2300E80412101B73E80412101B3EE80412108F
:102D33001BF1D50312101B61E50412101BD2D5033E
:102D430012101B9FD50312101B8AD50312101B5F91
:102D5300D50312101B4FFF0112101B17FF01121096
:102D63001B5EE50412101B1CE50412101B09E5048D
:102D730012101BC0FE0112101BFEE40412101BDA1A
:102D8300E40412101BF4E20412101B73E204121089
:102D93001B22830212101B2FE20412101B44FD019D
:102DA30012101B03E20412101BEAB00512101BAC35
:102DB300B00512101B7FB00512101B4BB00512108B
:102DC3001BEAAF0512101BD2AF0512101BAEAF05E5
:102DD30012101B77AC0512101B43AA0512101B2AF5
:102DE300A80512101BB9A70512101B68A70512101E
:102DF3001B22A70512101B8BA60512101B05C50568
:102E030000000080FB000022E4738F0001008C1A95
:102E1300870001008A1A35000400501A25000200B9
:102E2300541A26000200561A27000200581A2800D6
:102E33000100621A29000100631A840004004C1780
:102E430086000100C8192A000100641A2B00010042
:102E5300651A2C0001006A1A2D0008005A172E006B
:102E630001006B1A2F0001006C1A300001006D1A6B
:102E7300310001006E1A32000100621733000100B5
:102E83006317340001006F1A36000100641738001D
:102E93000100701A39000100691A83000200881AC0
:102EA300630001006F1764000100661A65000100EA
:102EB300671A6D0001007017710008005217660051
:102EC3000100871A43000100781A44000200791AAE
:102ED300450001007B1A460002007C1A47000800E7
:102EE3006717480001007E1A4B0001007F1A040097
:102EF30001008B1AA10001008F1A370001008E1AFE
:102F0300880001008D1A3C00010065173D00010097
:102F1300711A49000200801A6700010071174D0001
:102F23000200821A4E000100841A4F000200851A23
:102F33003E000100771A51000100731A520001008C
:102F4300741A53000100761A54000100661700003A
:102F530000000000000136360101000102010001FA
:102F63000301000104010606050200000701003405
:102F73000801000F090401010D0100FF0E08000004
:102F830017020000190100FF1A0100011B0100FED6
:102F93001C0100081D0200001F01000120010001A7
:102FA300210200002301000F24020000260100017A
:102FB30027010008280200FF2A0100072B01024015
:102FC3002C0100002D0100012E0100012F0100FF43
:102FD30030010B1D310800003A0100083B01000FCE
:102FE3003C0100013D0100FF3E04000042040000DB
:102FF300460400004A0400004E040000520400008E
:10300300560400005A0400000000000020018186DD
:103013000000010020018686000002002001838653
:103023000000030020018286000004004201B485F1
:103033000000050042011485000006004201F384EC
:103043000000070030018586000000404201F38440
:103053000000FDFF21017F860300000021233316BA
:103063000600000010272F16060003F02123F6198F
:10307300010371030103010301030103010322039C
:103083000203010310030003000300030003000312
:1030930000030003420300032403060300030003A9
:1030A3000403120325032303250323030403040357
:1030B300000300030003440300030003230300038E
:1030C30065032100350381030003050300030003A7
:1030D3000003000325032303030071003001600094
:1030E30011007000310220035004800010006100C1
:1030F30000001400630073007200620043000000CC
:10310300130006000000000004001200000000008D
:103113000000000004000400370037003C024400B4
:103123000000000000000000650000003500810081
:103133000000050000008300000003047104020482
:103143006004110470040204020401040204100464
:1031530061040004140463047304720462044304EA
:10316300000413040604000400040404120400040D
:10317300000400040004510464000004000400047B
:10318300440400040004000400046504000435043E
:103193008104640005040004830400040302710233
:1031A3003001600211027002010202020202800277
:1031B300100261023A00410063027302720262026A
:1031C300430200021302380000020002040212024A
:1031D300000200020002000204020402370037006A
:1031E3003C024402000239000002000265020002B0
:1031F30035028102000205028202830200020101FC
:1032030071010101010111010101310101010101FB
:103213008001100161013B0014006301730172011D
:10322300620143010001130106013D013500040160
:103233001201000100010001000104010401330136
:1032430033013C01440132013600000100016501F4
:1032530000013500810100010501820183010001A4
:1032630036000100060000000F000000000000000F
:1032730000000000000003FFFF00000403FFFF0045
:1032830000FFFF0FF4010005C40403200001000048
:103293000B000000000000000003010F000000000D
:1032A300000000000000000000000000000000001B
:1032B30000000000000000000000000000002B1BC5
:1032C300551B311B5F1A371B5B1B371B671B3D1BD2
:1032D3005F1A371B5B1B431B5F1A00000000491B6F
:1032E3005F1A00000000000000004F1B5F1A00007F
:1032F30000000000000000000000000000000000CB
:1033030000000000000000000000000000000000BA
:103313000000000000000000000013009B1D1F00C0
:10332300A11D1F80A71D0000011E0100011E020038
:10333300471D0280411D03004D1D0400531D0480E1
:10334300591D05005F1D06006B1D31007D1D3300F7
:10335300831D3400891D36008F1DFFFF00000A0006
:10336300000002000000040000000800000010003C
:103373000000200000004000000080000000000169
:10338300000000020000000400000008000000101C
:103393000000002000000040000001C92506F925B7
:1033A30008F3250B172610172302CF2505E725075A
:1033B300D5250CB1250DBD25640D21FF000007ECBB
:1033C300FDFDFDECDCDCCCBCACAC9C9C8C7C7C6C57
:1033D3006C5C5C5C4C4C3C3C2C2C1C1C00160F00A5
:1033E300000B150B020002220F3300000E0F5A6967
:1033F30067426565416C6C69616E636530390000D5
:1034030000000000000000000000000000000600B3
:10341300000010273116060003F02123FA190600D5
:10342300000010273216060003F02123FC19D0D127
:10343300D2D3D4D5D6D7D8D9DADBDCDDDEDF0600AC
:10344300000010273016060003F02123F819150A8F
:10345300F4D4C0A5958272636155504900034D4C65
:103463004651181A250502303017181921301B1D33
:103473001F30303016181920231A1C1E3000011972
:103483001618161618230300003C40423A3F3F39F2
:103493002F47300C0E020B040B0A0708000F02041F
:1034A3000201010101090206000000102735160080
:1034B300BE040AE8030000E80303000100F6FB0072
:1034C300007F000000C133513412000606100A0CBD
:1034D30010080C0D030203021E021E0102FF000965
:1034E300033C0C040508150000FF09280805E4F057
:1034F300A3F0A3F0A3221234F1F0229018BA124AD7
:10350300FD1229B32212350C22E0F508E4F509F582
:103513000AF50B22E824FBF582E934FFF58322E860
:103523002411F582E439F583E022F5831235332241
:10353300E0F508A3E0F50922122C2F74041210669B
:103543007F08020E0E7401F090062AE0640F2274C5
:10355300091210667F04020E0EEA2413FAE43FFBFD
:10356300122B5DE9227905122B69740622A3A3E0CD
:1035730024F5C3941322122C3B90064A126ABB7A99
:10358300147B0022C082C08390189974A7F0A3749F
:1035930029F0A374B9F0A37429F090189D748FF0E7
:1035A300A37429F0A37489F0A37429F0A374C5F05C
:1035B300A37429F0A374CBF0A37429F0A374BFF010
:1035C300A37429F0A37477F0A37429F09018A97455
:1035D3009BF0A37429F0A374A1F0A37429F0A3743E
:1035E30095F0A37429F0A374D1F0A37429F0901873
:1035F300BA1254CC60099018BA124AF912195190B0
:1036030018B7124E137408126168A3F0901963F08F
:103613009018BCF07C0BFDF97ABD7B181218A37CC3
:103623000B7D0079007AC87B181218A3024C6D74C5
:10363300F7120AC874F7121114EAFEEBFF1236C52B
:103643007405124F317403F01237DC124F13243018
:10365300FCE43FFD8C821236BD1236D16008123E67
:10366300EA74FFF0A3F0EE242EE43F1C1CFD8C82D1
:10367300F583A3E0C0E08A828B83124BC5D0E012AE
:1036830036D1888289831254002403F0EE123EF46B
:103693001213747403F090063F120E977402121003
:1036A300F6123ABE121066E9F5087007EEFAEFFB60
:1036B300122A43A9087409023F03F583E08882892B
:1036C3008322EA1236CA2212560F3FF5832212636F
:1036D300E8124F1FE8F0A3E91266BFE02274F0126C
:1036E3000AC8EAFEEBFF8C0C8D0D890B1237DCF553
:1036F30083124F277410121374E0F508A31236BF18
:10370300F0E824FFF582E9123AD0E508F0E824FE58
:10371300F582E9123AD0E50BF0900644E0C0E0E808
:1037230024FDF582E9123AD0D0E0F0900643E0C0E0
:10373300E0E824FCF582E9123AD0D0E0F0741212EA
:10374300137412352F123517E509F0E824FAF8E956
:1037530034FFF98882F583E508F0EE2404FCE43FA6
:10376300FD88088A828B83E0F50E8C828D83E025A9
:103773000EC395081263E8124D4D850C82850D83A7
:10378300A3A3A3A3A3A3A3A3E064037009EE124F0F
:1037930001F0A3E48003123AD5123ADD7409F075FF
:1037A30008BD750918750A00780812104F125EB229
:1037B3001210667508FF7509FF7808121053AC0CD8
:1037C300AD0D123ABE121066E9F5087007EEFAEF76
:1037D300FB122A43A908023543EA2402FAE43FFB19
:1037E3008A8222C082C0839018D9E0C3940840041F
:1037F30074078001E08A828B83F033333354F8F902
:10380300024C6D74F0120AC88A088B09890A8C0E5F
:103813008D0F750C00A2AFE433F50BC2AF9018D334
:103823008045123908503D12392264037036E50889
:1038330024F9F508E50934FFF5098E828F83A3A3E4
:10384300E02405FCA3E03400FDAA08AB09121A3BEF
:10385300E50824FFF508E50934FFF5097410250C84
:10386300F50C150A123CF7126E70E50A6004EE4F70
:1038730070B0E50BA2E092AFA2AFE433F50BC2AF99
:103883009018D3803E1253D98882F58312464D8512
:103893000882850983F08A828983123919A3A3E0F8
:1038A300C0E0E50824FFF582E509123AD0D0E0F044
:1038B300E50824FEF508E50934FFF509050C150AAA
:1038C300123CF7123B4B6021123922640270F11251
:1038D3003908EE40B0125048A2E550E4850E8285C7
:1038E3000F837401F0E50A70D7E50BA2E092AF8570
:1038F3000882850983E50CF0E50824FFFAE509341D
:10390300FFFB02354312390EA2E622EE2411F582A3
:10391300E43FF583E02212391D2212541EA3228EA6
:10392300828F83A3A3124BC9125AF52274F0120A91
:10393300C874F31211147403121374E9F0740212AD
:103943001374EAF08B0B852182852283E4F0041241
:1039530010EE122959E9F8900629E0292437F508D1
:10396300FA7B001218B58A0C8B0DAE0CAF0DEA4F23
:103973007003023AB5EA2402F50EE43FF50FA808F6
:10398300EA28F8E43BF9850E82850F8312444990B7
:103993000629E0F9FAC3E49AFA95E0FB850E8285DD
:1039A3000F83E02AF50CA3E03BF50D9006271235B3
:1039B3002F750A00780812104FE9FC7D00AA0CABA2
:1039C3000D124E83121066AC21AD227401121374D2
:1039D300E0F9E50C24FFFAE50D34FFFB12295F8AB9
:1039E300828B83E4F0E50BC454F0F9901964E0C4CE
:1039F300333354C0F8900623E0A2E0E433131348B2
:103A030049440FC0E0EA24FFF582EB123AD0D0E03C
:103A1300F0EA24FEF50CEB34FFF50D740312137476
:103A2300E0F87402121374E0C454F048850C8285E4
:103A33000D83F0A80C850E82850F831261352AC38E
:103A4300988E828F83A3A3A3A3F0850E82850F8311
:103A5300E8F0A3E50DF0123AD5123ADDE4F0740C68
:103A6300121374E4F07508C8750918780812104F1A
:103A7300125EB2121066852182852283E06009EE10
:103A8300240E12504A4408F0122B4BE9F9E4F508CE
:103A9300F509780812105374061210F6123AC01280
:103AA3001066E97006EEFAEFFB800BEEFAEFFB12FD
:103AB30018BB7A007B00740D0235407903EEFAEFF0
:103AC300FB122B63740222EE24FFF582EF34FFF521
:103AD3008322EE1236CAE4F0A322F0123AE222EE77
:103AE300125DD53FF5832274F2120AC88A0C8B0D3E
:103AF300A2AFE433F50AC2AF750800750900901848
:103B0300D3802C123D075024850C82850D83A3A3FB
:103B1300125EC58E828F83A3A3124AF9122B51E939
:103B2300600A123D02C2E6F08E088F09123CF712BA
:103B33003B4B70CFE50845096006123BE4D2E6F043
:103B4300E50AA2E092AF800DE0FEA3E0FFEE4F2274
:103B530074021210667F06020E0E74F0120AC88AEF
:103B63000E8B0F8C0C8D0D750A00A2AFE433F50B91
:103B7300C2AF7E007F009018D38010AE08AF091249
:103B83003BDC125048D2E7F0124AD7124AEB6034BA
:103B9300123BE4A2E750F1850882850983A3A312AF
:103BA3000E97AC0CAD0DAA0EAB0F122B577402126D
:103BB3001066E960D3EE4F60C2123F7E7006123B7F
:103BC300F6D2E4F0E50BA2E092AFEE4F6006122AC4
:103BD3003D750A01A90A02354312390ED2E4F0EE0B
:103BE30022E508125DEF3509F583E022AA82AB8353
:103BF300121A3B8E828F83A3A3124BC9E02274F265
:103C0300120AC874FE121114750C00750D0085217B
:103C130082852283E4F0A3F0A2AF33F50AC2AF900A
:103C230018D3126E70802BEE24FBF582EF34FF1253
:103C3300352D780C121053123CE5121066EEFCEF92
:103C4300FDAA21AB221218D9AE08AF099018D9E00A
:103C530014F0EE4F602B123D07501DEE240BF8E4D9
:103C63003FF98882F583E024FFF0A3E034FFF08876
:103C73008289831254CC60AF8E0C8F0D123CF78077
:103C8300A1E50AA2E092AF9018D9E0602C90062A31
:103C9300E0640F6006901963E0701E7AB17B18121E
:103CA3002C3B90866B120E937AB17B18124CF51253
:103CB3001066800574F0124BD6AA21AB221218DFCE
:103CC3008A088B09AE08AF09EA4F601312296B12F9
:103CD3003D02A2E28E828F83A350D974E980D7027A
:103CE3003B53EEFCEFFD7AD37B181218EB740222E0
:103CF3008E0A8F0BEE24FBF582EF34FFF58322EE61
:103D030012390F2212390EA2E72274F7120AC8EAF7
:103D1300FEEBFF12296B124BC2122E0BE9640190CA
:103D23000646700AE02401F8A3E034008003124B36
:103D330048F912524A124D4D9018D9E0701F90065F
:103D43002AE0640F70177AB17B18122C3B90866BB4
:103D5300120E937AB17B18124CF5121066A8A8C202
:103D6300AF9018D9E004F0E8A2E78004E508A2E0E8
:103D730092AF02515874F7120AC8EAFEEBFFEA1237
:103D83003DAEF012296BEEFCEFFD7AD37B181218CF
:103D9300E5A8A8C2AF9018D912469C90062AE06401
:103DA3000F70057908122B0302515812390FC2E420
:103DB3002274F7120AC874EA121114EAFEEBFF9098
:103DC3000623E0602A8521828522837401F0121381
:103DD30074E4123E69121374123BEFC0E0740A12CA
:103DE3001374D0E0126155740B1213741253B5742B
:103DF30016023F0374F7120AC8EAFEEBFF12294DBD
:103E0300E9F974DC69601E74DD69601974E4696042
:103E13001474F369600F74DE69600A74DF69600506
:103E230074DB697007EEFAEFFB122B090251587429
:103E3300F7120AC874EB121114EAFEEBFF85218214
:103E43008522837406123E69121374AA82AB83120D
:103E53001A3BEE2408FCE43FFD740A121374125358
:103E6300B57415023F03F0EA2413FCE43FFD74022A
:103E73002274F7120AC874F7121114EAFEEBFFEA70
:103E8300243012504A605DEA123EF4121374740334
:103E9300F090063F120E97123EEA120E97900652CA
:103EA300E0F974041210F6EEFAEFFB1229537404CE
:103EB300121066E9F974DC69602374DD69601E74AD
:103EC300E469601974F369601474DE69600F74DF68
:103ED30069600A74E869600574DB697007EEFAEFDC
:103EE300FB122B090236B8EE242EF582E43FF5834C
:103EF300221262C6AA21AB22121A3B74082274034F
:103F030012106602515874F2120AC88A0C8B0D758E
:103F13000A00750B007508E7A2AFE433F509C2AFD9
:103F23009018D38003123CF3123B4B6025123D07DC
:103F330050F3123F7E70EEEE2432124115E06870AA
:103F4300E4780A121053123CE51210669018D9E077
:103F530014F0E509A2E092AFEE4F6013EEFAEFFB27
:103F630012296B79F0EEFAEFFB122B09750800A901
:103F730008AA0CAB0D122B09023B58123AE2E0647B
:103F8300012274F4120AC874F7121114EAFEEBFF4B
:103F93008A82F583A3E064F370030240238A828B51
:103FA30083A3E064DF60798A828B83A3E064E860A3
:103FB3006F8A828B83A3E064DB60651229ADE9F528
:103FC300087055EE240E12504A604D12402D604881
:103FD300740812137412403C120E977508FF75098A
:103FE300FF78081210538E828F83A3A3A3A3A3A3E6
:103FF300A3A3E0F974041210F612295374041210E7
:1040030066E9F50874F369600F74DF69600A74E8A0
:1040130069600574DB69700F8E828F83A3E508F0F6
:10402300EEFAEFFB1229B9023552EE240FFAE43F00
:10403300FB79091229EFEA4B2274021258BB74FF71
:10404300F0A312404922125409A3A32274F1120AC5
:10405300C8EAFEEBFF7508008A82F583A3A3A3A336
:10406300A3A312357040037508E88A828B83A3A348
:10407300A3A3A3A3A3A3A3A3E0C39410400575081C
:10408300E880138A828B83A3A3A3A3A3A3A3A3A3DD
:10409300A3E0640F600B901940E0540870037508A7
:1040A300E8EA240B124115A3A3A3A3A3A3A3A3E0AC
:1040B300C398500DEA240B12504A640F600375082D
:1040C300E8900643E0F47003A3E0F470037508EC92
:1040D3007A237B0012194B8B0BA90B9018BA124150
:1040E3002460278E828F83A3A3A982AA83890C8A43
:1040F3000D750E00780C12104F7C237D009018BABA
:10410300E0FA124E83121066800375081AA908029A
:104113005EADF582E43FF583E0F88A828B83A3A347
:1041230022EAF0A3EBF0EA492274F5120AC8EAFE88
:10413300EBFF8A82F583A3A3A3A3A3A3A3A3E09086
:10414300062A1241BCE0900645F0EA240B12504ABD
:104153009006251241BCA3E0901964F0F91216FFF2
:10416300901964E0600BEE240412503C24061241C3
:10417300B290196312354860047401800274009090
:1041830018BC12680012104F7C0B7D007ABD7B189F
:10419300124E83121066EE2418F508E43FF50978F1
:1041A3000812104F7C0B7D007AC87B18024E70FA00
:1041B300E43FFB79E11216E7221267EAA3A3A3A364
:1041C3002274F7120AC8EAFEEBFF8A82F583A3E0A2
:1041D30070031234FE12637102515874F7120AC845
:1041E300EAFEEBFF9018BA1254CC60109018BA1282
:1041F3004AF99018BAE4F0A3F01219518E828F8312
:104203007408124BDD121FE102515874F6120AC8EA
:10421300901963E060109018BCE0700A12422CEA17
:104223004B6003122A4302646B900625E0FB900661
:1042330045E0FA90062AE0F91229652274F4120A7D
:10424300C874E7121114EAFEEBFF750B018A82F5BD
:1042530083A3A3A3A3A3A3A3E0A2E25069EA242B0D
:10426300F582E43F125EC3EA2413FAE43FFB12290A
:1042730071E970529085D1E064017005750B00807F
:10428300451242FE12104F7C0B7D0074111210EE8A
:10429300124E83121066122B4BE9FA740E1210E6BB
:1042A3008808890978081210537508307509007851
:1042B30008121053EE12611E120E971262B87901A2
:1042C30012356A1210668521828522837410F012DA
:1042D30062B87402121374AA82AB83121A2FEE24EB
:1042E3002B126AB1740B121374124D4D740D121309
:1042F30074E50B12652A7419023554EE240812680A
:104303000822C082C083901964E06003122BBD02AF
:104313004C6DC082C08390195B7499F0A37418F03C
:10432300A3749DF0A37418F0A374A9F0A37418F0F8
:10433300901AC5743DF0A37431F09019457447F099
:10434300A37429F09018DE747DF0A37429F09018FB
:10435300E07483F0A37429F0901940E0440202470B
:1043630071C082C083EAFCEBFD7903025478C082FA
:10437300C08379080265EBC082C08374FE121114F6
:104383009018E6742BF0A3742AF09018E87425F0C3
:10439300A3742AF080077AD37B181243D69018D3DC
:1043A3001254CC70F19018D51254CC60097AD57B95
:1043B300181243D680EF9018D3E4F0A3F09018D9E5
:1043C300F0A3F0A3F09018F47467F0A3742AF074C8
:1043D30002801C1218DF852182852283EAF0A3EB79
:1043E3001243EA122B3922F0AA21AB2222741112B2
:1043F3001066024C6D74F6120AC8E9FF748B29F536
:1044030082E43434F583E493FEFA7B001218B5EAB0
:104413004B6007EA2E12444680267A027B0012186C
:10442300B5EA4B6017746A2FF582E43434F583E4FC
:10443300938A828B83F0A3741A12480F7A007B004D
:1044430002646B124D3CE81263E5A3A3A3A3E4F05B
:1044530022E9FC740629F8EAA2E0501EE875F00A86
:1044630084E5F0F96014740A28C399F8E9C3940544
:104473004004740A28F8740B28F8ECC3941340041E
:10448300791480027906E82979002409F850010992
:104493007A0A7B00120900E8F9021018C082C0836F
:1044A300901940E05402600A122DFDE9600479017D
:1044B30080027900024C6DC082C083901940E054A1
:1044C3000260149018D9E0700A1254C960091244AA
:1044D300DF5004790180027900024C6D123522A26B
:1044E300E722C082C0839085CEE0F89018DBE0C35A
:1044F3009850051218B580047A007B00024C6DC0F9
:1045030082C083122B397900024C6DC082C0837440
:10451300FE121114852182852283EAF0A3EB124651
:1045230078A3A3A3A3A3E0600A14605724FE605AF0
:104533000245E890062AE0640F6012122B0FE9701F
:104543000C124AF39018E2124BC5122E0B9006522E
:10455300E0C0E08521828522831253ECD0E012462D
:10456300787414125E09FCA3E0FD7AD57B18121847
:10457300D9A8A8C2AF9018DB12469C7920122B034E
:104583000243D2124946741580D9124946A3A3A304
:10459300A3E06051124946123BFAC0E085218285AF
:1045A3002283E02406F582E43BF583D0E0125E0922
:1045B3002402F8A3E03400F98882F583E02401FAA9
:1045C300A3E03400FB88828983EAF0A3EB125E093F
:1045D300124986852182852283601312464D600528
:1045E30012465F4048AA21AB22122B398092124611
:1045F3004D60F212465F502112466CFA8521828586
:104603002283A3E0C82406124942F874A01256017B
:104613003434F583E4936A601485218285228312FE
:10462300464D640870BF12466C640870B812466C3D
:1046330014124680240AC0E0852182852283124B0E
:10464300C5D0E01246800402456612465122124B41
:1046530048C82406F582E438F583E0228521828563
:104663002283124651C3940A228521828522831212
:10467300391DA3E02212468AF58388822212468AD4
:10468300C8240612497022F0852182852283124BA9
:104693004822A8A8C2AF9018DAE004F0E8A2E79293
:1046A300AF22C082C0839018EA1254CC600812492A
:1046B3004D122E0B80027900024C6D74F7120AC85A
:1046C300EAFEEBFFEA123AE37401124CFBF8A3E0B3
:1046D300F91236C5124D4DEA243512504AC0E0EAAC
:1046E3002413F582E43FF583D0E0F0EA2436125038
:1046F3004AC0E0EA2414F582E43FF583D0E0F0EA0F
:10470300243812504AC0E0EA2418F582E43FF583C6
:10471300D0E0F0EA242FF582E43FF583120E9712DE
:1047230062C5EA243112504AF9123AC4121066E9FA
:10473300F5087007EEFAEFFB122A43A90802515855
:10474300C082C083122B0FE96004792080027901B3
:10475300024C6DC082C083EA2411124767D2E08005
:104763000DEA240DF582E43BF583E022F0A3F00289
:104773004C6DC082C08312476464017011124809F2
:10478300400C8A828B83A3E0F9122B0980661247BF
:10479300FAA2E650128A828B83A3E0F99018E412FE
:1047A3004BC5122E0B804D1247646401700D1248E5
:1047B3000950088A828B83743080368A828B83A364
:1047C300E0641B8A828B83700474228024A3E070CC
:1047D3000D124764F874751256013434800B124776
:1047E30064F8746A1256013434F583E4938A828B35
:1047F3008312480F024C6D1247FE22EA2410F58201
:10480300E43BF583E0221247FEA2E322F090193B3A
:10481300E0F91218C12274F7120AC8E9FE1254C94A
:10482300700302493FEE6014741B6E701AE8125D48
:10483300D539F583E0640570030249179018DD123A
:10484300494DA3E402491E74E96E7068E82412F529
:1048530082E439F583E0700B121FEDE9600512491C
:1048630090606179EE1216699018DC12496790180E
:10487300DC603A1249939018DC700B12496714F00C
:1048830012182B02493F124985C2E7124B2E240D01
:1048930012494264037009124960124AE4D2E2F0F9
:1048A30079ED121669124978122E0B80781249534A
:1048B30074E9806774E16E703E121FEDE960551272
:1048C3004990705090064CE0C0E01249602412F504
:1048D30082E438F583D0E0F090063BE0C0E0901826
:1048E300DC12495C12495CD0E0F090063BE004F036
:1048F30079011218138045741C6E70189018DC121D
:104903004AF99018EC124BC5122E0B9018DCE4F008
:10491300A3F080289018DC124953EEF09018DC12B3
:104923004AF9122A31124B0FE0548060031265DA00
:104933009018DCE4F0A3F07910122B030251581203
:10494300497022852182852283A3E0F58388822210
:1049530012495722124BCDA32212541A229018DC6B
:104963001253FB221253FB241212497022F582E4E4
:1049730038F583E0229018DC124AFD9018E0124BC0
:10498300C922E0F8A3E0C82410124970229018DC71
:10499300124B16E054042274F4120AC8750A007507
:1049A3000B00A2AFE433FEC2AF1254C96003024A44
:1049B3008D124BC2122E0BE94410F89018D38009C4
:1049C30085080A85090B124AD7124AEB7003024A7B
:1049D3008D123BE4586870E8780A121053AC08ADA6
:1049E30009123CE91210669018DCE508F0A3E5090A
:1049F300124B2E124AE4A2E75003024A949018DAAB
:104A0300E014F0EEA2E092AF9018DCE0240EF8A3DD
:104A1300E03400F9E8FEE9FF8882F583124AF99051
:104A230018DC124672F91229F5E99018D712616859
:104A33008E828F83E05480601812496024131249D8
:104A430042F91217231249602414124942F912172A
:104A530017124B0FA3E05401605F9018D71254CC88
:104A63006045124B256040124B25F879009018D70A
:104A7300124AF9120908E8C0E0124B03D0E0124BC6
:104A830033C3941340117402800FEEA2E092AF80FF
:104A9300379018D9024A037400C0E09018DDE0C8CB
:104AA300124ACED0E0800D124B037401124B2E122A
:104AB3004ACE7401F07903800C9018DC124985A268
:104AC300E1B3E433F9121813023557241AF582E4DB
:104AD30038F58322E50824FBF582E50934FFF583E5
:104AE30022125DEF12497322123533E5084509227C
:104AF300852182852283124AFD22E0FAA3E0FB226C
:104B03001253F82419F582E438F583229018DC1245
:104B13004B1622124B48C8124B1E2212560F38F561
:104B230083221253F8241812497022124B40C822D0
:104B3300124B40F5838882A3A3A3A3E022F090182D
:104B4300DC124B4822E0F8A3E02274F7120AC8EA09
:104B5300FEEBFF122B33125047A2E3400A123F7EB3
:104B630070059085CC80039085CDE0F9EEFCEFFDD8
:104B73007AD37B181218F1E96038EEFAEFFB90183C
:104B8300E6124BC5122E0BEE240E12504A5404703B
:104B930012124695EE1236C6A3E05401701E122A75
:104BA3003D8019EEFAEFFB9018DE124BC5122E0B67
:104BB300800A8E828F83A374F1124BD602515890D0
:104BC30018E8124BC922124BCD22E0F8A3E0F5837B
:104BD300888222124BDD122A3122F0EEFAEFFB22F9
:104BE300024C6674F7120AC8EAFEEBFF79009019CB
:104BF30040E05402700CEA243312504A5404600219
:104C030079E8901940E05460700CEA243312504A5A
:104C13005402600279E88A828B83A3A3A3A3E0F8FA
:104C23009085D2E0C398500279E8EA243112504AC1
:104C3300700CEA242E12504A700479F5800BE97047
:104C430005122A1FE9F9E96007EEFAEFFB122B09B7
:104C5300025158C082C0838A828B83740DF0121F65
:104C6300E18007C082C083122A3DD083D082021024
:104C73001874F4120AC8EAFEEBFF8A82F583E4F0A3
:104C8300A3124CFB54049085CC7012E0F89018DA10
:104C9300E0C398401279F1122B09023557E0F890DE
:104CA30018D9E0C39850EE124D01A3E054016037C8
:104CB300EA243712504AC394054033EA243312508E
:104CC3004A540570297AEE7B18122C3BEE2437F5F3
:104CD30082E43FF583123508780812104B7AEE7B95
:104CE30018124CF5121066EEFA1256F280AC79E8FF
:104CF30080A5122C2F740422F0124D01E022EA2425
:104D030033F582E43FF5832274F6120AC8E9FE24E0
:104D130051FAE43400FB1218B5EA4B6015EE8A82AF
:104D23008B83A3A3A3A3F0EA2451124D3C124D4D50
:104D330080047A007B0002646BF8E43BF98A828B7F
:104D430083A3A322126ABB9019B8E8F0A3E9F02267
:104D5300024C66C082C0839018F77491F0A3742A42
:104D6300F0A374C1F0A3742AF0A37497F0A3742A78
:104D7300F0A3749DF0A3742AF0A374BBF0A3742A68
:104D8300F0A374AFF0A3742AF0A374A9F0A3742A58
:104D9300F0A374C7F0A3742AF0A374CDF0A3742A0C
:104DA300F0A374D3F0A3742AF0A374DFF0A3742ADE
:104DB300F0A374A3F0A3742AF0A3748BF0A3742A52
:104DC300F0A37485F0A3742AF090191374B5F0A3BB
:104DD300742AF0A374D9F0A3742AF0A374F3F0A394
:104DE300742BF0A374E5F0A3742AF0A374EBF0A37F
:104DF300742AF0901937E4F090193AF090192312BD
:104E03004E137402F090192C124E13740102477161
:104E13007403F0A3742BF0A32274F5120AC874F17F
:104E23001211148521828522837402F074011213F6
:104E330074E9F060047AFF7BFF7402121374125852
:104E4300B075082F750919750A00780812104F7C80
:104E53000B7D007407121374AA82AB83124E831264
:104E63001066AA21AB22121FE1740F8003124E8336
:104E73001210667F03020E0E7C0B7D007A2F7B19C6
:104E830012189774032274F7120AC874FD121114CE
:104E9300852182852283740AF07401121374E9F068
:104EA3007402121374EA12652A023F0174F6120A9D
:104EB300C874F7121114EAFEEBFFEA124F01124F06
:104EC300317402F0EA2428FCE43FFDAA21AB22124C
:104ED3001A2FEE2431124F072433125F2912105375
:104EE30074021210F679831A1A123AC2121066E982
:104EF300F5087007EEFAEFFB122A430264641236D8
:104F0300CA740122F582E43FF5831235331253D17B
:104F1300F583124F1FE8F0A3E9F0EE22124F278A20
:104F2300828B8322E024FFF8A3E034FFF922F0A36D
:104F3300E4F0EA123AE32274F0120AC812699912F1
:104F430012FF7808790C120961780812104B7A263F
:104F53007B1902353B74F4120AC874C612111490FB
:104F6300062AE0640F600D852182852283742E1248
:104F730058CF80227A1D7B191235791209088808C7
:104F83008909E4F50AF50B780812104B7A1D7B1991
:104F9300124CF5121066743A02355474F5120AC8AD
:104FA300EAFEEBFF8A82F583A3E0F87078EA243007
:104FB30012504A64026007E06403600278E8EA245E
:104FC30026F582E43FF583123572400478E8805871
:104FD300E87052EA24261241B2EE243112503C24E6
:104FE3003012504A6402700EEE2428126AB1900601
:104FF30039124D4D801790063974FEF0A304F0EE7C
:105003002428FCE43FFD7A307B06121A3BEE241B76
:1050130012430112104F124E7B121066EEFAEFFB91
:10502300122A7FE9F8E8600EE88E828F83A312626A
:10503300CD7417126377024E76FAE43FFB79501270
:1050430016E7EE22EE2410F582E43FF583E02274A6
:10505300F6120AC874F712111490193AE0703774F3
:1050630001F0F91217DDAA21AB22122B4575082F87
:105073007509197808121053750801750900780825
:1050830012105390063F120E9774061210F67A030D
:1050930012356812106602646674F7120AC8125257
:1050A300787004A374EBF090193AE0A2E25003C2C3
:1050B300E2F0E0A2E1500512528980098E828F83CB
:1050C300742A12637702515874F4120AC874FE12D8
:1050D300111412517E1253C4EC852182852283124E
:1050E3005413E0F50B7015AA21AB2279531216E77E
:1050F300EE2413FAE43FFB794A1216E71242FE123A
:10510300104F124E7B121066124AF3A90B122A7328
:1051130090193AE0A2E1500312529090193AE4F048
:10512300740202355474F7120AC8EAFEEBFF8A824E
:10513300F583A374EBF090193AE0A2E150077A00EB
:1051430079EB122A79EEFAEFFB122AAF8007EEFA17
:10515300EFFB122BB17F01020E0E74F7120AC81275
:10516300517E901937E4F090193AF07AFF7BFF8E65
:10517300828F83A3E0F9122A7380DA1252C97A2646
:105183007B19122C3B2274F7120AC8EAFEEBFF12BA
:105193002AA980BA74F7120AC8125306A3A3A3E07C
:1051A30060047400800274EB1251D75003C2E2F022
:1051B300E0A2E150051252DA8011A2E0500D8E8276
:1051C3008F83742AF0A374EB126377EEFAEFFB126A
:1051D3002A5580818E828F83A3F090193AE0A2E250
:1051E3002274F6120AC8EAFEEBFF90193AE0D2E104
:1051F300F079011217DD8E828F83A3E07038122BB2
:105203004BE9FAEE240DF508E43FF509780812108E
:1052130053750801750900780812105312524A1287
:105223000E97EE2402FCE43FFD123568121066E986
:105233008E828F83A3F08E828F83A3E060067A0031
:10524300F9122A7902646BEE240BF582E43FF583AD
:105253002274F7120AC81252787004A374EBF09008
:10526300193AE0A2E25003C2E2F0E0A2E1500312D5
:105273005289025158EAFEEBFF79011217E38E823D
:105283008F83E0642022C2E1F0125290227A008ED2
:10529300828F83A3E0F9122A792274F7120AC812C3
:1052A30052C98E828F83A3A3A3A3E06004740080FA
:1052B3000274EB1251D75003C2E2F0E0A2E15003B3
:1052C3001252DA0251CEEAFEEBFF79011217E37AAA
:1052D3001D7B19122C3B22C2E11267FBE0A2E4E41E
:1052E30033FA1252922274F7120AC812530674EB5D
:1052F3001251DC5003C2E2F0E0A2E15003125289E2
:10530300025158EAFEEBFF79011217E38E828F8375
:10531300A32274F7120AC812532B02515174F712C5
:105323000AC812532B025158EAFEEBFF7A1D7B1970
:10533300122C3BEEFAEFFB122AD32274F7120AC89F
:1053430074EF121114EAFEEBFFEA1262B97A307BB2
:1053530006121A29E960568521828522837409F091
:10536300740112137474EFF01253C47402121374A1
:10537300EC125413A3A3E0C0E07404121374D0E03E
:10538300125400640870158E828F83A3A31253EC0A
:10539300E0C0E07405121374D0E0800674051213A4
:1053A30074E412615574061213741253B574110226
:1053B3003F03AA82AB83122B7BAA21AB22121FE1EC
:1053C300221253D1F5831253E3FCA3E0F922EE1228
:1053D30053D9FB8882222402F8E43FF9E8FAE92250
:1053E300124B488882F583E0221253FB2407F5828F
:1053F300E438F583229018DC124B48C82212540477
:1054030022125409E022F08E828F83A3A3A3A32246
:105413001263E512541A2212541E22E0F8A3E0F597
:10542300838882A3A322C082C083122BBD024C6D4A
:10543300C082C08390195774F7F0A37418F0A37453
:1054430013F0A37419F0901ABF7401F0A37432F02F
:10545300A3749FF0A37431F0901943746DF0A37497
:105463002AF0901940E04401024771C082C083EAE8
:10547300FCEBFD7902122B21024C6D74F6120AC863
:1054830074FE12111490193C1254CC60077A3C7BC1
:1054930019122B39901942E4F0900D1A1254CC6072
:1054A300208007AA21AB22122B3990193BE0F91275
:1054B30018CD8B09A9098521828522831241247085
:1054C300E274020264689018DC126ABBE849227431
:1054D300F7120AC8E9FA7B0090193BE0F91218F7B2
:1054E30002515874F7120AC874F0121114EAFCEB53
:1054F300FDE9FE8A828B83E0F874961256013434F8
:10550300F583E493C0E07401121374D0E0F0640BEC
:10551300700DE98A828B83A3F0122B9F0255FCE066
:1055230070030255FC640C60030255ED741A6E702F
:105533000B7404121374E4F0A30255EC74041213F5
:10554300741258B0EA2432125DB9C0E07403121326
:1055530074D0E01267E612135D740612137412130B
:10556300398C828D83A3A3A3A3A3A3A3A3A3126AAA
:10557300B7740A121374E8F0A3E9125606E0541044
:105583006009852182852283E48013EC2412125D55
:10559300B9F890064CE0C398852182852283F0E018
:1055A300C0E0740C121374D0E0F0EC2415125DB952
:1055B300C0E0740D121374D0E0F0EC2416125DB940
:1055C300C0E0740E121374D0E0F0EC2417125DB92E
:1055D300C0E0740F121374D0E0125606A3E0540116
:1055E300600874011213747411F07402121374EED0
:1055F300F074011210EE121FE17410023F0328F53C
:1056030082E422F0EC12560F3DF58322240EF5823C
:10561300E422C082C083901942E0640370047901DC
:1056230080027900024C6D74F7120AC8901942E0A7
:105633001256A574BD28F582741A39F583125B37A7
:10564300C2E7F01256ACA3E493FE25E0FCE433FD7D
:1056530074BD2CF582741A3D125EC3EC4D6005EEE9
:10566300901942F08A828B83E025E0FCE433FDE865
:105673002CF582E93DF583E493FCC4540F25E0F84F
:1056830074511256013419F5831254CC7005122B40
:105693008D800CEC540F1256AC124BC5122E0B021C
:1056A300515825E0F8E433F92225E0FCE82CF58293
:1056B300E439F5832274F2120AC874FE12111489B4
:1056C3000B8A088B09125757125748601A126162E6
:1056D300F50A780812104F1257642402125EB912A9
:1056E30010661256F08003125776023B53AA0CEF52
:1056F300FB90193BE0F91218C12274F0120AC87426
:10570300FE121114890B8A0E8B0F125757F50812CC
:1057130057486027126162A808EA28124446850E9A
:1057230008850F09F50A780812104F125764125EA4
:10573300B71210661256F079008005125776791A5F
:105743007402023540FA7B001218B58A0C8B0DAF38
:105753000DEA4F22745F29F582E43434F583E49330
:1057630022A80B74801256013434F583E493FC7D34
:1057730000EA22852182852283E50BF0791AAA218A
:10578300AB22122B0922C082C083E990193B024746
:105793007174F6120AC874FE121114EAFEEBFFEAE2
:1057A300542070308039A8A8C2AF9018DBE01412DF
:1057B300469E8A828B8312589D90193E1258B012CE
:1057C3002B15852182852283E0641560077A3E7B51
:1057D30019122B397AD57B181218DFEA4B70C7EFF1
:1057E3005480700C801690193EEAF0A3EB1258C354
:1057F30090193BE0F91218CDEA4B70EAEE541060B1
:105803000B852182852283742D1258CFEEA2E0509E
:105813000B85218285228374241258CFEE540260B3
:105823000B85218285228374251258CFEE540460A0
:105833000B85218285228374261258CFEE5408608B
:105843000B85218285228374281258CFEE54406041
:105853000D74011213741258B6742C1258CFEE54EF
:1058630080600D74011213741258B6742F1258CF3E
:1058730090193C1254CC601BA8A8C2AF90193C12DB
:105883004AF990193CE4F0A312469EA3EAF0A3E977
:105893001258C37A007B000254C41258A122E08537
:1058A3002182852283F022A3A3A3A3A3A3EAF0A3C7
:1058B300EBF022E41258BB22F08521828522832259
:1058C300F0122B157A3E7B19122B39221243EA125E
:1058D3002B1522C082C08390193E12652568700281
:1058E300EB69700790193EE4F0A3F0024C6D74F776
:1058F300120AC8EAFEEBFFEA4F700312151FA2AFAC
:10590300E433F508C2AF8E828F831254CC6028E84B
:1059130024FBFAE934FFFB90193E125EC5E86C7074
:1059230002E96D700790193EE4F0A3F08E828F8335
:10593300E4F0A3F0121951023D6FC082C0839019A5
:10594300657481F0A3742BF0A37493F0A3742BF00C
:10595300A37499F0A3742BF0A3744FF0A3742AF0EB
:10596300A3749FF0A3742BF0A37449F0A3742AF0DB
:10597300A37455F0A3742AF090197374CFF0A37431
:105983002BF0A374A5F0A3742BF0A374ABF0A37452
:105993002BF0A374B7F0A3742BF0A374B1F0A3742A
:1059A3002BF0901964E4024771C082C083900639DA
:1059B300E064FE7003A3E0F470097C307D06121AE4
:1059C3002F801C8A828B83A3A3A3A3A3A3A3A37463
:1059D30002F0900639126AB78A828B83124D4D0208
:1059E3004C6DC082C083900643C3E094FEA3E09451
:1059F300FF4004790380027902024C6DC082C083A8
:105A0300125B408C828D83125AF568703974026878
:105A1300701C8A828B83125A4EE06870298A828BAB
:105A230083A3125A4EA3E068701C7901801A740391
:105A3300687013EC2405FC50010DEA2405FA5001AB
:105A43000B121A3580027900024C6DA3A3A3A3A302
:105A5300E0F88C828D83A3A3A3A3A32274F6120A76
:105A6300C87E00740A121374E0125AE9FF8A828B0B
:105A730083A3A3A3A3A3A3A3A3E06F706474026F80
:105A8300704E8A828B83C082C08388828983A3A35A
:105A9300A3A3A3E0F50888828983A3A3A3A3A3A355
:105AA300E0FBAA08D083D082E06A7003A3E06B70A6
:105AB3003088828983A3A3A3E0FA88828983A3A37E
:105AC300A3A3E0F9EA6C7002E96D70157E01801101
:105AD30074036F700CE82405FCE439FD121A35E9F0
:105AE300FEEEF902646BF8A3E0F98882F583125A9B
:105AF300F522A3E01313543F540322C082C0838AC8
:105B0300828B83A3A3A3A3A3A3A3A3E0640270161E
:105B1300900639125B37687003A3E069700479015A
:105B2300800F7900800BEAFCEBFD7A307B06121ABA
:105B330029024C6D126ABB8A828B83E0228A828B94
