:020000040000FA
:06000000021002020605D9
:03002B00020DB50E
:03003300020A6F4F
:0300530002053A69
:03006B00020A3D49
:100083000205990100F0FF0700080000FFFF0000D0
:100093000704000000030001FF14102700000020E4
:1000A300FD000206FFFF1EB6180000C8180000007E
:1000B3000000000000000000000000000000001E1F
:1000C300001E001E001E0001040100000203D38570
:1000D300024386020401000002017786017586034C
:1000E300040100000201738601718604040100000B
:1000F30002016F86016D86050401000002016B8613
:10010300017986010400009615000000E803000051
:10011300FFFFF3150188130000E803000064006487
:1001230000B801A0BB0D00A0BB0D00020202070432
:100133000101051E02051E020A0A01010108090840
:100143000103B80B02803E0102FEFFE8030A05002B
:1001530001FFFF010A011401E00200000001050391
:1001630001010F10FEFFEE2D00000000862D0000A0
:100173000000FF000000FF0012104E604612101234
:10018300603DE9687008F618F618F618F6227480D0
:1001930067F71201AF090909748067F72212101279
:1001A300601D12104E7005191919801A120EEE7087
:1001B3001F120EB2C37003E66733191919400718EB
:1001C30018182208080874FFF618F618F618F6220D
:1001D300120EB260171210AF702192F01210C1709C
:1001E30019501720F014080808090909E7F6181927
:1001F300E7F61819E7F61819E7F6221210C160E6B8
:10020300E869701F0808E62480F608E436F61854F7
:100213007FB47F0CE654806007F6E418F618F622E4
:10022300181822E9C6CC08C6CD08C6CE08C6CFC06A
:10023300E0E8C0E0EAC0E0EBC0E009E9F809E7FA6A
:1002430009E7FBE6F918E6F8C3EC98ED99EE9AEBAB
:10025300C2E7F5F0EFC2E795F0500E600CEBCFFB71
:10026300EACEFAE9CDF9E8CCF8EAA2E7D2E7FAEB6D
:1002730033FB13F5F0EEA2E7D2E7FEEF33FFC5F051
:1002830013A2E730E601B313C5F0C3C0E0C0F07FAB
:1002930000C39BFB605E9418600F401D14601AD06E
:1002A300E023F9D0E0F80203818AF0E9486003D241
:1002B300F0E4AFF0FAF9F8803BEB30E40D89F0EAB3
:1002C3006003D2F0E4AFF0F9CAF8EB30E30D88F045
:1002D300EF6002D2F0AFF0E4CAC9F8EB5407601440
:1002E300FBC3EA13FAE913F9E813F8EF135002D248
:1002F300E0FFDBEDD0E0C0E030E739C3E49FFFF57A
:10030300F0EC98FC42F0ED99FD42F0EE9AFE42F0DB
:10031300D0E0F9D0E0F8E5F0607AE923F9EE20E7E0
:1003230042D8028067C3EF33FFEC33FCED33FDEEBD
:1003330033FE80EAEC28FCED39FDEE3AFED0E023F3
:10034300F9D0E0F84002801BC3EE13FEED13FDEC81
:1003530013FCEF135002D2E0FF08B800067F7F744E
:10036300FF802EEF3350178CF020F00260100CBC8E
:10037300000C0DBD00080EBE000408E860DFE93381
:10038300E813FFEE2313FE4F4D4C8008E95480FF22
:10039300E4FEFDFCEE33EF33F47004FCFD7E80D00D
:1003A300E0FBD0E0FAD0E0F8D0E0CFC618CEC61814
:1003B300CDC618CCC6F92200121012604F12104E8F
:1003C3006012E7548066F6120EEE70111210AF70D1
:1003D3003B090909F4F618F618F618F622120EB2BC
:1003E30070151210C108080860EAE6447FF6187613
:1003F3008018E4F618F6221210C160161210AF70BE
:1004030012E4F608F608F608E65480F60909091816
:10041300181822EAC0E0EBC0E0ECC0E0EDC0E0E673
:1004230087F0A4FBACF008E687F0A42CFCE435F0DD
:10043300FA1809E687F0A42C4B60027401CA35F060
:10044300FCE433FB09E687F0D2F7A42CCB35F0FCB0
:100453001908E687F0A42BCC35F0FBE433FD08192B
:10046300E687F0D2E7A42C4ACB35F0CD3400FC0963
:10047300E687F0D2E7A42DCC35F0FDE433FA091872
:10048300E687F0D2F7A42CCD35F0CA3400FC08E699
:1004930087F0D2E7D2F7A42ACC35F07A7E20E70B97
:1004A3000ACB33CBCD33CDCC33CC33CB33501470D9
:1004B30004ED30E00ED2F1E4CD3DCDCC3CCC3B504D
:1004C30005DA05C2F1EB547FC63308E63392F0FB3D
:1004D300E73309E733C39A502D2B70190C0D4C4D9C
:1004E30070151806E608C333700D20F10AA2F01345
:1004F300F6E418800B4024E4F630F002768018F618
:1005030018F618F68024D33B14501074FFA2F0138E
:10051300F6187680E418F618F6800FA2F013F61892
:10052300E63303F618ECF618EDF6D0E0FDD0E0FC68
:10053300D0E0FBD0E0FA22C0E074F1120882A2AF4F
:10054300E433F509D2AF85A708AFA1EF5508FE74D0
:10055300105E600612133A75A1EF74085E6008120C
:10056300134075A1F78024EFA2E092F0E508A2E022
:1005730082F05017906198E0F8900512E0C398A2BA
:10058300D265D0335002E8F075A1FEE509A2E092EE
:10059300AF7F0202093EC0E074F2120882A2AFE408
:1005A30033FED2AF9061A4E0F8759B00E5915854F7
:1005B3000860087591F71213948023E5915854103D
:1005C30060087591EF12139A8014E591A2E092F0FE
:1005D300E8A2E082F05007E0C2E0F01214E4906178
:1005E300A3E0F8E5E9585404600E1214BA75E9FB68
:1005F300906193E0A2E640F2EEA2E092AF7F0102A7
:10060300093EC0E074F2120882A2AFE433FED2AF17
:100613009061A5E0F8E5BF585404600675BFFB126E
:1006230014FC80D4C3E498F8E499F9120668802690
:10063300C3E49AFAE49BFBE920E7E9120668E4982D
:10064300F8E499F922C3E498F8E499F9120668E406
:1006530098F8E499F9C3E49AFAE49BFB22EB20E7C8
:10066300CFE920E7E0B90010BB0008E88AF084F87E
:10067300AAF022E4FBC8FA22EB70227B10C833C82D
:10068300C933C9335007C39AC3DBF280069A5001BA
:100693002ADBEAC833F4C8C933F4C9FA2275F0086F
:1006A300E4C833C8C933C933C99AC99B5004C92A9A
:1006B300C93BD5F0ECFBC833F4C8E4C9FA220808F7
:1006C30008EAC0E0EBC0E086F0E7A4FA180986F078
:1006D300E7A42AFA180986F0E7A42AFA180986F08B
:1006E300E7A42AFA1986F0E7A4FBE5F02AFA190829
:1006F30086F0E7A42BFBE5F03AFA190886F0E7A4A5
:100703002BFBE5F03AFA18180986F0E7A4C5F02B9D
:10071300FBE43AFA1908E7C5F0C6A426F6E5F03B70
:10072300FBE43AFA1886F0E7A4F6E5F00826F6E4C7
:100733003B08F6E43A08F6D0E0FBD0E0FA22E4CF37
:10074300C0E0E4CEC0E0E4CDC0E0E4CCC0E075F0AE
:1007530020E626F608E633F608E633F608E633F62F
:10076300181818EC33FCED33FDEE33FEEF33FFC303
:10077300EC9709ED9709EE9709EF97191919400FAF
:10078300FFEC97FC09ED97FD09EE97FE191906D5C5
:10079300F0BFECF709EDF709EEF709EFF7191919AF
:1007A300D0E0FCD0E0FDD0E0FED0E0FF222521C563
:1007B30082C0E0E52234FFC583C0E0E521C3958212
:1007C30024F810AF0885832285822180088583223F
:1007D300858221D2AFCEF0A3E520F0A37808E60806
:1007E300F0A3DEFAEFF0A3E58124FAF8E608F0A31C
:1007F300E608F0A3E608F0A30808E608F0A3E60875
:10080300F0A315811581D0E0FED0E0F815811581A4
:100813001581E8C0E0EEC0E02212083330F0051283
:1008230008788000C6CC18C6CB18C6CA18C6F922E9
:10083300E4C9C608CAC608CBC6D3330308CCC6333B
:1008430092F0C3947F402E94184019C9B90704CA83
:10085300CBCC225025C309CA33CACB33CBCC33CC40
:1008630033D9F422F4600DC9CCC313CB13CBCA1311
:10087300CAD9F6CC22E4FCFBFA2214FCFBFA22C010
:10088300D02521C582C0E0E52234FFC583C0E0E561
:1008930021C3958224F310AF0885832285822180AA
:1008A30008858322858221D2AFC8F0A3E9F0A3EAA9
:1008B300F0A3EBF0A37908E709F0A3D8FAECF0A3CF
:1008C300EDF0A3EEF0A3EFF0A3D0E0F0A3D0E0F0BF
:1008D300A3D0E0F0A3E520F0A3E5F0F0A322E979AB
:1008E3009EC608CAC608CBC608CCC6C37020799674
:1008F300CACBCC7019798ECBCC70137986CC700EA1
:10090300F9802ACA33CACB33CBCC33CC331930E783
:10091300F2CCCBCA3350147004EA30E00DE4CA3A87
:10092300CACB3BCBCC3CCC500209C3E913C6CC1891
:100933002313C6CB18C6CA18C6F92285228385217C
:1009430082E0C0E0A3E0F9A3E0FAA3E0FBA3780808
:10095300E0F608A3DFFAE0FCA3E0FDA3E0FEA3E0DA
:10096300FFA3E0C0E0A3E0C0E0A3E0F5D0A3E0F57F
:1009730020A3E0A3F5F010AF0885832285822180B0
:1009830008858322858221D2AFD082D083D0E0F83C
:10099300D0E03212109AB900030209D5E4900401A1
:1009A30078EC79158002F0A3D8FCD9FA7AEC7B189D
:1009B30090008678F679018015E493A3AD82AE8327
:1009C3008A828B83F0A3AA82AB838D828E83D8E93C
:1009D300D9E775820F7583EE7405120D467582167D
:1009E30075832B7400120D461075F0108E238F241F
:1009F300858228858327852182852283E0CEA3E013
:100A0300CF852882852783EBC9EAC8EDCBECCAC31F
:100A1300E833C8E933C9EA33CAEB33CBC3EA9EF5FB
:100A230026EB9FF525B35004AB25AA26EC33CCED7A
:100A330033CDD5F0DAAE23AF2422C0E074F212082E
:100A430082A2AFE433FED2AFE589A2E450031212CF
:100A5300AAE589A2E150031212AA758900758900DB
:100A6300C2EBEEA2E092AF7F0102093EC0E074F256
:100A7300120882A2AFE433FED2AFE58BA2E05003AB
:100A83001212AA758B00C2E880D8121012601C12D1
:100A9300104E60171210C170071210AF7001D322ED
:100AA300C0D01210AF7006D0D0B322C32233D0D03F
:100AB300501430E0F6C3E7960809E7960809E7966D
:100AC3000809E796B32220E0D5E6970809E69708D8
:100AD30009E6970809E697B322D083D082ECC0E0F9
:100AE300EDC0E0E493A3FCE493A3FDED4C600D1291
:100AF3000BB4EC24FFFCED34FFFD80EFE493A3FC87
:100B0300E493A3FDED4C600D120C51EC24FFFCEDBE
:100B130034FFFD80EFD0E0FDD0E0FCE493A3C0E020
:100B2300E493C0E022D083D082E9C0E0E493A3C37E
:100B330086F0C5F095F0F908E493A386F0C5F09527
:100B4300F0700BE493A3C3994005E9048002A3E486
:100B530075F002A42582F582E5F03583F583D0E0B4
:100B6300F9E493A3C0E0E493C0E0228522838521C6
:100B730082E0A3FEE0A3F5207808E0A3F608DFFAFD
:100B8300E0A3FFE0A3C0E0E0A3C0E0E0A3C0E0E097
:100B9300A3C0E0E0A3C0E010AF08858221858322D3
:100BA3008008858221858322D2AFD083D082020D33
:100BB3004CC0E0C3E49396087401939618400FE485
:100BC3009366700808740193661870007019A3A3E4
:100BD300C3E49396087401939618A3A3400DD0E041
:100BE300D0E0D0E0020B18A3A3A3A3A3A3D0E022D9
:100BF3007404800474028000CCC0E0EDC0E0E52101
:100C0300C39CCCAD2250011D10AF068C218D2280D8
:100C1300068C218D22D2AF120CC8D0E0FDD0E0FCAF
:100C23002274028000CCC0E0EDC0E0E521C39CCC7F
:100C3300AD2250011D10AF068C218D2280068C2120
:100C43008D22D2AF120CA6D0E0FDD0E0FC22C0E092
:100C5300C0F088F0E4936670080874019366187016
:100C630000A8F0A3A3700BD0F0D0E0D0E0D0E00256
:100C73000B18A3A3D0F0D0E022D083D082CCC0E065
:100C8300E493A36006120CE91470FAE493A36006DC
:100C9300120E481470FAD0E0FCE493A3C0E0E4938E
:100CA300C0E022CAC0E0E493A3C582CCC582C58359
:100CB300CDC583F0A3C582CCC582C583CDC583DAF8
:100CC300E5D0E0CA22CAC0E0E0A3C582CCC582C594
:100CD30083CDC583F0A3C582CCC582C583CDC5832F
:100CE300DAE6D0E0CA22C0E0E493A3D39C5010E438
:100CF30093A3C39C400AD0E0D0E0D0E0020C99A3B8
:100D0300A3A3D0E022700908080822601618181857
:100D1300C6C333C608C633C608C633C608C633C6F9
:100D2300D5E0EA22C008C3E096F50808A3E096429E
:100D33000808A3E096420808A3E09645087001D38B
:100D4300D00822C09FF59FE473D09F22D083D08226
:100D5300C09FE493C0E0740193C0E0740293F59FD5
:100D6300227404800A74038006740280027401C032
:100D7300E0F404120D9AD0E012105D2200C0D025D9
:100D83002110AF08F521500C05228008F5215002EF
:100D93000522D2AFD0D0222521F58210AF08F5214C
:100DA300400C15228008F52140021522D2AF85227E
:100DB3008322C0E0C0D0E8C0E0A8A8D2AFC2C7E891
:100DC300A2E792AFD0E0F8D0D0D0E032BB0102E787
:100DD30022C082C08389828A83BB0003E08002E44D
:100DE30093D083D082226016080808C6C313C6189E
:100DF300C613C618C613C618C613C6D5E0EA2225FD
:100E030021F8E43522F9222521FAE43522FB2225B3
:100E130021FCE43522FD22C3E0C696F608A3E0C612
:100E230096F608A3E0C696F608A3E0C696F6222532
:100E33002110AF08F521400C15228008F52140024E
:100E43001522D2AF22C0E0E493A36C7009D0E0D0A6
:100E5300E0D0E0020C99A3A3D0E022C3E09608A35C
:100E6300E09608A3E09608A3E096A2D265D03322C9
:100E7300E76670100809E766700A0809E7667004F8
:100E83000809E76622C3E7960809E7960809E79683
:100E93000809E796A2D265D03322E066701008A352
:100EA300E066700A08A3E066700408A3E0662219EE
:100EB3001919E70947097009E727097005E733F4AA
:100EC300220922C3E096F008A3E096F008A3E09677
:100ED300F008A3E096F022C3E697F60809E697F632
:100EE3000809E697F60809E697F622181818E6089F
:100EF30046087009E626087005E633F4220822C383
:100F0300E493960874019396087402939608740305
:100F1300939622E026F608A3E036F608A3E036F619
:100F230008A3E036F622E627F60809E637F60809AD
:100F3300E637F60809E637F622700422600D18C674
:100F4300C333C608C633C6D5E0F41822E056F0080A
:100F5300A3E056F008A3E056F008A3E056F022E61B
:100F630057F60809E657F60809E657F60809E6575B
:100F7300F622E026F008A3E036F008A3E036F008F6
:100F8300A3E036F022E056F608A3E056F608A3E005
:100F930056F608A3E056F622E493F608740193F696
:100FA30008740293F608740393F622E647F60809D9
:100FB300E647F60809E647F60809E647F622E4C3DA
:100FC30096F608E496F608E496F608E496F622C642
:100FD300F4C608C6F4C608C6F4C608C6F4C622C3D7
:100FE300E09608A3E09608A3E09608A3E09622C340
:100FF300E7960809E7960809E7960809E796227530
:10100300D00075813F75210175220400020996E61F
:10101300084608C3134608336002E633F422600C23
:1010230008C6C313C618C613C6D5E0F422E0F608F3
:10103300A3E0F608A3E0F608A3E0F622E6F008A38F
:10104300E6F008A3E6F008A3E6F022E7094709C3A0
:10105300134709336002E733F422CAC0E0E6F0A382
:1010630008DAFAD0E0FA22E8F0A3E9F0A3EAF0A361
:10107300EBF022E0FAA3E0FBA3E0FCA3E0FD22EA0D
:10108300F0A3EBF0A3ECF0A3EDF022E0F8A3E0F97A
:10109300A3E0FAA3E0FB22E5C754F84401F5C779BE
:1010A30001222521F582E43522F58322E72719471A
:1010B3001947194722C2AF75D69F02000022E626C0
:1010C30018461846184622120D4FDBDA03120D4F4D
:1010D3003ADD03120D4FD1DD03120D4FFEDD031276
:1010E3000D4F4BDE03120D4FD3DE03120D4F8EDF78
:1010F30003120D4FF1DF03120D4F35E003120D4FB5
:10110300CFE003120D4F4DE103120D4F80E10312A7
:101113000D4F8EE203120D4FAEE203120D4F02E3A9
:1011230003120D4FEAE303120D4FECE503120D4FCB
:101133008EE603120D4FDEE803120D4F62E9031230
:101143000D4F67EC03120D4F9BEE03120D4FD3EEC1
:1011530003120D4F32F003120D4F3CF003120D4FEB
:101163008BF003120D4F5DF203120D4F9393051293
:101173000D4F0F9405120D4F429405120D4F7094AD
:1011830005120D4FAE9405120D4FE99605120D4F42
:10119300089705120D4F4D9705120D4FE397051252
:1011A3000D4F2F9805120D4FC39805120D4F9B99A4
:1011B30005120D4FF79905120D4F559A05120D4F54
:1011C300D29A05120D4F089B05120D4F539B051222
:1011D3000D4F799B05120D4F099C05120D4FA09CD5
:1011E30005120D4FEC9C05120D4F1D9D05120D4F61
:1011F300549D05120D4FDA9E05120D4FA49F051243
:101203000D4F74A005120D4FBBDE05120D4FE7DE27
:1012130005120D4F07DF05120D4F2EDF05120D4F7F
:1012230075E005120D4F96E005120D4F51E10512C1
:101233000D4F5BF805120D4F60F805120D4F93F833
:1012430005120D4F13EC05120D4FDAEC05120D4F7D
:10125300ECEC05120D4F09FA05120D4F21FA051298
:101263000D4FF2FF02120D4FE8FF01120D4FC6F7AB
:1012730005120D4FD6F705120D4FE8F705120D4F66
:1012830050F805120D4F24F505120D4FA7F5051261
:101293000D4F0DF605120D4FC0F205120D4FF3F26F
:1012A30005120D4F66F305120D4FB9F305120D4FDD
:1012B3005AD405120D4F68D405120D4FE1D405120F
:1012C3000D4FB9D505120D4F7CD705120D4F72F98D
:1012D30005120D4FC3FA02120D4FEFFA02120D4F12
:1012E30033FD02120D4F73FD02120D4FB3FD0212B7
:1012F3000D4FC7FD02120D4FE0FD02120D4FD2FE3E
:1013030002120D4F77FF02120D4F8BFF02120D4F8A
:1013130062F105120D4F86F105120D4F9FF1051273
:101323000D4FD1F105120D4F01F205120D4F2EF2A3
:1013330005120D4F90F205120D4F9FF205120D4F3E
:10134300A9F205120D4FB6F205120D4FF2E1051287
:101353000D4F12E205120D4F51E205120D4F6CE2D3
:1013630005120D4F8BE205120D4FF1E205120D4FE1
:10137300FAE205120D4F57E305120D4F83E30512F1
:101383000D4F92E305120D4FB6E305120D4F77E4AF
:1013930005120D4F84E405120D4F95E405120D4F10
:1013A300A1F805120D4FB9F805120D4FE5F8051216
:1013B3000D4F3EC005120D4F98C105120D4FA6C12A
:1013C30005120D4FB9C105120D4FCEC105120D4FB8
:1013D300E3C105120D4FF6C105120D4F6AC2051286
:1013E3000D4FCFC205120D4F71C305120D4F35C4FA
:1013F30005120D4F45C405120D4F54C405120D4F70
:101403002DF705120D4F51F705120D4F79F7051200
:101413000D4FA1F705120D4F8CE705120D4FB3E7E2
:1014230005120D4FD1E705120D4F44E805120D4F7C
:10143300C3E405120D4FDCE405120D4FE8E4051279
:101443000D4FFCE405120D4F1AE505120D4F24E56F
:1014530005120D4F2EE505120D4F41E505120D4FF7
:10146300C7E505120D4F3CE605120D4F6BE605125D
:101473000D4FB9E605120D4F08E705120D4F23E78F
:1014830005120D4F2DE705120D4F3EE705120D4FC7
:1014930081E705120D4FA7FF02120D4F0AAC05128B
:1014A3000D4F34AC05120D4F51AC05120D4F64AC0A
:1014B30005120D4F7AAC05120D4FD8AC05120D4F26
:1014C30010AD05120D4F04B105120D4F49B20512AF
:1014D3000D4F7CB205120D4FDFB205120D4F3FB415
:1014E30005120D4F67B405120D4F7CB405120D4F55
:1014F3008CB405120D4FD0B405120D4F2BB5051248
:101503000D4F3BB505120D4FF4F305120D4F0EF4BD
:1015130005120D4F36F405120D4F4FF405120D4F02
:1015230073F405120D4F91F405120D4FA8F4051233
:101533000D4FD6F405120D4FF1F405120D4F2EF990
:1015430005120D4FABD005120D4FBBD005120D4F39
:10155300EAD105120D4F1CD205120D4F4CD20512C4
:101563000D4F6FD205120D4F86D205120D4FC0D20B
:1015730005120D4F25D305120D4F67D305120D4FDD
:10158300A6D305120D4FD7D305120D4F02D4051262
:101593000D4FFEEF05120D4F1EF005120D4F32F1E8
:1015A30005120D4F35F105120D4F07FF03120D4FB5
:1015B3003DFF03120D4F53FF03120D4F95FF03120F
:1015C3000D4FA5FF03120D4FE9FF03120D4FD0F787
:1015D30004120D4F13F804120D4F78F804120D4F37
:1015E30095F804120D4F37F904120D4F40F9041208
:1015F3000D4F85F904120D4FAEF904120D4FBBF9CF
:1016030004120D4F36FA04120D4FC1FA04120D4F96
:1016130006FB04120D4F51FB04120D4FB6FB0412CF
:101623000D4FD9FB04120D4F4AFC04120D4F9FFCC2
:1016330004120D4FDAFC04120D4F0FFD04120D4F6F
:1016430021FD04120D4F33FD04120D4F52FD041200
:101653000D4F5BFD04120D4F09FE04120D4F4CFE9E
:1016630004120D4F8AFE04120D4FA67F00120D4F78
:10167300B6FE04120D4FDDE905120D4F13EA0512F4
:101683000D4F5BEA05120D4FB4EB05120D4F0080B1
:1016930005120D4F198105120D4F538105120D4F80
:1016A300018305120D4F2F8305120D4F95850512EA
:1016B3000D4FD58505120D4F798705120D4F0988FA
:1016C30005120D4F5D8805120D4FFF8805120D4F52
:1016D300418905120D4F838905120D4FE08A0512CA
:1016E3000D4F2E8C05120D4F658E05120D4F938EE7
:1016F30005120D4FBA8E05120D4FC38E05120D4FF5
:101703001A8F05120D4FB58F05120D4FBD9205129D
:101713000D4F449305120D4F30FA05120D4F46FA43
:1017230005120D4FC1C805120D4FD7C805120D4F35
:101733007BC905120D4FBAC905120D4FD7C9051242
:101743000D4F08CA05120D4F55CA05120D4F88CA11
:1017530005120D4FC3CA05120D4FB8CC05120D4F1C
:1017630026F605120D4F85F605120D4FC3F6051229
:101773000D4F04F705120D4F008004120D4F0C801E
:1017830004120D4F6E8004120D4F788004120D4F1A
:10179300098104120D4F458104120D4F2E8204124C
:1017A3000D4F418204120D4F8E8204120D4F1D8383
:1017B30004120D4F538304120D4FCE8304120D4FA9
:1017C3009D8504120D4F978704120D4F75880412DF
:1017D3000D4F938904120D4FD98B04120D4F1C8D9D
:1017E30004120D4FCB8D04120D4F6B9204120D4F4B
:1017F3005F9304120D4F039404120D4F28940412A7
:101803000D4FC49404120D4FD99404120D4FFD943F
:1018130004120D4F6B9504120D4F889504120D4F52
:10182300B29504120D4F489704120D4F6997041295
:101833000D4F0F9804120D4F579804120D4FAC988B
:1018430004120D4F4C9904120D4FB09904120D4F11
:101853000E9A04120D4FB79A04120D4F259B0412D2
:101863000D4F589B04120D4FC69B04120D4F019D43
:1018730004120D4F779E04120D4F149F04120D4F47
:1018830052A104120D4FBBA104120D4FE5A1041286
:101893000D4F01A404120D4FA8A604120D4FD1A79A
:1018A30004120D4F6BB505120D4F2AB705120D4FDC
:1018B30011B905120D4F37B905120D4F4AB905126B
:1018C3000D4F70B905120D4FEDB905120D4F8DBABD
:1018D30005120D4F1BBB05120D4FAAF905120D4F33
:1018E300F1D705120D4FABD805120D4F11D90512C3
:1018F3000D4F32D905120D4F03DA05120D4FB8C73C
:1019030004120D4FE7C704120D4F63C804120D4FA5
:10191300B1C904120D4F93CA04120D4F49CC0412DE
:101923000D4F6ECC04120D4FC0CC04120D4F42CD9F
:1019330004120D4F89CD04120D4F9CCD04120D4F8F
:10194300F3CD04120D4FB9CE04120D4F29CF04125B
:101953000D4F53CF04120D4F9CCF04120D4F21D1C5
:1019630004120D4FFAD104120D4F43D304120D4F3D
:1019730024D404120D4FACD404120D4FEFD404122F
:101983000D4F09D504120D4F50D504120D4F70D5CC
:1019930004120D4F2BD604120D4F4ED704120D4FC8
:1019A300A8D704120D4FF2D704120D4FEED804122C
:1019B3000D4F83DB04120D4FA2DB04120D4F17DC16
:1019C30004120D4F3CDC04120D4FA6DC04120D4F24
:1019D3006EDD04120D4FABDD04120D4F25DE041234
:1019E3000D4F21DF04120D4F24DF04120D4F2EDFA4
:1019F30004120D4F38DF04120D4F4BDF04120D4F4D
:101A0300BDDF04120D4FF3DF04120D4F1FE004126C
:101A13000D4F46E004120D4F6AE004120D4FA5E08E
:101A230004120D4F17E104120D4F3FE104120D4F45
:101A330049E104120D4F85E104120D4FBAE104127E
:101A43000D4FD0E104120D4FE8F805120D4F00F9C8
:101A530005120D4FFBFF01120D4FFEAB04120D4F8C
:101A630021AC04120D4F80AD04120D4FC9AD041209
:101A73000D4F30AE04120D4F8EAE04120D4F91AECA
:101A830004120D4FDDAE04120D4F4EAF04120D4F75
:101A9300E1AF04120D4FE4AF04120D4F6EB0041208
:101AA3000D4FAFB004120D4FD4B404120D4F6DB6E9
:101AB30004120D4FE7B604120D4F56BA04120D4F20
:101AC3009FBB04120D4F71BC04120D4FD6BC041200
:101AD3000D4FF8BC04120D4FBBBE04120D4F91C045
:101AE30004120D4F3BC104120D4FE8C104120D4FF8
:101AF300EAC204120D4F52C504120D4FB7C60412A9
:101B03000D4FFDC604120D4FAE6C00120D4F586DF4
:101B130000120D4FBE6D00120D4FD76D00120D4F09
:101B23004F6E00120D4FA56E00120D4FE96E00129D
:101B33000D4F486F00120D4F587000120D4F7F73F9
:101B430000120D4FAD7400120D4F2E7500120D4F84
:101B5300347700120D4FE27700120D4F7E7800129A
:101B63000D4F407900120D4FEF7A00120D4F977C05
:101B730000120D4F427D00120D4F677E00120D4F74
:101B830004D902120D4F78D902120D4FC0D9021297
:101B93000D4F04DA02120D4F53DA02120D4F9DDA84
:101BA30002120D4FD5DA02120D4F53DB02120D4F05
:101BB300ADDB02120D4F01DD02120D4F90DD02125B
:101BC3000D4FB0DE02120D4FD8DE02120D4F18E09A
:101BD30002120D4F29E002120D4F41E002120D4F88
:101BE30048E102120D4F10E202120D4F1DE30212E3
:101BF3000D4F41E302120D4F58E302120D4F79E3EB
:101C030002120D4F9BE302120D4FB8E302120D4F68
:101C130096E402120D4FEEE402120D4F7EE702121C
:101C23000D4FCDE702120D4FECE702120D4FD0E836
:101C330002120D4F06E902120D4F36EA02120D4F42
:101C4300B3EA02120D4F02EB02120D4F3AEB0212EE
:101C53000D4F9BEB02120D4F41EC02120D4F0FEE95
:101C630002120D4F0FEF02120D4F8DF002120D4FA6
:101C73006EF202120D4FD4F402120D4F84F60212CB
:101C83000D4F54F702120D4FC2F702120D4FD9F741
:101C930002120D4FD1F802120D4FC1F902120D4F6E
:101CA3002CFA02120D4F81DB05120D4F26DD0512B2
:101CB3000D4FE3DD05120D4F47DE05120D4FC5CC69
:101CC30005120D4FE3CC05120D4F27CD05120D4F15
:101CD3004DCD05120D4F73CD05120D4F8BCD051252
:101CE3000D4FA3CD05120D4F06CE05120D4F48CE55
:101CF30005120D4F6BCF05120D4F74CF05120D4F0B
:101D03007DCF05120D4F86CF05120D4F90CF0512D3
:101D13000D4F85FB01120D4F56BB05120D4F82BFB0
:101D230005120D4F90BF05120D4F95BF05120D4FB4
:101D33008BEE05120D4F94D703120D4F91FF011235
:101D43000D4FA1FF01120D4F8DC405120D4F0080E1
:101D530002120D4F328002120D4F9E8002120D4F60
:101D6300398102120D4FD88102120D4F1D820212CA
:101D73000D4F3F8202120D4F588202120D4F7E8289
:101D830002120D4FA08202120D4FF1D503120D4F17
:101D9300228302120D4F448302120D4FA6830212B7
:101DA3000D4F6D8402120D4F248502120D4F96853F
:101DB30002120D4F688602120D4FB28602120D4FAA
:101DC300058702120D4F6B8702120D4FA587021272
:101DD3000D4FF78702120D4F138802120D4F3E88E5
:101DE30002120D4F458A02120D4F998B02120D4FAD
:101DF300BB8B02120D4FEF8B02120D4F108C021290
:101E03000D4F1F8C02120D4F2A8C02120D4FDA8CCC
:101E130002120D4F438D02120D4FF08D02120D4F22
:101E2300288E02120D4FEE8E02120D4FFB8F0212FF
:101E33000D4F459002120D4FD49002120D4F389161
:101E430002120D4F739102120D4FDF9302120D4FC9
:101E5300339502120D4F6C9802120D4F39990212ED
:101E63000D4FC79902120D4FF09902120D4F629A4E
:101E730002120D4FF69A02120D4F549B02120D4F90
:101E8300469C02120D4F689C02120D4FC49D021214
:101E93000D4FDD9D02120D4FF09D02120D4F5F9EFF
:101EA30002120D4F6B9F02120D4F789F02120D4FBE
:101EB300819F02120D4F59A102120D4F7FA20212F0
:101EC3000D4F8FA202120D4F91A302120D4F08A4C2
:101ED30002120D4F37A402120D4F4CA502120D4FE3
:101EE30018A702120D4FF0AA02120D4FFAAA0212FE
:101EF3000D4F0EAB02120D4F18AB02120D4F22AB5A
:101F030002120D4F2CAB02120D4F45AB02120D4FB7
:101F13004FAB02120D4FC3AB02120D4FCEAB0212E9
:101F23000D4FF3AB02120D4FFEAB02120D4F4CAC33
:101F330002120D4F56AC02120D4F61AC02120D4F3F
:101F430085AC02120D4FA9AC02120D4F05AD021262
:101F53000D4F4BAD02120D4F68AD02120D4FE5ADA3
:101F630002120D4F1CAE02120D4F5BAE02120D4F4B
:101F7300A8AE02120D4F2AAF02120D4FC3AF0212C9
:101F83000D4F93B102120D4FF1B102120D4F0DB36C
:101F930002120D4F33B302120D4F72B402120D4FE2
:101FA30098B702120D4FD9B902120D4FB5BB0212E9
:101FB3000D4F4BBC02120D4F72BE02120D4F1EBFCE
:101FC30002120D4F53BF02120D4FB8BF02120D4F35
:101FD300C2BF02120D4FECC102120D4F13C3021206
:101FE3000D4F53C302120D4FF9C302120D4F8AC591
:101FF30002120D4F13C702120D4F33C702120D4FBA
:102003008CC702120D4F8EC802120D4FD8C8021290
:102013000D4F28C902120D4F12CA02120D4F87CA63
:1020230002120D4FA1CB02120D4F1CCC02120D4F09
:1020330021CD02120D4FCCCF02120D4FEBCF021266
:102043000D4F4CD102120D4F0ED302120D4F62D31E
:1020530002120D4F1AD402120D4FC9D402120D4FA2
:102063001FD502120D4FD5D502120D4F6AD602129B
:102073000D4FD6D602120D4F10D702120D4F41D776
:1020830002120D4F9DD802120D4F008003120D4F07
:10209300328003120D4F698003120D4F52820312D7
:1020A3000D4F358303120D4F8D8303120D4FC884DB
:1020B30003120D4F148503120D4F3C8803120D4F6D
:1020C3009E8B03120D4FEB8C03120D4F818D031268
:1020D3000D4F8D8D03120D4FBF8D03120D4F418F89
:1020E30003120D4FDC9003120D4F849103120D4F19
:1020F300C79103120D4F2D9203120D4F4A920312F3
:102103000D4F7A9203120D4FAF9203120D4F7F932F
:1021130003120D4F289403120D4FAC9603120D4F6B
:10212300CC9703120D4FB59803120D4F3799031235
:102133000D4F569D03120D4F939D03120D4FEB9DB3
:1021430003120D4F1E9E03120D4F9F9E03120D4F40
:10215300EC9E03120D4F779F03120D4FC99F03127D
:102163000D4FA0A003120D4F59A103120D4FF4A15F
:1021730003120D4F0DA503120D4F2DA603120D4F84
:10218300DAA903120D4FF8AA03120D4FFBAA03128B
:102193000D4F2AAB03120D4F30AD03120D4F09AE95
:1021A30003120D4F3EAE03120D4F46AF03120D4FF8
:1021B300FCAF03120D4F9DB103120D4FC2B10312B9
:1021C3000D4F01B203120D4F73B203120D4F57B3EC
:1021D30003120D4F24B403120D4F5AB603120D4FC1
:1021E300CBB603120D4F0BB703120D4F6CB703128F
:1021F3000D4F2FBB03120D4F1EBC03120D4F05BD18
:1022030003120D4F7DBD03120D4F3FBE03120D4F41
:102213003DC003120D4F55C003120D4F69C0031289
:102223000D4FA1C003120D4FCFC003120D4F56C265
:1022330003120D4F61C303120D4FB3C303120D4FAE
:1022430014C403120D4FC6C403120D4FEDC4031281
:102253000D4FD1C503120D4F82C603120D4F71C826
:1022630003120D4FA6C803120D4F0EC903120D4FD3
:102273003DCA03120D4FEFCA03120D4F20CB0312B9
:102283000D4F38CB03120D4FC7CB03120D4F7BCE2F
:1022930003120D4F53D003120D4F6FD003120D4F86
:1022A3008BD003120D4F59D103120D4F3DD503129D
:1022B3000D4F838601120D4FBB8601120D4F998B73
:1022C30001120D4FDF8B01120D4F2C8D01120D4F9B
:1022D300978D01120D4F208F01120D4F3092011275
:1022E3000D4F4B9301120D4F5D9D01120D4FF09D4C
:1022F30001120D4F42A101120D4F3EA201120D4FCB
:1023030099A201120D4FE3A301120D4FD1A40112A3
:102313000D4F6DA701120D4FE1A801120D4F64A9D6
:1023230001120D4F67A901120D4FDCA901120D4FC8
:10233300E6A901120D4FF3A901120D4F1EAA0112B6
:102343000D4FCEAA01120D4FC7AB01120D4F72AC48
:1023530001120D4F90AC01120D4FA9AC01120D4F9C
:10236300D2AC01120D4FF4AC01120D4F49AF011263
:102373000D4F0EB001120D4F53B001120D4FD2B0DD
:1023830001120D4F7EB101120D4FB0B101120D4F6D
:1023930004B201120D4F3FB201120D4F86B201126A
:1023A3000D4FD6B201120D4FDBB201120D4F2FB3F9
:1023B30001120D4F5BB301120D4F44B401120D4FC7
:1023C30095B401120D4FF5B401120D4F4FB5011223
:1023D3000D4FEAB501120D4F29B901120D4F3BBA4A
:1023E30001120D4FB5BB01120D4FC5BE01120D4FAA
:1023F30063BF01120D4F59C201120D4F18C30112D1
:102403000D4F5CC301120D4F07C501120D4F1BC5C4
:1024130001120D4F25C501120D4F2FC501120D4F8E
:102423003BC501120D4F60C501120D4F39C7011293
:102433000D4F8EC701120D4F98C701120D4FA2C742
:1024430001120D4F17C801120D4F66C801120D4F2F
:1024530077C901120D4FC4C901120D4FD1CA011220
:102463000D4F15CB01120D4FBBCB01120D4FAECC4F
:1024730001120D4F74CD01120D4F97CE01120D4F66
:10248300B5CF01120D4F9DD001120D4FB5D00112E2
:102493000D4F0CD101120D4F16D101120D4F21D149
:1024A30001120D4F3FD101120D4F87D101120D4F74
:1024B300E9D101120D4F10D201120D4F22D2011298
:1024C3000D4FBDD201120D4FF2D201120D4FD9D3D0
:1024D30001120D4F1ED401120D4F04D501120D4FE1
:1024E3002BD501120D4FAED501120D4F1FD6011280
:1024F3000D4FA8D701120D4FD4D801120D4F97D904
:1025030001120D4F5FDA01120D4FE9DA01120D4F7F
:1025130011DC01120D4FB3DC01120D4F2EDD011240
:102523000D4FEADD01120D4F34DE01120D4F8EDE29
:1025330001120D4F66DF01120D4F89DF01120D4F9E
:102543003CE001120D4F5EE001120D4FC7E0011296
:102553000D4FDDE201120D4FD5E301120D4F99E44A
:1025630001120D4FCBE601120D4F15E701120D4F6E
:1025730065E701120D4FC9E701120D4F2BE8011258
:102583000D4F59E801120D4F7DE801120D4FB2E8CE
:1025930001120D4FE3E801120D4F16E901120D4F21
:1025A30066E901120D4FB9E901120D4FDEEA01127E
:1025B3000D4F7EEC01120D4FD9EC01120D4F02EDC0
:1025C30001120D4F8FED01120D4FFDED01120D4F55
:1025D3000BEE01120D4F2FEE01120D4F84EE01127F
:1025E3000D4F9FEE01120D4F51EF01120D4F89EF69
:1025F30001120D4FCCEF01120D4F2FF001120D4FB1
:1026030031F201120D4F5BF201120D4F52F3011221
:102613000D4F5CF401120D4F0CF501120D4FF2F347
:1026230003120D4F2AF403120D4F4BF403120D4FF7
:102633008DF403120D4FEFF403120D4FF9F403124F
:102643000D4F09F503120D4F44F503120D4F24F9F5
:1026530003120D4F11FB03120D4FF7FC03120D4F25
:102663008EFD03120D4F30FE03120D4F9F320012E9
:102673000D4F4A3300120D4FF83300120D4FFE3445
:1026830000120D4F1E3500120D4F473600120D4F2D
:10269300023800120D4F753800120D4F1939001210
:1026A3000D4F253A00120D4F903A00120D4FCC3AC0
:1026B30000120D4F0F3B00120D4F4A3B00120D4FFE
:1026C3008C3B00120D4F213C00120D4F9D3C00121C
:1026D3000D4F673D00120D4F443E00120D4FDC3E7F
:1026E30000120D4FF63E00120D4F263F00120D4F04
:1026F300573F00120D4F1D4000120D4F2D40001289
:102703000D4F7C4000120D4F894000120D4F924037
:1027130000120D4F104100120D4F6C4100120D4F6E
:10272300B74100120D4FD24100120D4FFD4100126F
:102733000D4F1A4200120D4F264200120D4FBD439A
:1027430000120D4FD64300120D4F5B4400120D4F84
:102753006E4400120D4F8D4400120D4F314500128F
:102763000D4FB24600120D4F654800120D4FFB4846
:1027730000120D4FFE4800120D4F6E4900120D4F0F
:102783008C4900120D4F234A00120D4F6B4A001261
:102793000D4F6E4A00120D4F344B00120D4FA14BDB
:1027A30000120D4FC74B00120D4F524C00120D4F2C
:1027B300704C00120D4FB64C00120D4F6A4D0012B3
:1027C3000D4FB44D00120D4FE34D00120D4F404E0F
:1027D30000120D4F754E00120D4FA14E00120D4FFA
:1027E300AF4E00120D4FFC4E00120D4F6C4F0012F6
:1027F3000D4FB54F00120D4F015000120D4F2D50CC
:1028030000120D4F385000120D4F565000120D4F4D
:10281300415100120D4F4B5100120D4F86510012C2
:102823000D4F965100120D4FEA5100120D4FFE51FC
:1028330000120D4F2D5300120D4F425300120D4F36
:10284300D05300120D4F155400120D4FA154001216
:102853000D4FAC5400120D4FEE5500120D4F09569B
:1028630000120D4F555600120D4FC45600120D4F56
:10287300FD5600120D4F175700120D4F77570012D8
:102883000D4F165800120D4F615800120D4F315B5A
:1028930000120D4FE35B00120D4F505C00120D4F01
:1028A300905E00120D4FA85E00120D4FAB5E00123A
:1028B3000D4FB75E00120D4FCB5E00120D4FD35E6E
:1028C30000120D4F065F00120D4F096000120D4FED
:1028D300966000120D4F066100120D4F88610012C1
:1028E3000D4F496200120D4F686200120D4F0963CC
:1028F30000120D4F666300120D4F696300120D4FF6
:10290300DD6300120D4F2C6500120D4F326600126D
:102913000D4FBD6600120D4FD86700120D4FA06812
:1029230000120D4FD16800120D4FF46800120D4FC5
:10293300FD6800120D4F2C6900120D4FBC69001287
:102943000D4F726A00120D4FE76A00120D4F8E6B26
:1029530000120D4F036C00120D4F3A6C00120D4F15
:10296300786C00120D4FD5D603120D4F6AFB01127E
:102973000D4FC9FA01120D4FCDF901120D4FFCF89D
:1029830001120D4F05F701120D4F58F601120D4FAD
:10299300EAF501120D4FA0F704120D4F96F704123A
:1029A3000D4F2BF704120D4F7FF504120D4FDDF978
:1029B30005120D4F32D603120D4F3DF504120D4F84
:1029C30065F404120D4FD2D503120D4F9FD5031298
:1029D3000D4F4FF404120D4F10F404120D4F6BF30F
:1029E30004120D4F56F004120D4F29EE04120D4F31
:1029F300F9ED04120D4F9DED04120D4F37ED041246
:102A03000D4FF6EC04120D4F28EC04120D4FC3EBDF
:102A130004120D4F67EB04120D4F0AEB04120D4F16
:102A2300A8E904120D4F45E904120D4F8FE8041273
:102A33000D4F8AE804120D4F73E804120D4F3EE860
:102A430004120D4F8AD503120D4F61E504120D4F89
:102A53005FD503120D4F4BFF01120D4F13FF0112F0
:102A63000D4FBCFE01120D4F40FD01120D4F82FCB4
:102A730001120D4F5EE504120D4F1CE504120D4FBC
:102A830009E504120D4FE5FB01120D4FFEE404129C
:102A93000D4FDAE404120D4FF4E204120D4F73E20A
:102AA30004120D4FDE8202120D4F2FE204120D4F5E
:102AB300DBFB01120D4F03E204120D4FACAB051209
:102AC3000D4F6EAB05120D4F41AB05120D4F0DAB04
:102AD30005120D4FACAA05120D4F94AA05120D4F06
:102AE30070AA05120D4F39A705120D4F05A5051242
:102AF3000D4FECA205120D4F7BA205120D4F2AA21A
:102B030005120D4FE4A105120D4F4DA105120D4FF6
:102B1300B1CF0500000080FB000022E4738F0001A9
:102B230000BE1987000100BC193500040082192575
:102B33000002008619260002008819270002008A75
:102B43001928000100941929000100951984000433
:102B530000801686000100FA182A00010096192B3E
:102B630000010097192C0001009C192D0008008E0C
:102B7300162E0001009D192F0001009E193000013F
:102B8300009F1931000100A019320001009616338D
:102B9300000100971634000100A1193600010098C6
:102BA3001638000100A219390001009B19830002A5
:102BB30000BA1963000100A31664000100981965A7
:102BC30000010099196D000100A416710008008628
:102BD3001666000100B91943000100AA1944000256
:102BE30000AB1945000100AD1946000200AE1947BC
:102BF3000008009B1648000100B0194B000100B10A
:102C03001904000100BD19A1000100C11937000119
:102C130000C01988000100BF193C00010099163D4E
:102C2300000100A31949000200B21967000100A5C1
:102C3300164D000200B4194E000100B6194F0002F0
:102C430000B7193E000100A91951000100A519524E
:102C5300000100A61953000100A819540001009AAD
:102C630016000000000000000136360101000102D9
:102C7300010001030100010401060605020000072B
:102C83000100340801000F090401010D0100FF0ECA
:102C930008000017020000190100FF1A0100011BC0
:102CA3000100FE1C0100081D0200001F010001209D
:102CB300010001210200002301000F24020000266D
:102CC30001000127010008280200FF2A0100072B49
:102CD3000102402C0100002D0100012E0100012FF3
:102CE3000100FF30010B1D310800003A0100083BD1
:102CF30001000F3C0100013D0100FF3E04000042C2
:102D0300040000460400004A0400004E0400005280
:102D1300040000560400005A0400000000000020D4
:102D2300017D860000010020018286000002002050
:102D3300017F860000030020017E8600000400421C
:102D430001B485000005004201148500000600421D
:102D530001F3840000070030018186000000404237
:102D630001F3840000FDFF21017B860300000021A5
:102D73002367150600000010276315060003F021E2
:102D83002328190103710301030103010301030153
:102D930003220302030103100300030003000300E3
:102DA300030003000300034203000324030603009C
:102DB300030003040312032503230325032303044E
:102DC300030403000300030003440300030003237D
:102DD300030003650321003503810300030503009A
:102DE30003000300030003250323030300710030E2
:102DF30001600011007000310220035004800010B4
:102E0300006100000014006300730072006200435D
:102E13000000001300060000000000040012000080
:102E23000000000000000004000400370037003CED
:102E330002440000000000000000006500000035AF
:102E430000810000000500000083000000030471FE
:102E53000402046004110470040204020401040265
:102E63000410046104000414046304730472046210
:102E730004430400041304060400040004040412BD
:102E8300040004000400040004510464000004006E
:102E93000400044404000400040004000465040066
:102EA300043504810464000504000483040004035E
:102EB3000271023001600211027002010202020279
:102EC300028002100261023A00410063027302723F
:102ED30002620243020002130238000002000204ED
:102EE300021202000200020002000204020402377E
:102EF3000037003C02440200023900000200026570
:102F030002000235028102000205028202830200EE
:102F130002010171010101010111010101310101ED
:102F23000101018001100161013B00140063017381
:102F3300017201620143010001130106013D0135E4
:102F43000004011201000100010001000104010459
:102F530001330133013C0144013201360000010019
:102F63000165010001350081010001050182018332
:102F730001000136000100060000000F0000000000
:102F830000000000000000000003FFFF0000040336
:102F9300FFFF0000FFFF0FF4010005C4040320003E
:102FA3000100000B000000000000000003010F00FF
:102FB300000000000000000000000000000000000E
:102FC30000000000000000000000000000000000FE
:102FD3000062188C18681896176E1892186E189E4F
:102FE30018741896176E1892187A1896170000001E
:102FF3000080189617000000000000000086189655
:1030030017000000000000000000000000000000A6
:1030130000000000000000000000000000000000AD
:10302300000000000000000000000000001300D2B8
:103033001A1F00D81A1F80DE1A0000381B0100383F
:103043001B02007E1A0280781A0300841A04008A85
:103053001A0480901A0500961A0600A21A3100B4C9
:103063001A3300BA1A3400C01A3600C61AFFFF001A
:10307300000A000000020000000400000008000035
:10308300001000000020000000400000008000004D
:10309300000001000000020000000400000008001E
:1030A3000000100000002000000040000001EE229C
:1030B300061E230818230B3C23103C2002F4220590
:1030C3000C2307FA220CD6220DE22264321EFF00E3
:1030D3000007ECFDFDFDECDCDCCCBCACAC9C9C8CBB
:1030E3007C7C6C6C5C5C5C4C4C3C3C2C2C1C1C0356
:1030F300EAF5E5D5D5C5B5A5959585857575656558
:10310300555545453535252515150500160F000080
:103113000B150B020002220F3300000E0FD0D1D289
:10312300D3D4D5D6D7D8D9DADBDCDDDEDF06000091
:103133000010276615060003F021232E1906000050
:103143000010276515060003F021232C1906000043
:103153000010276415060003F021232A195A696712
:10316300426565416C6C69616E63653039000000CE
:103173000000000000000000000000000000034DFC
:103183004C4651181A250502303017181921301BE7
:103193001D1F30003C40423A3F3F392F47300C0E51
:1031A300020B040B0A0708000F30301618192023EE
:1031B3001A1C1E30000119161816161823030002D4
:1031C300040201010101090206000000102769152C
:1031D300E803000000BE040A0100030000007F00B2
:1031E3000000E803120000090803030D0A020C069D
:1031F300100204010800050C281E1EFF0209033CEF
:103203000C0508150209E4F0A3F0A3F0A32212327F
:1032130009F0229017EC1248151226D822123224F4
:1032230022E0F508E4F509F50AF50B22E824FBF59D
:1032330082E934FFF58322E82411F582E439F5832A
:10324300E022F58312324B22E0F508A3E0F50922D0
:103253001229547404120D7F7F08020B6E7401F05F
:1032630090052AE0640F227409120D7F7F04020B7C
:103273006EEA2413FAE43FFB122882E9227905124D
:10328300288E740622A3A3E024F5C39413221229E3
:103293006090054A1267D37A147B0022C082C083F0
:1032A3009017CB74CCF0A37426F0A374DEF0A37450
:1032B30026F09017CF74B4F0A37426F0A374AEF085
:1032C300A37426F0A374EAF0A37426F0A374F0F0B9
:1032D300A37426F0A374E4F0A37426F0A3749CF003
:1032E300A37426F09017DB74C0F0A37426F0A374C4
:1032F300C6F0A37426F0A374BAF0A37426F0A374E3
:10330300F6F0A37426F09017EC1251E460099017BD
:10331300EC1248111216889017E9124B2B740812FD
:103323005E80A3F0901895F09017EEF07C0BFDF9FA
:103333007AEF7B171215DA7C0B7D0079007AFA7B22
:10334300171215DA02498574F71207B074F7120ED3
:1033530032EAFEEBFF1233DD7405124C497403F0BD
:103363001234F4124C2B2430FCE43FFD8C821233D4
:10337300D51233E96008123C0274FFF0A3F0EE2487
:103383002EE43F1C1CFD8C82F583A3E0C0E08A82FF
:103393008B831248DDD0E01233E98882898312518E
:1033A300182403F0EE123C0C1210A57403F09005E0
:1033B3003F120BF77402120E121237D6120D7FE969
:1033C300F5087007EEFAEFFB122768A908740902E3
:1033D3003C1BF583E08882898322EA1233E22212BE
:1033E30053273FF58322126100124C37E8F0A3E91B
:1033F3001263D7E02274F01207B0EAFEEBFF8C0CE5
:103403008D0D890B1234F4F583124C3F7410121096
:10341300A5E0F508A31233D7F0E824FFF582E912FB
:1034230037E8E508F0E824FEF582E91237E8E50B12
:10343300F0900544E0C0E0E824FDF582E91237E8A6
:10344300D0E0F0900543E0C0E0E824FCF582E91207
:1034530037E8D0E0F074121210A512324712322F5F
:10346300E509F0E824FAF8E934FFF98882F583E501
:1034730008F0EE2404FCE43FFD88088A828B83E095
:10348300F50E8C828D83E0250EC395081261001220
:103493004A65850C82850D83A3A3A3A3A3A3A3A33A
:1034A300E064037009EE124C19F0A3E480031237B1
:1034B300ED1237F57409F07508EF750917750A00F1
:1034C3007808120D68125BCA120D7F7508FF750923
:1034D300FF7808120D6CAC0CAD0D1237D6120D7FB0
:1034E300E9F5087007EEFAEFFB122768A908023224
:1034F3005BEA2402FAE43FFB8A8222C082C0839003
:10350300180BE0C39408400474078001E08A828B9F
:1035130083F033333354F8F902498574F01207B05A
:103523008A088B09890A8C0E8D0F750C00A2AFE4F3
:1035330033F50BC2AF9018058045123620503D126B
:10354300363A64037036E50824F9F508E50934FFD3
:10355300F5098E828F83A3A3E02405FCA3E0340046
:10356300FDAA08AB09121772E50824FFF508E5095F
:1035730034FFF5097410250CF50C150A123A0F12D5
:103583006B88E50A6004EE4F70B0E50BA2E092AFE2
:10359300A2AFE433F50BC2AF901805803E1250F191
:1035A3008882F583124365850882850983F08A82C0
:1035B3008983123631A3A3E0C0E0E50824FFF58236
:1035C300E5091237E8D0E0F0E50824FEF508E5093F
:1035D30034FFF509050C150A123A0F1238636021FE
:1035E30012363A640270F1123620EE40B0124D608A
:1035F300A2E550E4850E82850F837401F0E50A701D
:10360300D7E50BA2E092AF850882850983E50CF02C
:10361300E50824FFFAE50934FFFB02325B12362684
:10362300A2E622EE2411F582E43FF583E02212366E
:103633003522125136A3228E828F83A3A31248E12F
:1036430012580D2274F01207B074F3120E32740381
:103653001210A5E9F074021210A5EAF08B0B852174
:1036630082852283E4F004120E0A12267EE9F89082
:103673000529E0292437F508FA7B001215EC8A0C9A
:103683008B0DAE0CAF0DEA4F70030237CDEA240267
:10369300F50EE43FF50FA808EA28F8E43BF9850E98
:1036A30082850F83124161900529E0F9FAC3E49AF8
:1036B300FA95E0FB850E82850F83E02AF50CA3E0E3
:1036C3003BF50D900527123247750A007808120D55
:1036D30068E9FC7D00AA0CAB0D124B9B120D7FAC6D
:1036E30021AD2274011210A5E0F9E50C24FFFAE5DF
:1036F3000D34FFFB1226848A828B83E4F0E50BC42E
:1037030054F0F9901896E0C4333354C0F89005236D
:10371300E0A2E0E43313134849440FC0E0EA24FF76
:10372300F582EB1237E8D0E0F0EA24FEF50CEB3437
:10373300FFF50D74031210A5E0F874021210A5E052
:10374300C454F048850C82850D83F0A80C850E8245
:10375300850F83125E4D2AC3988E828F83A3A3A302
:10376300A3F0850E82850F83E8F0A3E50DF01237F1
:10377300ED1237F5E4F0740C1210A5E4F07508FAB5
:103783007509177808120D68125BCA120D7F85211F
:1037930082852283E06009EE240E124D624408F014
:1037A300122870E9F9E4F508F5097808120D6C742C
:1037B30006120E121237D8120D7FE97006EEFAEFD9
:1037C300FB800BEEFAEFFB1215F27A007B00740D0F
:1037D3000232587903EEFAEFFB122888740222EEC4
:1037E30024FFF582EF34FFF58322EE1233E2E4F097
:1037F300A322F01237FA22EE125AED3FF583227418
:10380300F21207B08A0C8B0DA2AFE433F50AC2AFF4
:10381300750800750900901805802C123A1F502472
:10382300850C82850D83A3A3125BDD8E828F83A318
:10383300A3124811122876E9600A123A1AC2E6F076
:103843008E088F09123A0F12386370CFE5084509C5
:1038530060061238FCD2E6F0E50AA2E092AF800DD2
:10386300E0FEA3E0FFEE4F227402120D7F7F0602FB
:103873000B6E74F01207B08A0E8B0F8C0C8D0D75C6
:103883000A00A2AFE433F50BC2AF7E007F009018AD
:10389300058010AE08AF091238F4124D60D2E7F07C
:1038A3001247EF12480360341238FCA2E750F18547
:1038B3000882850983A3A3120BF7AC0CAD0DAA0EE6
:1038C300AB0F12287C7402120D7FE960D3EE4F60B8
:1038D300C2123C96700612390ED2E4F0E50BA2E058
:1038E30092AFEE4F6006122762750A01A90A0232EF
:1038F3005B123626D2E4F0EE22E508125B073509A7
:10390300F583E022AA82AB831217728E828F83A380
:10391300A31248E1E02274F21207B074FE120E32D1
:10392300750C00750D00852182852283E4F0A3F0D8
:10393300A2AF33F50AC2AF901805126B88802BEE45
:1039430024FBF582EF34FF123245780C120D6C1212
:1039530039FD120D7FEEFCEFFDAA21AB22121610EA
:10396300AE08AF0990180BE014F0EE4F602B123A3B
:103973001F501DEE240BF8E43FF98882F583E02401
:10398300FFF0A3E034FFF0888289831251E460AF33
:103993008E0C8F0D123A0F80A1E50AA2E092AF9030
:1039A300180BE0602C90052AE0640F6006901895D0
:1039B300E0701E7AE37B17122960908667120BF37F
:1039C3007AE37B17124A0D120D7F800574F01248BB
:1039D300EEAA21AB221216168A088B09AE08AF098C
:1039E300EA4F6013122690123A1AA2E28E828F8354
:1039F300A350D974E980D702386BEEFCEFFD7A054A
:103A03007B181216227402228E0A8F0BEE24FBF50A
:103A130082EF34FFF58322EE12362722123626A2D6
:103A2300E72274F71207B0EAFEEBFF122690124862
:103A3300DA122B1EE96401900546700AE02401F8AE
:103A4300A3E034008003124860F9124F62124A6502
:103A530090180BE0701F90052AE0640F70177AE34B
:103A63007B17122960908667120BF37AE37B171298
:103A73004A0D120D7FA8A8C2AF90180BE004F0E81E
:103A8300A2E78004E508A2E092AF024E7074F71239
:103A930007B0EAFEEBFFEA123AC6F0122690EEFCFC
:103AA300EFFD7A057B1812161CA8A8C2AF90180B5D
:103AB3001243B490052AE0640F7005790812282890
:103AC300024E70123627C2E42274F71207B074EA6A
:103AD300120E32EAFEEBFF900523E0602A85218275
:103AE3008522837401F01210A5E4123B811210A504
:103AF300123907C0E0740A1210A5D0E0125E6D748B
:103B03000B1210A51250CD7416023C1B74F712074A
:103B1300B0EAFEEBFF122672E9F974DC69601E74E9
:103B2300DD69601974E469601474F369600F74DE0D
:103B330069600A74DF69600574DB697007EEFAEF88
:103B4300FB12282E024E7074F71207B074EB120E9C
:103B530032EAFEEBFF8521828522837406123B81C4
:103B63001210A5AA82AB83121772EE2408FCE43F5D
:103B7300FD740A1210A51250CD7415023C1BF0EA15
:103B83002413FCE43FFD74022274F71207B074F7A8
:103B9300120E32EAFEEBFFEA2430124D62605DEA58
:103BA300123C0C1210A57403F090053F120BF71290
:103BB3003C02120BF7900552E0F97404120E12EE58
:103BC300FAEFFB1226787404120D7FE9F974DC69AD
:103BD300602374DD69601E74E469601974F36960BD
:103BE3001474DE69600F74DF69600A74E869600544
:103BF30074DB697007EEFAEFFB12282E0233D0EE66
:103C0300242EF582E43FF58322125FDEAA21AB2244
:103C13001217727408227403120D7F024E7074F22D
:103C23001207B08A0C8B0D750A00750B007508E737
:103C3300A2AFE433F509C2AF9018058003123A0B23
:103C43001238636025123A1F50F3123C9670EEEE61
:103C53002432123E2DE06870E4780A120D6C12399A
:103C6300FD120D7F90180BE014F0E509A2E092AF6E
:103C7300EE4F6013EEFAEFFB12269079F0EEFAEFB7
:103C8300FB12282E750800A908AA0CAB0D12282ECA
:103C93000238701237FAE064012274F41207B07428
:103CA300F7120E32EAFEEBFF8A82F583A3E064F398
:103CB3007003023D3B8A828B83A3E064DF60798AD1
:103CC300828B83A3E064E8606F8A828B83A3E064C2
:103CD300DB60651226D2E9F5087055EE240E124D0D
:103CE30062604D123D45604874081210A5123D54A0
:103CF300120BF77508FF7509FF7808120D6C8E8299
:103D03008F83A3A3A3A3A3A3A3A3E0F97404120E15
:103D1300121226787404120D7FE9F50874F36960B2
:103D23000F74DF69600A74E869600574DB69700FFA
:103D33008E828F83A3E508F0EEFAEFFB1226DE02F4
:103D4300326AEE240FFAE43FFB7909122714EA4B97
:103D53002274021255D374FFF0A3123D6122125153
:103D630021A3A32274F11207B0EAFEEBFF7508004A
:103D73008A82F583A3A3A3A3A3A312328840037566
:103D830008E88A828B83A3A3A3A3A3A3A3A3A3A3C8
:103D9300E0C3941040057508E880138A828B83A3DF
:103DA300A3A3A3A3A3A3A3A3A3E0640F600B9018EF
:103DB30072E0540870037508E8EA240B123E2DA341
:103DC300A3A3A3A3A3A3A3E0C398500DEA240B12B8
:103DD3004D62640F60037508E8900543E0F47003D7
:103DE300A3E0F470037508EC7A237B001216828B30
:103DF3000BA90B9017EC123E3C60278E828F83A396
:103E0300A3A982AA83890C8A0D750E00780C120D62
:103E1300687C237D009017ECE0FA124B9B120D7F18
:103E2300800375081AA908025BC5F582E43FF58390
:103E3300E0F88A828B83A3A322EAF0A3EBF0EA499A
:103E43002274F51207B0EAFEEBFF8A82F583A3A37F
:103E5300A3A3A3A3A3A3E090052A123ED4E0900555
:103E630045F0EA240B124D62900525123ED4A3E0DF
:103E7300901896F0F9121442901896E0600BEE2415
:103E830004124D542406123ECA90189512326060F3
:103E9300047401800274009017EE126518120D6805
:103EA3007C0B7D007AEF7B17124B9B120D7FEE2468
:103EB30018F508E43FF5097808120D687C0B7D00BE
:103EC3007AFA7B17024B88FAE43FFB79E112142A52
:103ED30022126502A3A3A3A32274F71207B0EAFE7A
:103EE300EBFF8A82F583A3E0700312321612608916
:103EF300024E7074F71207B0EAFEEBFF9017EC1254
:103F030051E460109017EC1248119017ECE4F0A301
:103F1300F01216888E828F8374081248F5121D18CA
:103F2300024E7074F61207B0901895E06010901767
:103F3300EEE0700A123F44EA4B6003122768026105
:103F430083900525E0FB900545E0FA90052AE0F90A
:103F530012268A2274F41207B074E7120E32EAFEB4
:103F6300EBFF750B018A82F583A3A3A3A3A3A3A3EA
:103F7300E0A2E25069EA242BF582E43F125BDBEA1C
:103F83002413FAE43FFB122696E970529085D1E0A0
:103F930064017005750B008045124016120D687C94
:103FA3000B7D007411120E0A124B9B120D7F122807
:103FB30070E9FA740E120E02880889097808120D46
:103FC3006C7508307509007808120D6CEE125E36B8
:103FD300120BF7125FD07901123282120D7F852105
:103FE300828522837410F0125FD074021210A5AA86
:103FF30082AB83121766EE242B1267C9740B12105F
:10400300A5124A65740D1210A5E50B1262427419CC
:1040130002326CEE240812652022C082C0839018FD
:1040230096E060031228E2024985C082C08390189B
:104033008D74CBF0A37417F0A374CFF0A37417F0AF
:10404300A374DBF0A37417F09019D77450F0A37422
:104053002EF0901877746CF0A37426F090181074F7
:10406300A2F0A37426F090181274A8F0A37426F09B
:10407300901872E04402024489C082C083EAFCEBD8
:10408300FD7903025190C082C0837908026303C0A3
:1040930082C08374FE120E329018187450F0A37409
:1040A30027F090181A744AF0A37427F080077A0552
:1040B3007B181240EE9018051251E470F190180726
:1040C3001251E460097A077B181240EE80EF9018D2
:1040D30005E4F0A3F090180BF0A3F0A3F0901826DA
:1040E300748CF0A37427F07402801C1216168521B9
:1040F30082852283EAF0A3EB12410212285E22F0AA
:10410300AA21AB22227411120D7F02498574F61283
:1041130007B0E9FF749629F582E43431F583E4931B
:10412300FEFA7B001215ECEA4B6007EA2E12415EA1
:1041330080267A027B001215ECEA4B6017748B2FF2
:10414300F582E43431F583E4938A828B83F0A3749C
:104153001A1245277A007B00026183124A54E8123F
:1041630060FDA3A3A3A3E4F022E9FC740629F8EA03
:10417300A2E0501EE875F00A84E5F0F96014740AB1
:1041830028C399F8E9C394054004740A28F8740B0A
:1041930028F8ECC394134004791480027906E829C3
:1041A30079002409F85001097A0A7B00120660E8B5
:1041B300F9020D4CC082C083901872E05402600A69
:1041C300121D1EE96004790180027900024985C04D
:1041D30082C083901872E05402601490180BE07050
:1041E3000A1251E160091241F75004790180027902
:1041F3000002498512323AA2E722C082C083908529
:10420300CEE0F890180DE0C39850051215EC800429
:104213007A007B00024985C082C08312285E790040
:10422300024985C082C08374FE120E3285218285C5
:104233002283EAF0A3EB124390A3A3A3A3A3E0601A
:104243000A14605724FE605A02430090052AE06472
:104253000F6012122834E9700C12480B90181412D4
:1042630048DD122B1E900552E0C0E0852182852295
:1042730083125104D0E01243907414125B21FCA307
:10428300E0FD7A077B18121610A8A8C2AF90180D8C
:104293001243B479201228280240EA12465E7415AC
:1042A30080D912465EA3A3A3A3E0605112465E1217
:1042B3003912C0E0852182852283E02406F582E459
:1042C3003BF583D0E0125B212402F8A3E03400F92C
:1042D3008882F583E02401FAA3E03400FB88828915
:1042E30083EAF0A3EB125B2112469E85218285228D
:1042F30083601312436560051243774048AA21ABDC
:104303002212285E809212436560F2124377502195
:10431300124384FA852182852283A3E0C8240612EE
:10432300465AF874C11253193431F583E4936A6021
:1043330014852182852283124365640870BF12436A
:1043430084640870B812438414124398240AC0E0AA
:104353008521828522831248DDD0E012439804022E
:10436300427E12436922124860C82406F582E4386B
:10437300F583E022852182852283124369C3940A4F
:1043830022852182852283123635A3E0221243A29D
:10439300F5838882221243A2C8240612468822F09B
:1043A30085218285228312486022A8A8C2AF901873
:1043B3000CE004F0E8A2E792AF22C082C083901819
:1043C3001C1251E46008124665122B1E800279000C
:1043D30002498574F71207B0EAFEEBFFEA1237FBD6
:1043E3007401124A13F8A3E0F91233DD124A65EAA5
:1043F3002435124D62C0E0EA2413F582E43FF583CD
:10440300D0E0F0EA2436124D62C0E0EA2414F582CB
:10441300E43FF583D0E0F0EA2438124D62C0E0EACD
:104423002418F582E43FF583D0E0F0EA242FF582E7
:10443300E43FF583120BF7125FDDEA2431124D627C
:10444300F91237DC120D7FE9F5087007EEFAEFFB7E
:10445300122768A908024E70C082C083122834E96B
:104463006004792080027901024985C082C083EA11
:10447300241112447FD2E0800DEA240DF582E43B3F
:10448300F583E022F0A3F0024985C082C083124481
:104493007C64017011124521400C8A828B83A3E056
:1044A300F912282E8066124512A2E650128A828BD8
:1044B30083A3E0F99018161248DD122B1E804D12CB
:1044C300447C6401700D12452150088A828B8374E9
:1044D3003080368A828B83A3E0641B8A828B83704D
:1044E3000474228024A3E0700D12447CF874AC128F
:1044F30053193431800B12447CF8748B12531934E2
:1045030031F583E4938A828B83124527024985120E
:10451300451622EA2410F582E43BF583E022124596
:1045230016A2E322F090186DE0F91215F82274F741
:104533001207B0E9FE1251E17003024657EE601410
:10454300741B6E701AE8125AED39F583E064057036
:104553000302462F90180F124665A3E402463674F1
:10456300E96E7068E82412F582E439F583E0700B94
:10457300121D24E960051246A8606179EE1213AC9E
:1045830090180E12467F90180E603A1246AB9018A0
:104593000E700B12467F14F0121562024657124634
:1045A3009DC2E7124846240D12465A64037009124D
:1045B30046781247FCD2E2F079ED1213AC12469022
:1045C300122B1E807812466B74E9806774E16E705B
:1045D3003E121D24E960551246A8705090054CE028
:1045E300C0E01246782412F582E438F583D0E0F077
:1045F30090053BE0C0E090180E124674124674D04A
:10460300E0F090053BE004F0790112154A8045740F
:104613001C6E701890180E12481190181E1248DD67
:10462300122B1E90180EE4F0A3F0802890180E129F
:10463300466BEEF090180E124811122756124827B7
:10464300E0548060031262F290180EE4F0A3F07954
:1046530010122828024E7012468822852182852254
:1046630083A3E0F58388822212466F221248E5A3D2
:10467300221251322290180E125113221251132476
:104683001212468822F582E438F583E02290180E50
:104693001248159018121248E122E0F8A3E0C8244A
:1046A300101246882290180E12482EE054042274E9
:1046B300F41207B0750A00750B00A2AFE433FEC213
:1046C300AF1251E160030247A51248DA122B1EE92B
:1046D3004410F8901805800985080A85090B1247CC
:1046E300EF12480370030247A51238FC586870E8BC
:1046F300780A120D6CAC08AD09123A01120D7F90C5
:10470300180EE508F0A3E5091248461247FCA2E794
:1047130050030247AC90180CE014F0EEA2E092AF05
:1047230090180EE0240EF8A3E03400F9E8FEE9FF48
:104733008882F58312481190180E12438AF91227C2
:104743001AE9901809125E808E828F83E05480608C
:1047530018124678241312465AF912146612467830
:10476300241412465AF912145A124827A3E054018A
:10477300605F9018091251E4604512483D60401291
:10478300483DF87900901809124811120668E8C0EC
:10479300E012481BD0E012484BC39413401174023B
:1047A300800FEEA2E092AF803790180B02471B7484
:1047B30000C0E090180FE0C81247E6D0E0800D1269
:1047C300481B74011248461247E67401F0790380CE
:1047D3000C90180E12469DA2E1B3E433F912154A68
:1047E30002326F241AF582E438F58322E50824FBAC
:1047F300F582E50934FFF58322125B0712468B220B
:1048030012324BE50845092285218285228312480D
:104813001522E0FAA3E0FB221251102419F582E4D9
:1048230038F5832290180E12482E22124860C812BF
:1048330048362212532738F58322125110241812B6
:10484300468822124858C822124858F5838882A302
:10485300A3A3A3E022F090180E12486022E0F8A36D
:10486300E02274F71207B0EAFEEBFF122858124D4C
:104873005FA2E3400A123C9670059085CC800390BA
:1048830085CDE0F9EEFCEFFD7A057B18121628E9D9
:104893006038EEFAEFFB9018181248DD122B1EEE6B
:1048A300240E124D62540470121243ADEE1233DE25
:1048B300A3E05401701E1227628019EEFAEFFB90F9
:1048C30018101248DD122B1E800A8E828F83A37468
:1048D300F11248EE024E7090181A1248E122124863
:1048E300E522E0F8A3E0F5838882221248F5122737
:1048F3005622F0EEFAEFFB2202497E74F71207B05C
:10490300EAFEEBFF7900901872E05402700CEA247F
:1049130033124D625404600279E8901872E05460D7
:10492300700CEA2433124D625402600279E88A82E1
:104933008B83A3A3A3A3E0F89085D2E0C39850028E
:1049430079E8EA2431124D62700CEA242E124D628A
:10495300700479F5800BE97005122744E9F9E960E1
:1049630007EEFAEFFB12282E024E70C082C0838A34
:10497300828B83740DF0121D188007C082C08312CE
:104983002762D083D082020D4C74F41207B0EAFE82
:10499300EBFF8A82F583E4F0A3124A135404908553
:1049A300CC7012E0F890180CE0C398401279F11221
:1049B300282E02326FE0F890180BE0C39850EE12E5
:1049C3004A19A3E054016037EA2437124D62C394B5
:1049D300054033EA2433124D62540570297A207B53
:1049E30018122960EE2437F582E43FF58312322052
:1049F3007808120D647A207B18124A0D120D7FEE8F
:104A0300FA12540A80AC79E880A51229547404225E
:104A1300F0124A19E022EA2433F582E43FF58322B7
:104A230074F61207B0E9FE2451FAE43400FB1215C0
:104A3300ECEA4B6015EE8A828B83A3A3A3A3F0EA6F
:104A43002451124A54124A6580047A007B000261A1
:104A530083F8E43BF98A828B83A3A3221267D39062
:104A630018EAE8F0A3E9F02202497EC082C08390ED
:104A7300182974B6F0A37427F0A374E6F0A374277F
:104A8300F0A374BCF0A37427F0A374C2F0A374273B
:104A9300F0A374E0F0A37427F0A374D4F0A37427F5
:104AA300F0A374CEF0A37427F0A374ECF0A37427DF
:104AB300F0A374F2F0A37427F0A374F8F0A374279F
:104AC300F0A37404F0A37428F0A374C8F0A37427AC
:104AD300F0A374B0F0A37427F0A374AAF0A374270F
:104AE300F090184574DAF0A37427F0A374FEF0A3D2
:104AF3007427F0A37418F0A37429F0A3740AF0A325
:104B03007428F0A37410F0A37428F0901869E4F0EB
:104B130090186CF0901855124B2B7402F090185E9D
:104B2300124B2B74010244897428F0A37428F0A358
:104B33002274F51207B074F1120E32852182852298
:104B4300837402F074011210A5E9F060047AFF7B0C
:104B5300FF74021210A51255C875086175091875FE
:104B63000A007808120D687C0B7D0074071210A5EB
:104B7300AA82AB83124B9B120D7FAA21AB22121D7B
:104B830018740F8003124B9B120D7F7F03020B6E71
:104B93007C0B7D007A617B181215CE74032274F7A7
:104BA3001207B074FD120E32852182852283740AA6
:104BB300F074011210A5E9F074021210A5EA126252
:104BC30042023C1974F61207B074F7120E32EAFE71
:104BD300EBFFEA124C19124C497402F0EA2428FC48
:104BE300E43FFDAA21AB22121766EE2431124C1FBB
:104BF3002433125C41120D6C7402120E1279831A63
:104C03001A1237DA120D7FE9F5087007EEFAEFFB97
:104C130012276802617C1233E2740122F582E43FB9
:104C2300F58312324B1250E9F583124C37E8F0A3A7
:104C3300E9F0EE22124C3F8A828B8322E024FFF8B4
:104C4300A3E034FFF922F0A3E4F0EA1237FB227465
:104C5300F01207B01266B11210307808790C120600
:104C6300C17808120D647A587B1802325374F41217
:104C730007B074C6120E3290052AE0640F600D85EA
:104C83002182852283742E1255E780227A4F7B1866
:104C930012329112066888088909E4F50AF50B783F
:104CA30008120D647A4F7B18124A0D120D7F743A65
:104CB30002326C74F51207B0EAFEEBFF8A82F583C9
:104CC300A3E0F87078EA2430124D6264026007E0D2
:104CD3006403600278E8EA2426F582E43FF5831250
:104CE300328A400478E88058E87052EA2426123E5B
:104CF300CAEE2431124D542430124D626402700EF8
:104D0300EE24281267C9900539124A658017900569
:104D13003974FEF0A304F0EE2428FCE43FFD7A305E
:104D23007B05121772EE241B124019120D68124BE9
:104D330093120D7FEEFAEFFB1227A4E9F8E8600E59
:104D4300E88E828F83A3125FE5741712608F024B84
:104D53008EFAE43FFB795012142AEE22EE2410F56A
:104D630082E43FF583E02274F61207B074F7120E63
:104D73003290186CE070377401F0F9121514AA21FF
:104D8300AB2212286A7508617509187808120D6C30
:104D93007508017509007808120D6C90053F120B18
:104DA300F77406120E127A03123280120D7F02611B
:104DB3007E74F71207B0124F907004A374EBF09057
:104DC300186CE0A2E25003C2E2F0E0A2E150051247
:104DD3004FA180098E828F83742A12608F024E70D6
:104DE30074F41207B074FE120E32124E961250DC97
:104DF300EC85218285228312512BE0F50B7015AAD5
:104E030021AB22795312142AEE2413FAE43FFB79DF
:104E13004A12142A124016120D68124B93120D7F78
:104E230012480BA90B12279890186CE0A2E15003CB
:104E3300124FA890186CE4F0740202326C74F712EB
:104E430007B0EAFEEBFF8A82F583A374EBF09018B8
:104E53006CE0A2E150077A0079EB12279EEEFAEF9D
:104E6300FB1227D48007EEFAEFFB1228D67F01024C
:104E73000B6E74F71207B0124E96901869E4F09017
:104E8300186CF07AFF7BFF8E828F83A3E0F91227E1
:104E93009880DA124FE17A587B181229602274F74E
:104EA3001207B0EAFEEBFF1227CE80BA74F712079F
:104EB300B012501EA3A3A3E060047400800274EB3D
:104EC300124EEF5003C2E2F0E0A2E15005124FF29E
:104ED3008011A2E0500D8E828F83742AF0A374EBAD
:104EE30012608FEEFAEFFB12277A80818E828F8316
:104EF300A3F090186CE0A2E22274F61207B0EAFE67
:104F0300EBFF90186CE0D2E1F079011215148E8258
:104F13008F83A3E07038122870E9FAEE240DF508A8
:104F2300E43FF5097808120D6C75080175090078DE
:104F330008120D6C124F62120BF7EE2402FCE43FD1
:104F4300FD123280120D7FE98E828F83A3F08E8251
:104F53008F83A3E060067A00F912279E026183EE35
:104F6300240BF582E43FF5832274F71207B0124F46
:104F7300907004A374EBF090186CE0A2E25003C2AB
:104F8300E2F0E0A2E15003124FA1024E70EAFEEB01
:104F9300FF790112151A8E828F83E0642022C2E109
:104FA300F0124FA8227A008E828F83A3E0F9122792
:104FB3009E2274F71207B0124FE18E828F83A3A350
:104FC300A3A3E060047400800274EB124EEF50035D
:104FD300C2E2F0E0A2E15003124FF2024EE6EAFE13
:104FE300EBFF790112151A7A4F7B1812296022C23E
:104FF300E1126513E0A2E4E433FA124FAA2274F734
:105003001207B012501E74EB124EF45003C2E2F0BA
:10501300E0A2E15003124FA1024E70EAFEEBFF79CA
:105023000112151A8E828F83A32274F71207B0120E
:105033005043024E6974F71207B0125043024E7088
:10504300EAFEEBFF7A4F7B18122960EEFAEFFB12B0
:1050530027F82274F71207B074EF120E32EAFEEB50
:10506300FFEA125FD17A307B05121760E96056853B
:1050730021828522837409F074011210A574EFF064
:105083001250DC74021210A5EC12512BA3A3E0C042
:10509300E074041210A5D0E0125118640870158E44
:1050A300828F83A3A3125104E0C0E074051210A5FC
:1050B300D0E0800674051210A5E4125E6D7406122A
:1050C30010A51250CD7411023C1BAA82AB83122887
:1050D300A0AA21AB22121D18221250E9F583125007
:1050E300FBFCA3E0F922EE1250F1FB88822224029A
:1050F300F8E43FF9E8FAE9221248608882F583E090
:10510300221251132407F582E438F5832290180EF6
:10511300124860C82212511C22125121E022F08E43
:10512300828F83A3A3A3A3221260FD125132221202
:10513300513622E0F8A3E0F5838882A3A322C0823C
:10514300C0831228E2024985C082C0839018897403
:1051530029F0A37418F0A37445F0A37418F0901900
:10516300D17414F0A3742FF0A374B2F0A3742EF0CF
:105173009018757492F0A37427F0901872E04401AC
:10518300024489C082C083EAFCEBFD7902122846FF
:1051930002498574F61207B074FE120E3290186E2F
:1051A3001251E460077A6E7B1812285E901874E43B
:1051B300F0900C4E1251E460208007AA21AB22121A
:1051C300285E90186DE0F91216048B09A909852150
:1051D30082852283123E3C70E27402026180901841
:1051E3000E1267D3E8492274F71207B0E9FA7B007D
:1051F30090186DE0F912162E024E7074F71207B074
:1052030074F0120E32EAFCEBFDE9FE8A828B83E036
:10521300F874A11253193431F583E493C0E0740197
:105223001210A5D0E0F0640B700DE98A828B83A382
:10523300F01228C4025314E07003025314640C6088
:1052430003025305741A6E700B74041210A5E4F074
:10525300A302530474041210A51255C8EA2432128F
:105263005AD1C0E074031210A5D0E01264FE1210EC
:105273008E74061210A512106A8C828D83A3A3A3C9
:10528300A3A3A3A3A3A31267CF740A1210A5E8F0E4
:10529300A3E912531EE054106009852182852283FD
:1052A300E48013EC2412125AD1F890054CE0C39811
:1052B300852182852283F0E0C0E0740C1210A5D012
:1052C300E0F0EC2415125AD1C0E0740D1210A5D0F1
:1052D300E0F0EC2416125AD1C0E0740E1210A5D0DF
:1052E300E0F0EC2417125AD1C0E0740F1210A5D0CD
:1052F300E012531EA3E05401600874011210A57458
:1053030011F074021210A5EEF07401120E0A121DB0
:10531300187410023C1B28F582E422F0EC12532788
:105323003DF58322240EF582E422C082C0839018C7
:1053330074E0640370047901800279000249857482
:10534300F71207B0901874E01253BD74CF28F5829A
:10535300741939F58312584FC2E7F01253C4A3E40A
:1053630093FE25E0FCE433FD74CF2CF58274193DE4
:10537300125BDBEC4D6005EE901874F08A828B8330
:10538300E025E0FCE433FDE82CF582E93DF583E418
:1053930093FCC4540F25E0F874831253193418F5A1
:1053A300831251E470051228B2800CEC540F12538F
:1053B300C41248DD122B1E024E7025E0F8E433F9C7
:1053C3002225E0FCE82CF582E439F5832274F212FD
:1053D30007B074FE120E32890B8A088B0912546FC0
:1053E300125460601A125E7AF50A7808120D681278
:1053F300547C2402125BD1120D7F125408800312D5
:10540300548E02386BAA0CEFFB90186DE0F912155D
:10541300F82274F01207B074FE120E32890B8A0E52
:105423008B0F12546FF5081254606027125E7AA82E
:1054330008EA2812415E850E08850F09F50A7808E7
:10544300120D6812547C125BCF120D7F125408792F
:1054530000800512548E791A7402023258FA7B00C6
:105463001215EC8A0C8B0DAF0DEA4F22748029F5CF
:1054730082E43431F583E49322A80B74B7125319F1
:105483003431F583E493FC7D00EA22852182852271
:1054930083E50BF0791AAA21AB2212282E22C082AF
:1054A300C083E990186D02448974F61207B074FE44
:1054B300120E32EAFEEBFFEA542070308039A8A8BE
:1054C300C2AF90180DE0141243B68A828B83125533
:1054D300B59018701255C812283A85218285228307
:1054E300E0641560077A707B1812285E7A077B18D0
:1054F300121616EA4B70C7EF5480700C8016901882
:1055030070EAF0A3EB1255DB90186DE0F912160464
:10551300EA4B70EAEE5410600B8521828522837476
:105523002D1255E7EEA2E0500B852182852283746C
:10553300241255E7EE5402600B8521828522837481
:10554300251255E7EE5404600B852182852283746E
:10555300261255E7EE5408600B8521828522837459
:10556300281255E7EE5440600D74011210A5125530
:10557300CE742C1255E7EE5480600D74011210A501
:105583001255CE742F1255E790186E1251E4601B1A
:10559300A8A8C2AF90186E12481190186EE4F0A339
:1055A3001243B6A3EAF0A3E91255DB7A007B0002AB
:1055B30051DC1255B922E0852182852283F022A392
:1055C300A3A3A3A3A3EAF0A3EBF022E41255D322EF
:1055D300F085218285228322F012283A7A707B1883
:1055E30012285E2212410212283A22C082C08390FE
:1055F300187012623D687002EB697007901870E4CE
:10560300F0A3F002498574F71207B0EAFEEBFFEA54
:105613004F7003121262A2AFE433F508C2AF8E8259
:105623008F831251E46028E824FBFAE934FFFB90EE
:105633001870125BDDE86C7002E96D7007901870EA
:10564300E4F0A3F08E828F83E4F0A3F012168802B5
:105653003A87C082C08390189774A6F0A37428F089
:10566300A374B8F0A37428F0A374BEF0A37428F055
:10567300A37474F0A37427F0A374C4F0A37428F084
:10568300A3746EF0A37427F0A3747AF0A37427F0C5
:105693009018A574F4F0A37428F0A374CAF0A3744B
:1056A30028F0A374D0F0A37428F0A374DCF0A374DF
:1056B30028F0A374D6F0A37428F0901896E402445B
:1056C30089C082C083900539E064FE7003A3E0F4CF
:1056D30070097C307D05121766801C8A828B83A338
:1056E300A3A3A3A3A3A3A37402F09005391267CFC6
:1056F3008A828B83124A65024985C082C0839005E2
:1057030043C3E094FEA3E094FF400479038002794D
:1057130002024985C082C0831258588C828D83123D
:10572300580D687039740268701C8A828B83125713
:1057330066E06870298A828B83A3125766A3E068A8
:10574300701C7901801A7403687013EC2405FC50F3
:10575300010DEA2405FA50010B12176C800279003F
:10576300024985A3A3A3A3A3E0F88C828D83A3A3FB
:10577300A3A3A32274F61207B07E00740A1210A525
:10578300E0125801FF8A828B83A3A3A3A3A3A3A33D
:10579300A3E06F706474026F704E8A828B83C08241
:1057A300C08388828983A3A3A3A3A3E0F508888287
:1057B3008983A3A3A3A3A3A3E0FBAA08D083D082D6
:1057C300E06A7003A3E06B703088828983A3A3A38C
:1057D300E0FA88828983A3A3A3A3E0F9EA6C7002A9
:1057E300E96D70157E01801174036F700CE8240558
:1057F300FCE439FD12176CE9FEEEF9026183F8A3AC
:10580300E0F98882F58312580D22A3E01313543F65
:10581300540322C082C0838A828B83A3A3A3A3A33E
:10582300A3A3A3E06402701690053912584F687061
:1058330003A3E06970047901800F7900800BEAFC0F
:10584300EBFD7A307B051217600249851267D38A14
:10585300828B83E0228A828B8312580DF82274F0A4
:105863001207B074FC120E32E9852182852283F07F
:1058730074021210A5ECF0A3EDF08A0A8B0B7508E5
:105883000074021210A5E02408125AD1C0E074017A
:105893001210A5D0E0125B21A2E75008750EFF7528
:1058A3000FFF800A90053FE0F50EA3E0F50F852179
:1058B30082852283E0C2E7125B2654206007125AD6
:1058C300F374088004125AF3E4125B26540460074D
:1058D300125AFE74808005125AFE7410125B26540D
:1058E300106006125AD9E4800B90054CE0C0E01218
:1058F3005AD9D0E0125B26A2E05003750820540861
:10590300600674104508F5088A828B83A3A3E024FC
:10591300FFFEA3E034FFFFEA125AE4C39402E0401F
:105923000F640B6009E0148E828F83125B1774037C
:105933004508F50875090090055FE0640170118A58
:10594300828B83A3A3A3A3E0C394674003750910C9
:10595300852182852283E0F50C750D00740E780C89
:10596300120F3CE50D4509F509E06402701B900533
:1059730044E08E828F83F0900543E0C0E01237E26B
:10598300D0E0F0EE24FEFE801CE06403701DEE24E4
:10599300F9FEEF34FFFF7C537D05EEFAEFFB1217A0
:1059A30072EE24FF1EEF34FFFF8003E0602F7401CB
:1059B3001210A5E0601874141210A5E0650E7004AF
:1059C300A3E0650F700874404508F508800F8E82C8
:1059D3008F83E50FF01237E2E50E125B0D740112AF
:1059E30010A5E0F50C750D00740A780C120F3CE558
:1059F3000D4509F509E06402702374021210A51223
:105A030062388E828F83F074021210A5123914C08B
:105A1300E01237E2D0E0F0EE24FEFE8020E06403E3
:105A23007021EE24F9FEEF34FFFF74021210A51269
:105A33005BDDEEFAEFFB121772EE24FF1EEF34FF6D
:105A4300FF8003E0601C74141210A5A3E08E828F04
:105A530083F074141210A5E0C0E01237E2D0E01214
:105A63005B0DEEF8EFF9E824FF1EE934FFFFE50ACA
:105A7300125AE4700590052F800390053BE0FA0469
:105A8300F0EA88828983125FE5E509125B178E824B
:105A9300F583E508F0E50A2404F8E4350BF9E50A93
:105AA3002402FAE4350BFBEEFC8A828B83E0F508D3
:105AB30088828983E02508C39C126100EEF0A3EF7E
:105AC300F0850A82850B83A3E4F0F9023256F5824E
:105AD300E43DF583E022EA2412F582E4350BF583F5
:105AE30022125AED350BF583E022240DF582E422D0
:105AF300EA2410F582E4350BF58322EA125B0735BD
:105B03000BF583222411F582E422F0EE24FEFEEF4E
:105B130034FFFF22F0EE24FF1EEF34FFFF22125565
:105B2300D3E022F0EA125327350BF583E02274F118
:105B33001207B074FE120E32852182852283ECF0A7
