:020000040000FA
:0600000002100A020605D1
:03002B00020D7C47
:03003300020A338B
:030053000205346F
:03006B000209FE89
:10008300020596010100F0FF0700080000FFFF00D2
:10009300000504000000030001FF14102700000006
:1000A30020FD000206FFFF1E3C1900004E19000050
:1000B300000000000000000000000000000000003D
:1000C3001E001E001E001E00010401000002038F1B
:1000D30085021F8602040100000201458601438652
:1000E300030401000002014186013F86040401006C
:1000F3000002013D86013786050401000002013933
:1001030086013B8601040000BF14000000E80300E1
:1001130000FFFF10150188130000E80300006400CE
:100123006400B801A0BB0D00A0BB0D0002020207D2
:100133000401051E02051E020A0A01010808010343
:10014300B80B02803E0102FEFFE8030A050001FF2F
:10015300FF020A011401E002000000050301010F80
:10016300952A00000000CB2900000000FF000000DA
:10017300FF00121056604612101A603DE9687008BD
:10018300F618F618F618F622748067F71201A90913
:100193000909748067F72212101A601D1210567035
:1001A30005191919801A120EF5701F120F09C37061
:1001B30003E66733191919400718181822080808A5
:1001C30074FFF618F618F618F622120F09601712C4
:1001D30010B7702192F01210C97019501720F01443
:1001E300080808090909E7F61819E7F61819E7F6E0
:1001F3001819E7F6221210C960E6E869701F0808AB
:10020300E62480F608E436F618547FB47F0CE654EF
:10021300806007F6E418F618F622181822E9C6CC0F
:1002230008C6CD08C6CE08C6CFC0E0E8C0E0EAC025
:10023300E0EBC0E009E9F809E7FA09E7FBE6F9189A
:10024300E6F8C3EC98ED99EE9AEBC2E7F5F0EFC24E
:10025300E795F0500E600CEBCFFBEACEFAE9CDF94F
:10026300E8CCF8EAA2E7D2E7FAEB33FB13F5F0EEBA
:10027300A2E7D2E7FEEF33FFC5F013A2E730E601B2
:10028300B313C5F0C3C0E0C0F07F00C39BFB605E47
:100293009418600F401D14601AD0E023F9D0E0F8E1
:1002A30002037B8AF0E9486003D2F0E4AFF0FAF985
:1002B300F8803BEB30E40D89F0EA6003D2F0E4AF61
:1002C300F0F9CAF8EB30E30D88F0EF6002D2F0AF3B
:1002D300F0E4CAC9F8EB54076014FBC3EA13FAE964
:1002E30013F9E813F8EF135002D2E0FFDBEDD0E08F
:1002F300C0E030E739C3E49FFFF5F0EC98FC42F02F
:10030300ED99FD42F0EE9AFE42F0D0E0F9D0E0F82C
:10031300E5F0607AE923F9EE20E742D8028067C36B
:10032300EF33FFEC33FCED33FDEE33FE80EAEC28D4
:10033300FCED39FDEE3AFED0E023F9D0E0F84002BF
:10034300801BC3EE13FEED13FDEC13FCEF13500201
:10035300D2E0FF08B800067F7F74FF802EEF335092
:10036300178CF020F00260100CBC000C0DBD0008CF
:100373000EBE000408E860DFE933E813FFEE231341
:10038300FE4F4D4C8008E95480FFE4FEFDFCEE3344
:10039300EF33F47004FCFD7E80D0E0FBD0E0FAD0B4
:1003A300E0F8D0E0CFC618CEC618CDC618CCC6F933
:1003B300220012101A604F1210566012E754806622
:1003C300F6120EF570111210B7703B090909F4F615
:1003D30018F618F618F622120F0970151210C9082C
:1003E300080860EAE6447FF618768018E4F618F603
:1003F300221210C960161210B77012E4F608F6083C
:10040300F608E65480F609090918181822EAC0E02C
:10041300EBC0E0ECC0E0EDC0E0E687F0A4FBACF09D
:1004230008E687F0A42CFCE435F0FA1809E687F017
:10043300A42C4B60027401CA35F0FCE433FB09E6DB
:1004430087F0D2F7A42CCB35F0FC1908E687F0A48B
:100453002BCC35F0FBE433FD0819E687F0D2E7A493
:100463002C4ACB35F0CD3400FC09E687F0D2E7A463
:100473002DCC35F0FDE433FA0918E687F0D2F7A462
:100483002CCD35F0CA3400FC08E687F0D2E7D2F76A
:10049300A42ACC35F07A7E20E70B0ACB33CBCD33BD
:1004A300CDCC33CC33CB3350147004ED30E00ED2CB
:1004B300F1E4CD3DCDCC3CCC3B5005DA05C2F1EBAC
:1004C300547FC63308E63392F0FBE73309E733C3BF
:1004D3009A502D2B70190C0D4C4D70151806E6080B
:1004E300C333700D20F10AA2F013F6E418800B4019
:1004F30024E4F630F002768018F618F618F6802415
:10050300D33B14501074FFA2F013F6187680E4184E
:10051300F618F6800FA2F013F618E63303F618EC7C
:10052300F618EDF6D0E0FDD0E0FCD0E0FBD0E0FA29
:1005330022C0E074F11208EAA2AFE433F509D2AFA6
:1005430085A708AFA1EF5508FE74105E600612136D
:100553009675A1EF74085E600812139C75A1F7806D
:1005630024EFA2E092F0E508A2E082F05017906138
:1005730098E0F8900614E0C398A2D265D0335002F5
:10058300E8F075A1FE752300E509A2E092AF7F02B2
:100593000209A6C0E074F21208EAA2AFE433FED265
:1005A300AF9061A4E0F8759B00E59158540860088A
:1005B3007591F71213EA8023E5915854106008757A
:1005C30091EF1213F08014E591A2E092F0E8A2E01B
:1005D30082F05007E0C2E0F01215529061A3E0F8F8
:1005E300E5E9585404600E12152875E9FB906193F0
:1005F300E0A2E640F2752300EEA2E092AF7F010293
:1006030009A6C0E074F21208EAA2AFE433FED2AF47
:100613009061A5E0F8E5BF585404600675BFFB126E
:10062300156A80D1C3E498F8E499F9120668802624
:10063300C3E49AFAE49BFBE920E7E9120668E4982D
:10064300F8E499F922C3E498F8E499F9120668E406
:1006530098F8E499F9C3E49AFAE49BFB22EB20E7C8
:10066300CFE920E7E0B90010BB0008E88AF084F87E
:10067300AAF022E4FBC8FA22EB70227B10C833C82D
:10068300C933C9335007C39AC3DBF280069A5001BA
:100693002ADBEAC833F4C8C933F4C9FA2275F0086F
:1006A300E4C833C8C933C933C99AC99B5004C92A9A
:1006B300C93BD5F0ECFBC833F4C8E4C9FA220808F7
:1006C30008EAC0E0EBC0E086F0E7A4FA180986F078
:1006D300E7A42AFA180986F0E7A42AFA180986F08B
:1006E300E7A42AFA1986F0E7A4FBE5F02AFA190829
:1006F30086F0E7A42BFBE5F03AFA190886F0E7A4A5
:100703002BFBE5F03AFA18180986F0E7A4C5F02B9D
:10071300FBE43AFA1908E7C5F0C6A426F6E5F03B70
:10072300FBE43AFA1886F0E7A4F6E5F00826F6E4C7
:100733003B08F6E43A08F6D0E0FBD0E0FA22E4CF37
:10074300C0E0E4CEC0E0E4CDC0E0E4CCC0E075F0AE
:1007530020E626F608E633F608E633F608E633F62F
:10076300181818EC33FCED33FDEE33FEEF33FFC303
:10077300EC9709ED9709EE9709EF97191919400FAF
:10078300FFEC97FC09ED97FD09EE97FE191906D5C5
:10079300F0BFECF709EDF709EEF709EFF7191919AF
:1007A300D0E0FCD0E0FDD0E0FED0E0FF222521C563
:1007B30082C0E0E52234FFC583C0E0E521C3958212
:1007C30024F810AF0885832285822180088583223F
:1007D300858221D2AFCEF0A3E520F0A37808E60806
:1007E300F0A3DEFAEFF0A3E58124FAF8E608F0A31C
:1007F300E608F0A3E608F0A30808E608F0A3E60875
:10080300F0A315811581D0E0FED0E0F815811581A4
:100813001581E8C0E0EEC0E0221210A2B900030285
:10082300086EE490050178AB79138002F0A3D8FC3D
:10083300D9FA78239000867A01BA00028007E493FC
:10084300A3F608DAF97AAB7B1790008778EF790182
:100853008015E493A3AD82AE838A828B83F0A3AA2F
:1008630082AB838D828E83D8E9D9E775822C758319
:10087300D97404120D5E75825E7583277400120DA0
:100883005E12089B30F0051208E08000C6CC18C643
:10089300CB18C6CA18C6F922E4C9C608CAC608CB0B
:1008A300C6D3330308CCC63392F0C3947F402E944F
:1008B300184019C9B90704CACBCC225025C309CAA9
:1008C30033CACB33CBCC33CC33D9F422F4600DC948
:1008D300CCC313CB13CBCA13CAD9F6CC22E4FCFB8B
:1008E300FA2214FCFBFA22C0D02521C582C0E0E520
:1008F3002234FFC583C0E0E521C3958224F310AF02
:10090300088583228582218008858322858221D2DE
:10091300AFC8F0A3E9F0A3EAF0A3EBF0A37908E7EB
:1009230009F0A3D8FAECF0A3EDF0A3EEF0A3EFF0F7
:10093300A3D0E0F0A3D0E0F0A3D0E0F0A3E520F053
:10094300A3E5F0F0A322E9799EC608CAC608CBC680
:1009530008CCC6C370207996CACBCC7019798ECBDC
:10096300CC70137986CC700EF9802ACA33CACB3384
:10097300CBCC33CC331930E7F2CCCBCA3350147021
:1009830004EA30E00DE4CA3ACACB3BCBCC3CCC50B2
:100993000209C3E913C6CC182313C6CB18C6CA1859
:1009A300C6F922852283852182E0C0E0A3E0F9A372
:1009B300E0FAA3E0FBA37808E0F608A3DFFAE0FC83
:1009C300A3E0FDA3E0FEA3E0FFA3E0C0E0A3E0C03B
:1009D300E0A3E0F5D0A3E0F520A3E0A3F5F010AF8A
:1009E300088583228582218008858322858221D2FE
:1009F300AFD082D083D0E0F8D0E032C0E074F212FE
:100A030008EAA2AFE433FED2AFE589A2E4500312B1
:100A130012D0E589A2E150031212D07589007589BD
:100A230000C2EB752300EEA2E092AF7F010209A69C
:100A3300C0E074F21208EAA2AFE433FED2AFE58B52
:100A4300A2E050031212D0758B00C2E880D50000DB
:100A53002275F0108E248F25858229858328852190
:100A630082852283E0CEA3E0CF852982852883EB8C
:100A7300C9EAC8EDCBECCAC3E833C8E933C9EA33E2
:100A8300CAEB33CBC3EA9EF527EB9FF526B350049D
:100A9300AB26AA27EC33CCED33CDD5F0DAAE24AFB9
:100AA300252212101A601C12105660171210C970FA
:100AB300071210B77001D322C0D01210B77006D03E
:100AC300D0B322C32233D0D0501430E0F6C3E7961C
:100AD3000809E7960809E7960809E796B32220E094
:100AE300D5E6970809E6970809E6970809E697B354
:100AF30022D083D082ECC0E0EDC0E0E493A3FCE419
:100B030093A3FDED4C600D120BCCEC24FFFCED34F4
:100B1300FFFD80EFE493A3FCE493A3FDED4C600D94
:100B2300120C69EC24FFFCED34FFFD80EFD0E0FDF7
:100B3300D0E0FCE493A3C0E0E493C0E022D083D0F0
:100B430082E9C0E0E493A3C386F0C5F095F0F90809
:100B5300E493A386F0C5F095F0700BE493A3C399D7
:100B63004005E9048002A3E475F002A42582F5821E
:100B7300E5F03583F583D0E0F9E493A3C0E0E49393
:100B8300C0E022852283852182E0A3FEE0A3F52035
:100B93007808E0A3F608DFFAE0A3FFE0A3C0E0E0F3
:100BA300A3C0E0E0A3C0E0E0A3C0E0E0A3C0E01086
:100BB300AF0885822185832280088582218583224F
:100BC300D2AFD083D082020D64C0E0C3E493960811
:100BD3007401939618400FE49366700808740193A8
:100BE300661870007019A3A3C3E493960874019365
:100BF3009618A3A3400DD0E0D0E0D0E0020B30A3C1
:100C0300A3A3A3A3A3D0E0227404800474028000EE
:100C1300CCC0E0EDC0E0E521C39CCCAD2250011D6A
:100C230010AF068C218D2280068C218D22D2AF122B
:100C33000CE0D0E0FDD0E0FC2274028000CCC0E0E8
:100C4300EDC0E0E521C39CCCAD2250011D10AF06E1
:100C53008C218D2280068C218D22D2AF120CBED026
:100C6300E0FDD0E0FC22C0E0C0F088F0E4936670C1
:100C7300080874019366187000A8F0A3A3700BD042
:100C8300F0D0E0D0E0D0E0020B30A3A3D0F0D0E06E
:100C930022D083D082CCC0E0E493A36006120D205F
:100CA3001470FAE493A36006120E631470FAD0E092
:100CB300FCE493A3C0E0E493C0E022CAC0E0E49361
:100CC300A3C582CCC582C583CDC583F0A3C582CC21
:100CD300C582C583CDC583DAE5D0E0CA22CAC0E0A8
:100CE300E0A3C582CCC582C583CDC583F0A3C582ED
:100CF300CCC582C583CDC583DAE6D0E0CA227009AC
:100D0300080808226016181818C6C333C608C63365
:100D1300C608C633C608C633C6D5E0EA22C0E0E437
:100D230093A3D39C5010E493A3C39C400AD0E0D078
:100D3300E0D0E0020CB1A3A3A3D0E022C008C3E03B
:100D430096F50808A3E096420808A3E0964208082F
:100D5300A3E09645087001D3D00822C09FF59FE415
:100D630073D09F22D083D082C09FE493C0E07401EC
:100D730093C0E0740293F59F22C0E0C0D0E8C0E0C6
:100D8300A8A8D2AFC2C7752300E8A2E792AFD0E00C
:100D9300F8D0D0D0E03200C0D0252110AF08F52123
:100DA300500C05228008F52150020522D2AFD0D085
:100DB300227404800A74038006740280027401C0E2
:100DC300E0F404120DCFD0E0121065222521F58244
:100DD30010AF08F521400C15228008F521400215BB
:100DE30022D2AF85228322BB0102E722C082C083C5
:100DF30089828A83BB0003E08002E493D083D0829C
:100E0300226016080808C6C313C618C613C618C638
:100E130013C618C613C6D5E0EA22C3E0C696F60881
:100E2300A3E0C696F608A3E0C696F608A3E0C69626
:100E3300F6222521F8E43522F9222521FAE4352288
:100E4300FB222521FCE43522FD22252110AF08F5E4
:100E530021400C15228008F52140021522D2AF2231
:100E6300C0E0E493A36C7009D0E0D0E0D0E0020CC2
:100E7300B1A3A3D0E022E76670100809E766700A01
:100E83000809E76670040809E76622E0667010083F
:100E9300A3E066700A08A3E066700408A3E0662274
:100EA300C3E09608A3E09608A3E09608A3E096A201
:100EB300D265D03322C3E7960809E7960809E79677
:100EC3000809E796A2D265D03322C3E096F008A3BF
:100ED300E096F008A3E096F008A3E096F022C3E6BC
:100EE30097F60809E697F60809E697F60809E697DC
:100EF300F622181818E60846087009E62608700551
:100F0300E633F4220822191919E70947097009E79A
:100F130027097005E733F4220922C3E49396087482
:100F23000193960874029396087403939622E0261D
:100F3300F008A3E036F008A3E036F008A3E036F0AB
:100F430022700422600D18C6C333C608C633C6D543
:100F5300E0F41822E056F608A3E056F608A3E0569C
:100F6300F608A3E056F622E627F60809E637F60860
:100F730009E637F60809E637F622E026F608A3E085
:100F830036F608A3E036F608A3E036F622E657F66F
:100F93000809E657F60809E657F60809E657F62260
:100FA300E647F60809E647F60809E647F60809E6BC
:100FB30047F622E056F008A3E056F008A3E056F007
:100FC30008A3E056F022E4C396F608E496F608E494
:100FD30096F608E496F622C6F4C608C6F4C608C612
:100FE300F4C608C6F4C622C3E09608A3E09608A395
:100FF300E09608A3E09622C3E7960809E796080956
:10100300E7960809E7962275D00075813F7521019F
:101013007522050002081CE6084608C31346083378
:101023006002E633F422600C08C6C313C618C61365
:10103300C6D5E0F422E0F608A3E0F608A3E0F6083C
:10104300A3E0F622E6F008A3E6F008A3E6F008A37F
:10105300E6F022E7094709C3134709336002E73380
:10106300F422CAC0E0E6F0A308DAFAD0E0FA22E8F4
:10107300F0A3E9F0A3EAF0A3EBF022E0FAA3E0FB8C
:10108300A3E0FCA3E0FD22EAF0A3EBF0A3ECF0A3C2
:10109300EDF022E0F8A3E0F9A3E0FAA3E0FB22E5F8
:1010A300C754F84401F5C77901222521F582E435B7
:1010B30022F58322E72719471947194722C2AF753B
:1010C300D69F02000022E62618461846184622122A
:1010D3000D672DD302120D67ECD302120D6733D7C0
:1010E30002120D6792D902120D6729DA02120D67F7
:1010F30056DA02120D67A3DA02120D672BDB021216
:101103000D67E6DB02120D6749DC02120D678DDC09
:1011130002120D6727DD02120D67A5DD02120D67AE
:10112300D8DD02120D67E6DE02120D6706DF02123A
:101133000D675ADF02120D6742E002120D6744E2A7
:1011430002120D67E6E202120D6736E502120D6721
:10115300BAE502120D67BFE802120D67F3EA021245
:101163000D672BEB02120D678AEC02120D6794ECEC
:1011730002120D67E3EC02120D67B5EE02120D6762
:1011830031F001120D67ADF001120D67E0F00112AD
:101193000D670EF101120D674CF101120D6787F314
:1011A30001120D67A6F301120D67EBF301120D6730
:1011B30081F401120D67CDF401120D6761F501127F
:1011C3000D6739F601120D6795F601120D67F3F6F7
:1011D30001120D6770F701120D67A6F701120D6773
:1011E300F1F701120D6717F801120D67A7F8011245
:1011F3000D673EF901120D678AF901120D67BBF9FC
:1012030001120D67F2F901120D6778FB01120D67E8
:1012130042FC01120D6712FD01120D678AC304120D
:101223000D67B6C304120D67D6C304120D67FDC361
:1012330004120D6744C504120D6777C504120D67C8
:1012430035C604120D67F9E804120D67FEE80412AF
:101253000D6731E904120D67EBFD01120D67B2FE54
:1012630001120D67C4FE01120D67CEFF02120D6756
:10127300D5FF02120D67EDFF02120D67F47F001216
:101283000D67E7FF01120D67187F00120D67287FB6
:1012930000120D673A7F00120D67EE7F00120D6793
:1012A30012E204120D6795E204120D67FBE20412C9
:1012B3000D6724DB04120D6757DB04120D67CADBCD
:1012C30004120D67F0DB04120D6743DC04120D6793
:1012D3009CDC04120D67D7DC04120D67DADC041200
:1012E3000D674EB804120D675CB804120D67D5B8CC
:1012F30004120D67ADB904120D6770BB04120D67BC
:10130300E5BB04120D6761BC04120D67F87F001280
:101313000D6713D704120D674BD704120D67A5D8B9
:1013230004120D6729D904120D67D1AA04120D679F
:10133300FDAA04120D6741AD04120D6781AD0412BD
:101343000D67C1AD04120D67D5AD04120D67EEAD87
:1013530004120D67E0AE04120D6785AF04120D672A
:1013630099AF04120D67E4DC04120D6708DD041263
:101373000D6721DD04120D6753DD04120D6783DD54
:1013830004120D67B0DD04120D67BADD04120D6798
:101393001CDE04120D672BDE04120D6735DE04120A
:1013A3000D6742DE04120D67E7CF04120D6707D005
:1013B30004120D6746D004120D6761D004120D6745
:1013C30080D004120D67E6D004120D67EFD004122B
:1013D3000D674CD104120D675BD104120D677FD1E9
:1013E30004120D6740D204120D674DD204120D672B
:1013F3005ED204120D673FE904120D6757E9041228
:101403000D6783E904120D676D7A00120D67C17BC6
:1014130000120D67CF7B00120D67E27B00120D6790
:10142300F77B00120D670C7C00120D671F7C001206
:101433000D67937C00120D67F87C00120D67807DA9
:1014430000120D67FC7D00120D67C07E00120D6750
:10145300D07E00120D67DF7E00120D6734E70412A1
:101463000D6758E704120D6780E704120D67A8E7BC
:1014730004120D678CD204120D67B3D204120D67E8
:10148300D1D204120D6744D304120D67F5C90412B7
:101493000D670ECA04120D671ACA04120D672ECA0D
:1014A30004120D674CCA04120D6756CA04120D6765
:1014B30060CA04120D6773CA04120D67FDCA0412D1
:1014C3000D6772CB04120D67A6CB04120D67F4CB24
:1014D30004120D6741CC04120D675CCC04120D6736
:1014E30066CC04120D678CCC04120D67F1CC041288
:1014F3000D6700E504120D6722E504120D67B0E5E0
:1015030004120D67B2E904120D677D9404120D678E
:10151300A79404120D67C49404120D67D7940412A0
:101523000D67ED9404120D674B9504120D678395B7
:1015330004120D677B9904120D67C09A04120D679C
:10154300F39A04120D67569B04120D67CF9C041285
:101553000D67F79C04120D670C9D04120D671C9D0B
:1015630004120D67609D04120D67BB9D04120D6785
:10157300CB9D04120D67E2E004120D67FCE0041238
:101583000D6724E104120D673DE104120D6761E16B
:1015930004120D677FE104120D6796E104120D67D3
:1015A300C4E104120D67DFE104120D67DAE50412EA
:1015B3000D671EE604120D6705C004120D6715C002
:1015C30004120D671AC104120D674CC104120D6792
:1015D3007CC104120D679FC104120D67B6C10412CA
:1015E3000D67F0C104120D6755C204120D6797C24F
:1015F30004120D67D6C204120D6707C304120D67E8
:1016030032C304120D674CDE04120D675EDE041252
:101613000D6772DF04120D6775DF04120D6714E4A2
:1016230004120D674AE404120D6760E404120D67A7
:10163300A2E404120D67B2E404120D67F6E4041287
:101643000D67FB9D04120D673E9E04120D67A39E5A
:1016530004120D67C09E04120D67629F04120D678A
:101663006B9F04120D67B09F04120D67D99F04127C
:101673000D67E69F04120D6761A004120D67ECA0CD
:1016830004120D6731A104120D677CA104120D67CA
:10169300E1A104120D6704A204120D6775A20412DE
:1016A3000D67CAA204120D6705A304120D673AA3BE
:1016B30004120D674CA304120D675EA304120D6799
:1016C3007DA304120D6786A304120D6739A40412C7
:1016D3000D677CA404120D67BAA404120D6742E8D7
:1016E30004120D67A2DF04120D67DDD404120D6727
:1016F30013D504120D675BD504120D67B4D604121B
:101703000D67D1DB03120D67EADC03120D6724DDDD
:1017130003120D67D2DE03120D6700DF03120D679C
:1017230066E103120D67A6E103120D674AE3031294
:101733000D67DAE303120D672EE403120D67D0E49D
:1017430003120D6712E503120D6754E503120D67CB
:10175300B1E603120D67FFE703120D6736EA0312C2
:101763000D6764EA03120D678BEA03120D6794EAAF
:1017730003120D67EBEA03120D6786EB03120D6785
:101783008EEE03120D6715EF03120D678CE604123C
:101793000D67A4E604120D67AEE604120D6702E7B7
:1017A30004120D675FFB02120D6775FB02120D67D2
:1017B30016FC02120D6755FC02120D6772FC021231
:1017C3000D67A3FC02120D67F0FC02120D6723FDE7
:1017D30002120D675EFD02120D6759FF02120D67BB
:1017E300C1FF02120D6714E304120D6773E30412C1
:1017F3000D67B1E304120D67F2E304120D67008075
:1018030002120D670C8002120D676E8002120D67C3
:10181300788002120D67098102120D674581021259
:101823000D672E8202120D67418202120D678E82AE
:1018330002120D671D8302120D67538302120D6797
:10184300CE8302120D679D8502120D6797870212E0
:101853000D67758802120D67938902120D67D98B84
:1018630002120D671C8D02120D67CB8D02120D67DC
:101873006B9202120D675F9302120D6703940212BB
:101883000D67289402120D67C49402120D67D99450
:1018930002120D67FD9402120D676B9502120D671C
:1018A300889502120D67B29502120D6748970212CE
:1018B3000D67699702120D670F9802120D6757980B
:1018C30002120D67AC9802120D674C9902120D6754
:1018D300B09902120D670E9A02120D67B79A02129F
:1018E3000D67259B02120D67589B02120D67C69B5D
:1018F30002120D67019D02120D67779E02120D679A
:10190300149F02120D6752A102120D67BBA10212AE
:101913000D67E5A102120D6701A402120D67A8A6C7
:1019230002120D67D1A702120D67E6A404120D6718
:10193300A5A604120D678CA804120D67B2A80412A1
:101943000D67C5A804120D67EBA804120D6768A9FB
:1019530004120D6708AA04120D6796AA04120D67F4
:10196300BFFF03120D6775BC04120D672FBD041270
:101973000D6795BD04120D67B6BD04120D6787BED2
:1019830004120D670DC703120D673CC703120D67E1
:10199300B4C703120D67B7C803120D6713C9031247
:1019A3000D678ACA03120D67A6CA03120D67F8CA28
:1019B30003120D673BCB03120D674ECB03120D676A
:1019C300A0CB03120D675BCC03120D67D5CC0312BA
:1019D3000D67FFCC03120D6737CD03120D67B3CE2E
:1019E30003120D678CCF03120D67D5D003120D6759
:1019F300A8D103120D6730D203120D6778D20312F8
:101A03000D6792D203120D67D9D203120D67F9D273
:101A130003120D678FD303120D6715D403120D67DD
:101A23006FD403120D67B3D403120D6744D70312A7
:101A33000D6767D803120D67A3D803120D6795D9F5
:101A430003120D67BDD903120D67C0D903120D67C9
:101A5300CAD903120D67DDD903120D675CDA0312CD
:101A63000D6792DA03120D67BEDA03120D67E5DA2A
:101A730003120D6709DB03120D677ADB03120D678F
:101A830088DB03120D67BBDB03120D67CDE704127E
:101A93000D67D9E704120D670DE804120D67FAFF0D
:101AA30001120D67F3B003120D6716B103120D6730
:101AB3005CB203120D67A5B203120D670DB30312D7
:101AC3000D676BB303120D676EB303120D67BAB3E1
:101AD30003120D672DB403120D67B5B403120D671E
:101AE300B8B403120D6742B503120D6783B5031231
:101AF3000D6766B903120D67FFBA03120D675DBB6D
:101B030003120D67D8BE03120D6711C003120D67D0
:101B130080C103120D671EC203120D6729C303128E
:101B23000D677AC503120D6764EF03120D670EF09C
:101B330003120D6774F003120D678DF003120D6726
:101B4300A18F04120D675FF103120D67AFF103124A
:101B53000D6716F203120D678FF303120D678AD216
:101B630002120D6742F503120D6748F703120D6762
:101B7300F1F703120D679AF803120D675CF903126C
:101B83000D6705FB03120D67ADFC03120D675EFDC8
:101B930003120D6776FE03120D67008003120D67B3
:101BA300748003120D67BC8003120D67008103125A
:101BB3000D67F7D102120D67938103120D67CB8175
:101BC30003120D67498203120D67A38203120D6787
:101BD300F78303120D67888403120D67E0840312F1
:101BE3000D67FA8403120D67228503120D677A8548
:101BF30003120D67E98703120D67088803120D6747
:101C0300EC8803120D671C8A03120D67998A03126D
:101C13000D67E88A03120D67498B03120D67EF8B7B
:101C230003120D67BD8D03120D67BD8E03120D6781
:101C33003B9003120D671C9203120D6782940312EB
:101C43000D67329603120D67029703120D677097A3
:101C530003120D67879703120D677F9803120D67B1
:101C63006F9903120D67DA9903120D67FCCC041206
:101C73000D6748CE04120D6705CF04120D6769CFB7
:101C830004120D67CFC604120D67EAC604120D676E
:101C93002EC704120D6754C704120D677AC70412C6
:101CA3000D6792C704120D67F5C704120D670AC8C2
:101CB30004120D672DC904120D6736C904120D678E
:101CC3003FC904120D6748C904120D6752C90412B3
:101CD3000D67ADAF04120D67ACB304120D67B1B35A
:101CE30004120D67B3B304120D67B1D904120D6763
:101CF30086E904120D679AE804120D67AAE8041234
:101D03000D671AB404120D67FEAB02120D6731ACF6
:101D130002120D679DAC02120D6738AD02120D67FA
:101D2300D5AD02120D671AAE02120D673CAE021258
:101D33000D6755AE02120D677BAE02120D679DAEA5
:101D430002120D67DBAE02120D671FAF02120D67A1
:101D530041AF02120D67A3AF02120D676AB0021200
:101D63000D6721B102120D6793B102120D675EB2C6
:101D730002120D67B1B202120D6717B302120D679B
:101D830051B302120D67A3B302120D6711B402120D
:101D93000D677CB402120D677FB402120D6700B5A4
:101DA30002120D6797B502120D6717B602120D677F
:101DB30036B602120D679AB702120D67A7B7021261
:101DC3000D67B3B802120D67C0B802120D67C9B828
:101DD30002120D67A1BA02120D67BBBB02120D6797
:101DE30034BC02120D67A6BC02120D67C8BC0212F6
:101DF3000D675CBD02120D6730BF02120D6707C38A
:101E030002120D671BC302120D672BC302120D676B
:101E130035C302120D673EC302120D6747C3021298
:101E23000D6751C302120D677EC302120D67A7C36C
:101E330002120D67B2C302120D67D6C302120D67F9
:101E4300FAC302120D6764C402120D67AAC4021218
:101E53000D67C7C402120D6744C502120D677BC527
:101E630002120D67BAC502120D6707C602120D678B
:101E73008DC602120D675BC802120D67DEC802121F
:101E83000D67C2C902120D6729CC02120D6782CCFD
:101E930002120D67CCCC02120D6727CE02120D671A
:101EA3005CCE02120D67AECE02120D6763CF021233
:101EB3000D6712D002120D674FD002120D67E4D0E6
:101EC30002120D6750D102120D676E2D00120D67BD
:101ED300A02D00120D67CE2D00120D67A42F001246
:101EE3000D67843000120D67DC3000120D67173266
:101EF30000120D67633200120D678C3500120D67F7
:101F03007F3800120D67CF3900120D67653A001252
:101F13000D67713A00120D67A33A00120D67263C54
:101F230000120D67D73D00120D676B3E00120D675F
:101F3300AE3E00120D672C3F00120D67493F0012A1
:101F43000D67793F00120D67AE3F00120D677E40AB
:101F530000120D67274100120D67AD4300120D6794
:101F6300CD4400120D67B84500120D673A460012C2
:101F73000D676E4A00120D67AB4A00120D67034BE3
:101F830000120D67364B00120D67A04B00120D6750
:101F9300D64B00120D67614C00120D67B94C00124D
:101FA3000D67904D00120D67494E00120D67E44E08
:101FB30000120D67EC5100120D67085300120D67F4
:101FC300AB5600120D679F5700120D67A257001200
:101FD3000D67D15700120D67D75900120D67B05A1C
:101FE30000120D67F35A00120D67495C00120D676A
:101FF300885C00120D67115D00120D67455D0012CC
:102003000D670A5E00120D67226000120D67936070
:1020130000120D67D36000120D67616100120D6736
:10202300836200120D67456300120D674C65001251
:102033000D67646500120D67786500120D67B06562
:1020430000120D67DE6500120D675D6700120D67F4
:10205300826800120D67DF6800120D679169001234
:102063000D67B86900120D677F6A00120D67176B61
:1020730000120D673D6D00120D67726D00120D6742
:10208300D56D00120D67046F00120D67AC6F00125F
:102093000D67DD6F00120D67F56F00120D67847019
:1020A30000120D67387300120D67107500120D676B
:1020B3002C7500120D67487500120D671676001215
:1020C3000D67097A00120D674F8601120D6781862D
:1020D30001120D67708A01120D67BC8A01120D6728
:1020E300028B01120D67A48B01120D67008C011284
:1020F3000D67458C01120D678C8D01120D67A08E43
:1021030001120D678F9201120D67139301120D6770
:10211300209401120D677C9401120D676C960112D5
:102123000D67E19601120D67EB9601120D67F896A4
:1021330001120D67239701120D670A9801120D67AB
:10214300B49801120D67329901120D675299011269
:102153000D677B9901120D679D9901120D67FD9B18
:1021630001120D67C39C01120D67089D01120D67D3
:10217300859D01120D67369E01120D67689E01123F
:102183000D67AE9E01120D67EA9E01120D673A9F1D
:1021930001120D678E9F01120D67E49F01120D67F7
:1021A30030A001120D679DA001120D6718A1011245
:1021B3000D67E3A201120D67E3A301120D6708A5E2
:1021C30001120D6747A801120D675AAB01120D6783
:1021D30017AC01120D675BAC01120D670BAE011258
:1021E3000D671FAE01120D6729AE01120D6733AEE5
:1021F30001120D673FAE01120D675BAE01120D6751
:1022030006AF01120D6745AF01120D674FAF011203
:102213000D6759AF01120D67C9AF01120D6714B0F5
:1022230001120D6729B101120D6785B101120D6706
:1022330006B201120D67C5B201120D67CEB30112CA
:102243000D6702B501120D67F0B501120D6708B6EF
:1022530001120D6763B601120D6781B601120D6796
:10226300C9B601120D67F0B601120D678BB70112E3
:102273000D6751B801120D67E3B801120D675DB91F
:1022830001120D6777BA01120D6724BB01120D67A6
:102293004CBC01120D679CBC01120D6700BD0112FD
:1022A3000D6762BD01120D6790BD01120D67B4BDCC
:1022B30001120D67E9BD01120D671ABE01120D6708
:1022C3004DBE01120D676DBE01120D67D5BE011221
:1022D3000D67C9BF01120D6724C001120D674DC000
:1022E30001120D67D5C001120D6758C101120D67A8
:1022F30083C101120D6768C201120D674AF0021211
:102303000D6782F002120D67A3F002120D67E5F06C
:1023130002120D6747F102120D6751F102120D67A8
:1023230061F102120D679CF102120D677CF5021236
:102333000D6769F702120D674FF902120D67E6F98F
:1023430002120D6788FA02120D676AC401120D6743
:10235300E8C401120D6744C501120D678FC5011250
:102363000D67AAC501120D67D5C501120D67F2C528
:1023730001120D67FEC501120D6795C701120D67A6
:10238300AEC701120D6733C801120D6746C80112AB
:102393000D6765C801120D6709C901120D678ACA65
:1023A30001120D673DCC01120D67D3CC01120D67ED
:1023B300D6CC01120D6746CD01120D6764CD011213
:1023C3000D67FBCD01120D6743CE01120D6746CE9B
:1023D30001120D670CCF01120D6779CF01120D6742
:1023E3009FCF01120D672AD001120D6748D0011249
:1023F3000D678ED001120D6742D101120D678CD18A
:1024030001120D67BBD101120D6718D201120D67BE
:102413004DD201120D6779D201120D6787D20112D5
:102423000D67D4D201120D6744D301120D678DD30A
:1024330001120D67D9D301120D6705D401120D677F
:1024430010D401120D672ED401120D6719D5011294
:102453000D6723D501120D675ED501120D676ED589
:1024630001120D6777D501120D67CBD501120D67E8
:10247300DFD501120D670ED701120D6725D70112A3
:102483000D673AD701120D67C8D701120D670DD832
:1024930001120D6799D801120D67A4D801120D67B7
:1024A300E6D901120D6701DA01120D674DDA011247
:1024B3000D67BCDA01120D67F5DA01120D670FDB48
:1024C30001120D6751DB01120D6721DE01120D6749
:1024D300CEDE01120D673BDF01120D677BE10112B6
:1024E3000D6793E101120D6796E101120D67A2E1F9
:1024F30001120D67B6E101120D67BEE101120D670E
:10250300F1E101120D67F3E201120D677AE30112A3
:102513000D67EAE301120D676CE401120D672DE507
:1025230001120D674CE501120D67EDE501120D6710
:102533004AE601120D674DE601120D677AE60112B4
:102543000D678FE601120D6703E701120D6752E86D
:1025530001120D6758E901120D67E3E901120D67D6
:10256300FEEA01120D67C6EB01120D67F7EB0112CC
:102573000D671AEC01120D6723EC01120D6752EC83
:1025830001120D67E2EC01120D6798ED01120D6760
:102593000DEE01120D67B4EE01120D6729EF011262
:1025A3000D6760EF01120D679EEF01120D67D4EF07
:1025B30001120D6749D202120D67A58E04120D6731
:1025C300CF8D04120D67D88B04120D672B8B041269
:1025D3000D67BD8A04120D67C3B003120D67B9B04E
:1025E30003120D674EB003120D67A2AE03120D67FF
:1025F30060AE03120D6780AD03120D67BDF40312C5
:102603000D672AD202120D676AAD03120D672BAD57
:1026130003120D67E2D102120D67B7D102120D67E3
:1026230086AC03120D6780A903120D676EA7031210
:102633000D673BA703120D67D6A603120D6769A6A4
:1026430003120D6728A603120D6761A503120D6718
:10265300FCA403120D67A7A403120D674AA4031277
:102663000D6721A303120D67BEA203120D6708A213
:1026730003120D6703A203120D67F7A103120D677F
:10268300AA9E03120D67849E03120D67299E0312EF
:102693000D67379404120D67FF9304120D67A89317
:1026A30004120D67119204120D67539104120D6702
:1026B300B69004120D67AC9004120D67D49D0312FB
:1026C3000D67959D03120D67829D03120D6756904A
:1026D30004120D67779D03120D67539D03120D6757
:1026E300629B03120D67E19A03120D67498103127E
:1026F3000D679D9A03120D67429004120D67719A3C
:1027030003120D675F8A04120D67218A04120D6795
:10271300F48904120D67C08904120D675F890412DE
:102723000D67478904120D67238904120D67EC8531
:1027330004120D67B88304120D679F8104120D679D
:102743002E8104120D67DD8004120D679780041239
:102753000D67008004120D6709F10300000080FB80
:10276300E4738F0001007A188700010078183500A0
:1027730004004118250002004518260002004718EE
:1027830027000200491828000100531829000100FE
:102793005418840004009B1586000100B9172A0011
:1027A300010055182B00010056182C0001005A187F
:1027B3002D000800A7152E0001005B182F00010053
:1027C3005C18300001005D18310001005E18320012
:1027D3000100AF1533000100B015340001005F188C
:1027E30036000100B11538000100601839000100FE
:1027F300591883000200761863000100BD156400B8
:10280300010057186500010058186D000100BE153E
:10281300710008009F156600010075184300010050
:102823006618440002006718450001006918460055
:1028330002006A1847000800B515480001006C182B
:102843004B0001006D18040001007918A10001007C
:102853007D18370001007C18880001007B183C00BC
:102863000100B2153D0001006118490002006E1815
:1028730067000100BF154D00020070184E000100F3
:1028830072184F00020073183E00010065185100D2
:102893000100B315520001006318530001006418CE
:1028A30054000100B415000000000000000136369A
:1028B30001010001020100010301000104010606F8
:1028C30005020000070100340801000F090401019B
:1028D3000D0100FF0E08000017020000190100FFA0
:1028E3001A0100011B0100FE1C0100081D0200006B
:1028F3001F01000120010001210200002301000F3C
:10290300240200002601000127010008280200FF1D
:102913002A0100072B0102402C0100002D010001B8
:102923002E0100012F0100FF30010B1D31080000B3
:102933003A0100083B01000F3C0100013D0100FF8B
:102943003E04000042040000460400004A04000064
:102953004E04000052040000560400005A04000014
:102963000000000020014A86000001002001498682
:102973000000020020014E860000030020014B8668
:102983000000040042016085000005004201C38489
:10299300000006004201B2840000070030014C86AB
:1029A300000000404201B2840000FDFF2101478680
:1029B30003000000212390140600000010278C144C
:1029C300060003F02123E717010371030103010349
:1029D30001030103010322030203010310030003A4
:1029E300000300030003000300030003420300038A
:1029F3002403060300030003040312032503230334
:102A03002503230304030403000300030003440317
:102A1300000300032303000365032100350381033F
:102A2300000305030003000300030003250323033E
:102A330003027102300160021102700201020202FC
:102A430002028002100261023A0041006302730233
:102A53007202620243020002130238000002000203
:102A63000402120200020002000200020402040235
:102A7300370037003C024402000239000002000222
:102A8300650200023502810200020502820283020E
:102A93000002030071003001600011007000310278
:102AA3002003500480001000610000001400630044
:102AB3007300720062004300000013000600000070
:102AC30000000400120000000000000000000400E9
:102AD3000400370037003C024400000000000000FF
:102AE30000006500000035008100000005000000C3
:102AF30083000000010171010101010111010101C4
:102B03003101010101018001100161013B00140049
:102B130063017301720162014301000113010601A4
:102B23003D01350004011201000100010001000113
:102B330004010401330133013C0144013201360035
:102B4300000100016501000135008101000105015B
:102B530082018301000136000100060000000F001E
:102B630000000000000000000000000003FFFF0061
:102B7300000403FFFF0000FFFF0FF4010005C4047E
:102B83000320000100000B00000000000000000310
:102B9300010F000000000000000000000000000022
:102BA3000000000000000000000000000000000022
:102BB30000000000E8181219EE181C18F418181970
:102BC300F4182419FA181C18F418181900191C18E9
:102BD3000000000006191C1800000000000000009F
:102BE3000C191C1800000000000000000000000089
:102BF30000000000000000000000000000000000D2
:102C030000000000000000000000000000000000C1
:102C13000000521B0100521B0200C81A0280C21A94
:102C23000300CE1A0400D41A0480DA1A0500E01A4D
:102C33000600EC1A3100FE1A3300041B34000A1B91
:102C4300FFFF000007ECFDFDFDECDCDCCCBCACAC15
:102C53009C9C8C7C7C6C6C5C5C5C4C4C3C3C2C2C61
:102C63001C1C0A4021020A210516210710210CF21F
:102C7300200DFE20FF000000160F00000B150B02B5
:102C83000002220F3300000E0F0600000010278EF3
:102C930014060003F02123EB175A69674265654167
:102CA3006C6C69616E63653039D0D1D2D3D4D5D61B
:102CB300D7D8D9DADBDCDDDEDF0600000010278D94
:102CC30014060003F02123E9170600000010278FE4
:102CD30014060003F02123ED17150AF4D4C0A595BB
:102CE3008272636155504900034D4C4651181A25B1
:102CF30005020001191618161618230300303017A1
:102D0300181921301B1D1F30003C40423A3F3F3908
:102D13002F4730303016181920231A1C1E300C0E82
:102D2300020B040B0A0708000F0204020101010150
:102D330009020600000010279214E803000000BEF9
:102D4300040AF6FBE803472CDC2C01000300120005
:102D5300030D0A020C020402030108090428020CF1
:102D6300051008150600FF091E1EFFC082C083124E
:102D730011809015E874E2F0A3741EF09015EA74C4
:102D8300E8F0A3741EF09015EC74EEF0A3741EF03B
:102D93009015EE74F4F0A3741EF0025AA974F7129E
:102DA30007B09015DCE4F0E99015DBF07CB57D15F8
:102DB3007ADD7B151217F890186CE09015E5F0900A
:102DC30015E6749FF0A37415023D3674F01207B034
:102DD300EAFEEBFF54807003022F3F9015DB123D98
:102DE300CB7003022F38EA241B125636707CEA2478
:102DF3001F12563664137002A3E0706E8A828B83AF
:102E0300122F8D9015F6124BC8750A00750B0080B2
:102E13000D123C0C126CA81216FCAA0EAB0FEA4B57
:102E230060488A828B83E0650C7004A3E0650D70B3
:102E33002C8A828B83A3A3A3A3E0F50EA3E0F50F53
:102E4300E50A450B8A828B83A3A3A3A360C3123F26
:102E53000E850A82850B83A3A3A3A380B78A0A8B5B
:102E63000B8A828B83124BC480B4E508242A125642
:102E730036FCE5082402F8E43509F9E8FAE9FB90A1
:102E830015F6123074A3A3E06402703C8A828B832C
:102E9300124BC8800B88828983A3A3A3A3123F0E7E
:102EA300E849601F88828983E06A7003A3E06B703E
:102EB300E488828983A3A3E06C70DA9018721259B4
:102EC30066806BECF9121F1E850882850983E06416
:102ED30001704FE5082418122F76120DC0126250AC
:102EE300120C0BE5082412122F76120DC0E50812FE
:102EF3003DBF120DBCE508240B126254120C0FE502
:102F0300082417123D5CE5082402FCE43509FDE5BD
:102F1300082419FAE43509FB12273A740A120D99A9
:102F2300800CE064027007AA08AB09121FFCAA0810
:102F3300AB09121666EEFAEF6480802DEA54026044
:102F43000C9018857401F0EA6402FA8023EA5408AD
:102F5300601A121F18EA4B700B9015F812612B7A46
:102F630008122F83EE6408FAEFFB80047A007B00DB
:102F73000268DAF582E43509F583E0F50A780A2276
:102F8300FB9015DBE0F91217C822A3A3E0F50CA30D
:102F9300E0F50D227B009015DBE0F91217BC7404F9
:102FA3002274F41207B08A088B098A828B83A3A345
:102FB300A31249C0123D6738F583E02409FA126869
:102FC3007270030230678A828B837402124A3585DA
:102FD3000882850983123074E8F0A3E91264EC8A4D
:102FE300828B83A3A3A3A3A3A3A3A3F0E508240332
:102FF300F8E43509123069123D673AF583E08E82B1
:103003008B83A3A3A3A3F0EE2409FAE43FFB8E82F0
:103013008F83A3A3125C18F5838882E0A2E58E82D6
:103023008F83A3A3A3A3A3500474018001E4F0E559
:10303300082403F5828983124BC8EA1251493BF5F0
:1030430083126839120DB8123D663B125D0A8E82F7
:103053008F83A3A31279E8120D99EEFAEFFB901573
:10306300DB1268BF8016F98882F583E0FAA3E0CA11
:1030730022124D65A3A3227402120D997F04020B41
:103083008674F21207B08A088B09ECFAEDFB740E12
:103093001210ADE0FC1211B68A0C8B0DAE0CAF0D05
:1030A300EA4F6030AC08AD091211A4E96026AC0800
:1030B300AD09EEFAEFFB1211AAE970148E828F8329
:1030C300123EFBFAEFFB12119EAA08AB091211CEB6
:1030D3007900800279B4024CB474F01207B074F62C
:1030E300120E4DEAFEEBFF8C088D09750FB3852197
:1030F30082852283E4F0750E008002050E902D6A0E
:10310300E493F8E50EC3984003023203AA0E7B0052
:103113001211F28A0A8B0BEA4B60E08A828B83A33B
:10312300A312320A28F0F8C3EE98EF940050CC7C37
:10313300157D007900AA08AB0912164E850A82850F
:103143000B83A3A3A3A3126CE5E0F8EEC398292590
:10315300E0F8E433F9E50A28F582E50B39F583A3B2
:10316300A3A3A3A3A3123D71A312578D8A0C8B0DA6
:10317300AC0CAD0DAA08AB091217F8850A82850BB2
:1031830083A3E06401700A1262507401123D8380CC
:10319300447401120E45850A82850B83124BC612B5
:1031A30011DAE9603D74091210ADE0C0E01262501B
:1031B300D0E0F074091210ADE064037013740112CF
:1031C3000E45E508240BFAE43509FB1217F88012C3
:1031D30074011210AD123F0EE50812577335091230
:1031E3006CA6850A82850B8312625C123D83A3A3BE
:1031F300E0C0E0E5082414126254D0E0F0750F003B
:10320300A90F740A0268D7A3A3A3E0F885218285D6
:103213002283E02274F71207B0E9FE8A828B83A32C
:10322300A3A3A3A3A3E0540860338A828B83A3A33D
:10323300A3A3A3A3E0540260218A828B83A3A3A345
:10324300A3A3A3A3A3A3E06406600F74E96E600ABB
:1032530074CD6E600574F06E7003121F000245B3E7
:1032630074F01207B074EF120E4D740F1210AD12FA
:10327300600F74081210ADE9F0ECFEEDFF74051257
:1032830010AD12437B12459FA3E0F91211C27406DD
:103293001210AD12600F74061210AD1251DA7003E2
:1032A30002351E123DABE0FA74061210ADE0F912BE
:1032B3001E4012357EF8A3E0F9E849700302351E7B
:1032C300EE2403F50AE43FF50BEE2406F508E43F8C
:1032D300F5097C00850882F583124BC8850A82852F
:1032E3000B83E0F91211C874031210AD12600F853D
:1032F3000A82850B83E0C0E0852182852283123513
:1033030077D0E01252EFF9852182852283123C1394
:10331300124E4112320DFAA3E0CA2407F582E43AB1
:10332300F583E8F0A3E412601A2406F582E438F585
:1033330083E4126CB21249B4120DB8EE123D673F2A
:10334300125D0A74031210AD1249C024091279E206
:10335300120D9974291210AD126CDF12306E1253D4
:10336300023A126CA6742B1210ADE0C0E0852182E4
:103373008522831251A1D0E0F074021210ADE4F063
:1033830074251210AD7808121038023475740312C4
:1033930010AD125CD28882F583123566A3A3A31203
:1033A3005798FB1211E0850E82850F83A3EAF0A3E1
:1033B300EBF074031210AD123577A3123566125970
:1033C300A7A2E6500F850E82850F83A3A3A3A3A311
:1033D300E0D2E1F074051210ADE0706B850E8285CA
:1033E3000F83A3123F0E901636E0687003A3E069C3
:1033F3007055850E82850F83A3A3A3123D46750CDA
:1034030000780C120DC07808120DB474291210AD97
:10341300E0F50C780C120DC074271210AD120C0FCE
:10342300901643120C0F790074191210AD124B98B9
:10343300122044740A120D99850E82850F83A3A36B
:10344300A3A3A3E04405F074021210ADE004FC8EC4
:10345300828F83124BC28E828F83A3A3A3E0F912C0
:1034630011C874031210AD12600F74021210ADE094
:1034730004F074031210AD1251DA60677402121073
:10348300ADE0FA74061210AD123F0EC3EA98E49948
:10349300505174021210AD12385085218285228357
:1034A300E028F8A3E039F9E8240FF50EE439F50F25
:1034B300850E82F583E4F074031210AD1235716446
:1034C30001600302339074051210AD74011268C5D4
:1034D300F074031210AD125A99123873E8F0A3E98D
:1034E3000233B4852182852283124BC8121E46857E
:1034F3002182852283120C0F74261210ADE0FD7415
:10350300251210ADE0FC740A1210ADE0F9EEFAEFEB
:10351300FB121EFA7402120D9980438E828F83A3CD
:10352300A3A3E0C0E0740C1210ADD0E0F012672E3C
:10353300E0C0E0740D1210ADD0E0F074061210ADCF
:103543001251DA7009740E1210AD74B98007740E3B
:103553001210AD7410F07409120E3D12203E741156
:103563000268D7E0850E82850F83A3A3A322E0120E
:1035730052C7E022E01252C7A3A3228521828522EB
:1035830083EAF0A3EB1251E32274F01207B074E163
:10359300120E4D74041210ADE9F074031210ADEC69
:1035A300F074021210ADEDF08A0E8B0F742F12100F
:1035B300AD122F8FAA0CFB121E3474011210ADE949
:1035C300F0AA0CAB0D121E3A74011210ADE0700399
:1035D30002384B852182852283E480158E828F8376
:1035E300A3A3A3A3A3E0D2E3F0852182852283E0F2
:1035F3000412681DF8852182852283E0C398400365
:1036030002384274011210ADE07003023842852182
:1036130082852283123850E50C28F8E50D39F9E844
:10362300240FFEE439FF8E82F583A3A3A3A3A3E0B3
:10363300A2E040B5750800750A08750B0074021204
:1036430010ADE060037508207C087D0079007405E7
:10365300120E3D12164E8E828F83E0603E901686C8
:10366300E06401701AE508D2E3F508750B1012380F
:10367300601210ADE8F0A3E912568B74FF80764315
:10368300080C750A0C8E828F83A312386B126CA8F8
:1036930074051210AD74FFF0A3805A74041210ADB8
:1036A300E06009E508D2E6F508750A0A8E828F8381
:1036B300A3E064FE7003A3E0F4703074121210AD43
:1036C300740412627AF8741D1210ADE8124A35744C
:1036D30012120E3D121D627D007C007900741512DA
:1036E30010ADAA82AB83121B3A800B123860121002
:1036F300ADE8F0A3E9F074071210ADE508F0123D50
:10370300A2C0E074091210ADD0E0F0740A1210AD3B
:103713007401F07405120E3D12200274111210ADE3
:10372300E06003023820740D1210AD1252EA8E824B
:103733008F83A3A3A3A3F0740D1210AD124A03E564
:103743000AF0A3E50BF074031210ADE0C0E01249D8
:1037530094D0E01259A76011901686E0C0E0740D72
:103763001210AD1249DED0E0F0740D1210AD123F0D
:103773000E850C82850D83A3A3A3A3A3123859241A
:103783001C126009126CC212385B12595939126744
:103793004DC0E012497BD0E0126812C0E0740D12F4
:1037A30010AD1244C1D0E0126513C0E0740D1210C5
:1037B300AD1244B7D0E0F0740D1210AD12386B1295
:1037C3003859242A126009850E82850F83A3A3A387
:1037D300A3A3A3A3A3E0126002123D91C0E012448D
:1037E300A3D0E0F0740D1210AD124BC8850E828584
:1037F3000F831268282428F582E43B126CA6123D3D
:103803009A126839120DB8125D03EA125F9B3B12DC
:1038130079E6120D997405120E3D1220088E828FDF
:1038230083A3A3A3A3A3E0D2E0F074111210ADE02D
:1038330060030235DF74011210ADE0140235EB7939
:1038430000AA0CAB0D121F06741F0268D7E075F0B7
:1038530007A4F8A9F022A3A3124BCCE8228E828FEF
:1038630083A3123F12740522E0123873A3A3A32289
:10387300F8A3E0F9850E82850F83A32274F0120763
:10388300B074E8120E4DE9852182852283F08A0EF9
:103893008B0F8A828B83A3A3A3A3A3A3A3A3E0F980
:1038A300121E5E8A088B09EA4B700302395CE50E2F
:1038B30012515D123DBA123D51852182852283E06A
:1038C300600302395F7C04850E82850F83A3A3A363
:1038D300A3A3A3A3A3E0F9121E64EE4F607B8E8221
:1038E3008F83A3A3A3A3123F0E74071210AD12611B
:1038F30040123F0E74091210AD124A65C0E07411F4
:103903001210ADD0E01264F1A3A3A3A3A3A3A31247
:103913003F0E740F1210AD126CA874121210ADE4A6
:103923001268CDC8241FF582E438F583125CCEC437
:1039330013135403FC70027C048E828F83E0F978A6
:1039430008120DBC742059FD744059F97403120E0A
:103953003D121EFA7402120D990268D57C08850E79
:1039630082850F83A3A3A3A3A3A3A3A3E0F9121E9A
:10397300648B0BEA4B70030238DDEE4F60DB85216D
:1039830082852283E0F50C780C120DC085088285B0
:103993000983A3A3A3A3A3A3A3E0F50C780C120D9F
:1039A300C08A828B83A3A3A3E0FB8A82850B831245
:1039B30075058A82850B83E0FA8E828F83A3A3E049
:1039C300F91227407402120D990238E174F71207B5
:1039D300B074FA120E4DE9FE780179017F0080037D
:1039E30079000F124D44E0FCEFC39C5026EF75F0B5
:1039F30007A4FC85F008AD08EA2CFCEB3DFD12435F
:103A030033E0A2E050DA540C60D6E0A2E250D3785F
:103A13000080CF8A828B83A3A3A3A3A3A3E0703DDB
:103A2300E9A2E0400574016E70338A828B83A3A3FD
:103A3300A3A3A3A37401123D23E0C0E074031210F7
:103A4300ADD0E0124392E0C0E074041210ADD0E0B8
:103A5300F074051210ADE8125C6D12203E7406027C
:103A630045B0C082C0837901121F06025AA974F4BB
:103A73001207B0EA4B9018856019E4F08A088B09A5
:103A8300F50AF50B7808120DB47A02122F97120D6E
:103A930099800A7401F07A027B00122F8402307F2E
:103AA30074F01207B074F3120E4D74031210ADE4E8
:103AB300F0A3F09015F6123D5174011210ADE4F02D
:103AC300A3124A3A04F0901630E0A2E35003023BFB
:103AD30096123D1774091210AD1210727409121068
:103AE300AD78081210389015F87808120E1D740579
:103AF3001210AD7808121047123C1A74051210AD5B
:103B03007808120FEA50077A017B00023C0774051C
:103B13001210AD780C121038901871E0F509780C7A
:103B23007908120741A80CA90D901872E0C398E414
:103B3300995003E08001E8852182852283F074098E
:103B43001210AD7808121038C008C009C00AC00BA3
:103B530074051210AD780C121038123C1A780C79D7
:103B630008120741E4F50AF50BD00FD00ED00DD0A3
:103B73000C780C7908120EE19015F8780C121047A6
:103B83008011123C0C126CA8EEFAEFFB1216FCAE7D
:103B930008AF09EE4F60658E828F8312320AC39895
:103BA300502DEE2403F8E43FF9E0FA88828983E09C
:103BB300C39AF0602374031210AD1240747401129F
:103BC30010ADEEF0A3EF12615BFEA3E0FF80C48EA5
:103BD300828F83A3A3A3E4F08E828F8312799F74D1
:103BE300011210AD1251DA8E828F83A3A3A3A360B7
:103BF300911261341210AD123C13808974031210B8
:103C0300AD124BC8740D0268D7123F129015F622FD
:103C1300125CF9A3A3A3229018701279A7E4F50A02
:103C2300F50B2274F01207B08A088B09890A780011
:103C330079009015F6123D51FBEE4B601E088E8203
:103C43008F83A3A3A3A3124B92601008E87001090A
:103C53008E828F83123D4DEA4F70E3901873124B9F
:103C6300C8C3E89AE99B4003023D0A7A06123D0D58
:103C7300A80CA90DEA497003023D0A8A828B83E5E9
:103C830008F0A3E509123D2CE50AF0901872124DD5
:103C93004C123D23A3E4F0A3F09015F6124B92606F
:103CA3000D8E828F83A3A3A3A3126CA880179015F4
:103CB300F6126CA8901630E0A2E34009123D17906B
:103CC30015F8121072901630E0A2E3503A7A087B8E
:103CD300009015DBE0F91217CEEA4B4C4D7028909B
:103CE3001870E0F508A3E085080CF50DE4F50EF572
:103CF3000F780C120DB47A087B009015DBE0F912F3
:103D030017C27404120D990268DA7B001216F68A40
:103D13000C8B0D221217E0EAF8EBF9ECFAEDFB221B
:103D2300123D2722123D2CA322F08A828B83A3A368
:103D330022E508F00245B3F08E828F83A3A3A3A3E9
:103D4300A3A322125644A3A3F022A3A3A3A3E0FE9A
:103D5300A3E0FF227F05020B86F582E43509F58394
:103D6300E0F922EA123D6B222410F582E422123D8F
:103D730079A3A3A3A322123F168508828509832270
:103D8300123D8722F0850A82850B83A3A322E50EC9
:103D93002411123DB7E022E50E240E123DB722E5B1
:103DA3000E2410123DB7E022123DAF22EE123D6BFE
:103DB3003FF58322F582E4350FF58322240FF50ABC
:103DC300E43509F50B780A22E0F91216788A088B94
:103DD30009EA4B2274F21207B0890B8A088B098A0D
:103DE300828B83124BC8121F2AEA4B600479B88076
:103DF3006A121F36E9F8902D64E493F9E8C39940F9
:103E03000479B280567A15123D0DAE0CAF0DEA4F10
:103E13007004791080458A828B83E4F0A3123D2CD1
:103E2300E50BF0750A007808120DB87C127D00EAE4
:103E330024031267E4120D999015FC1251DA7008ED
:103E43009015FC800C123F0E88828983123E6170AC
:103E5300F4EEF0A3EFF0121F487900024CB4124BBA
:103E6300CCEA4B8882898322C082C0839015FC8070
:103E7300048C828D83127506EC4D60288C828D83B1
:103E8300A3A3E069600574FF6970E68C828D83A348
:103E9300A3A3E06A7003A3E06B70D6EC2403FAE4F7
:103EA3003DFB80047A007B00025AA974F71207B025
:103EB300E9FD74FE6D70047C0180027C009015FCAA
:103EC30080096D70027C01888289831251DA601F38
:103ED30088828983A3A3A3E06A7003A3E06B70E7DE
:103EE300ECA2E088828983A3A3E050D6F98002790B
:103EF300FE0245B3EEF9800CA3A31279A7EE227458
:103F030002120D997F02020B86F583123F122212D1
:103F13003F1622E0F8A3E0F922123F168E828F8328
:103F230022120D997F03020B86C082C08379009011
:103F330015FC800109E0FAA3E08A82F583E5824556
:103F43008370F1025AA974F61207B0E4F508F50973
:103F53007808120DBC902D64E49375F013A4A9F0B6
:103F6300124069126D06120D99E9FE74096E700311
:103F7300121F42023EF774F61207B074FE120E4D82
:103F8300852182852283E4F0A3F0A821A922880851
:103F930089097808120DBC750802750900780812A2
:103FA3000DBC126977120D99023F0274F51207B026
:103FB30074EB120E4D852182852283E4F0A3F090E9
:103FC30015FC80748E828F83A3A3E0C0E074021279
:103FD30010ADD0E012568BA982AA8389088A09758D
:103FE3000A007808120DB87C127D0074061210AD19
:103FF300126CCB120D997402120E35880889097858
:1040030008120DBC7508137509007808120DBC74ED
:10401300041210AD12517D75F013A4F8AAF075F0D7
:1040230013E912406512697F120D99852182852259
:10403300831240748E828F83123D51EE4F7085A898
:1040430021A922880889097808120DBC7508027510
:1040530009007808120DBC126977120D99741502C4
:104063003F24A42AF9E82402FCE439FD7A427B00C8
:1040730022E02401F0A3E03400F02274F41207B02C
:1040830074EB120E4D7E007F00A821A922880889B7
:10409300097808120DBC7508028E097808120DBC48
:1040A3007C007D007A42126D12120D99E9706C8EBC
:1040B3000880567402120E35880A890B780A120D8D
:1040C300BC750A13750B00780A120DBCE50875F070
:1040D30013A4F8AAF075F013E509124065126D14E4
:1040E300120D99E9701B74031210ADAA82AB83748D
:1040F300021210ADE0F9121F24E970050EEE7001F3
:104103000F0508E5087002050985218285228312BF
:104113003F0EC3E50898E509994098EEFAEFFB7462
:104123001502307C74F61207B08C828D83A3A31220
:104133004380F0EA125FA13BF583E0C0E012433D08
:10414300D0E0F0EA241DF582E43B123F0C12432138
:1041530012437BF0A3F0EA241FF582E43BF58312BC
:104163003D51EC1243143DF583EEF0A3EFF01243FF
:104173001A3BF58312434BA3A3A3A3A3A3EEF0A37C
:10418300EF125BFCFE8C828D8312438A74035EFE06
:10419300C394034003024307EE600874026E600396
:1041A30002422C8C828D83E0540CFE740C6E7003DF
:1041B30002426BE0A2E4400D88828983E08C828D09
:1041C30083A31243A074086E600302426B12432B55
:1041D3007401F08A828B83A3A3A3A3A31256517005
:1041E300148C828D83E0440C124392A3A312434B9D
:1041F300EEF0A3EFF08C828D83E0A2E4402B888263
:1042030012435912436E500109F582124359A3A375
:10421300A3A3A3A3F0A3EF12439A8C828D83A3A33A
:10422300A3F0E82403F850010988828983E0C0E001
:10423300EC2411F582E43DF583D0E012438A8C82AD
:104243008D83E0A2E7507588828983E0FE8C828D9E
:10425300831243A074FC5E700C8C828D83A3E054A4
:10426300036403701E02430712432BE4F0740C6EC5
:1042730060030241D6888212435F12436E500109E4
:104283000241F88C828D83A3E054036032888289D3
:1042930083E0C0E0EC1243453DF583D0E01243A137
:1042A3008C828D83E054036402701488828983E0D6
:1042B300C0E0124333D0E01243A18003A3E4F0EC47
:1042C3001251493D126CA6EC2410FEE43DFFEA2492
:1042D3001DF582E43BF583E0F5088E828F83E0C30E
:1042E300982508F508F0EA2417F8E43BF98882F5E5
:1042F30083E0C39508C0E0124321D0E0125BFCC306
:104303009508500A124321E4F012433DE4F0023FC2
:10431300072415F582E422EA240DF582E422EC2435
:104323000DF582E43DF58322EC1253023DF5832221
:10433300EC2414F582E43DF58322EC123D6B3DF54C
:1043430083222413F582E422E0FEA3E0FF8C828D16
:1043530083A3A3A3A32212435FA3A3228983E0F52C
:1043630008A3E0FFE5088C828D8322A3A3A3A3F017
:10437300A3EFF0E82402F822124380A322E4F08C96
:10438300828D83A3A3A3221243A8A882A983221206
:104393003D27A3A3A3A3221243A8A3E022A312436E
:1043A300A808A98322125C05A32274F41207B0742F
:1043B300F3120E4D8A0A8B0BECFEEDFF8C82F58314
:1043C300E0540CF508E0A2E75006E508D2E7F5084B
:1043D300E508D2E1F5081256517006E508D2E4F576
:1043E30008E0A2E55006E508D2E5F5087C087D0063
:1043F3007900AA21AB2212164E74021210ADE50801
:10440300126CACC0E074031210ADD0E0124A3AE56E
:104413000AF0A3E50BF074051210AD126518121023
:10442300ADE0707774081210AD1249C0125BEE381C
:10443300126533C0E074081210AD1244C1D0E0120B
:104443006513C0E074081210AD1244B7D0E0F074E5
:10445300081210AD1244ADE01249E8124A69126025
:1044630002EE241112561DC0E01244A3D0E0F0EE78
:10447300241412561DC0E074081210AD1249C02452
:1044830035F582E438F583D0E0124A0DC0E07408B4
:104493001210AD1249C4D0E012626C740D02307C6C
:1044A300E82432F582E439F58322123F1CA3A3A347
:1044B300A3A3A3221249D412671238F58322124907
:1044C300D42426F582E438F5832274F71207B07EEC
:1044D300008A828B83A3A3A3A3A3A3A3A3A3E064C0
:1044E30004600302458F1252FAE0600302458F1203
:1044F300515C3B1251D8700302458F88828983E057
:104503005403600302458FE812530239F583E0FA3E
:104513008C828D83A3A3E0FBA3E0CB2411F582E47B
:104523003BF583E06A706588828983A3A3A3A3A371
:10453300A3A3A3A3124593E06A7003A3E06B704C9B
:1045430088828983A3A312459FE0FFA3E0CF2406BB
:1045530012561D6A7003A3E06B703188828983A3AE
:10456300A3E0F88C828D83A3A3E0F9A3E0F583890C
:1045730082A3A3E06860138C828D83A3A3A3E0F5D9
:10458300838982E0540C640470027E01EEF980207A
:1045930012459722124BD08C828D8322A3A31245FE
:1045A30097A3A322740C1210ADE0F9740D120D99A8
:1045B3007F01020B8674F61207B074FC120E4DEAEB
:1045C300FEEBFFECFAEDFB8C82F583A3E054036072
:1045D300169015F21251DA60597900EEFCEFFD12D4
:1045E3005DF9122763804B852182852283EEF0A338
:1045F300EFF074021210AD124A2FAC21AD227A6093
:104603007B1F1221888A088B09A808A909EA496037
:10461300218A828B83A3A3A3A3A3A3A3A3A3740627
:10462300F07A0088828B831249C0125FC2E0F912CC
:1046330020E67404023F0474F21207B074F3120EFE
:104643004DEAFEEBFF8A82F583A3A3A3A3A3A3A34F
:10465300A3A3A3E0F50A901885E0700579BA02498F
:1046630078750801750900750C00750D007C087DCF
:10467300007900AA21AB2212164E74051210AD74F4
:1046830001124A425404601274021210ADE0D2E6E1
:10469300124A4254087003750803E054106006740C
:1046A300404508F508E05408602274021210ADE09A
:1046B30044C0124A425420600A74031210ADE0D27F
:1046C300E0800874031210ADE0D2E1F0EE2415127D
:1046D300561D1249A87003740169700674084508D1
:1046E300F5088E828F83A3A3A3A3A3A3A3A3E07040
:1046F300161221E285218285228312600F74021231
:1047030010ADE0D2E28030640F701074021210AD6D
:10471300124A4A74044508F508807F8E828F83A36A
:10472300A3A3A3A3A3A3A3E064028E828F83700A2F
:10473300126CDFE8F0A3E9F08060A3A3A3A3A3A313
:10474300A3A3E06403700DAC21AD22EEFAEFFB12DC
:104753001F9680468E828F83A3A3A3A3A3A3A3A3A1
:10476300E064017035901686E0601074021210AD9B
:10477300124A4A750910750AFF801874021210ADA7
:10478300E0440C124A3A74FDF0A374FFF07404453C
:1047930008F5088E828F83122F8FEE241512561D73
:1047A300A2E0503F74021210ADE0540C701B8E82D5
:1047B3008F83124BC8121C06E9700579BB02497836
:1047C30074021210ADE0D2E5F0EE241512561DA2CC
:1047D300E0501074021210ADE0540C64047004E055
:1047E300D2E5F0EE241112561DC0E074041210AD90
:1047F300D0E012651A1210ADE0600302497174082B
:104803001210AD124A03E508F0A3E509F012499E20
:10481300E0C0E0124994D0E0F0124985E0C0E074B2
:10482300081210AD1249C012434538F583D0E01287
:104833004A6964017011901686E0C0E07408121092
:10484300AD1249DED0E0F074081210AD1249FE1229
:10485300498FFAE8241CF582E439F583EA124A35D4
:10486300EE2415FAE43FFB8A82F583127506E812FB
:10487300595939F583124A2FEE241C12561DC0E0F4
:1048830012497BD0E0125A9F1249A8700374016940
:10489300701374081210AD1252EAFAEE241D125668
:1048A3001DF9121E6A8E828F83A3A3A3A3A3A3A3BE
:1048B300A3A3E0C0E074081210AD1244C1D0E0F02D
:1048C30074081210AD1244B7E50AF074081210AD63
:1048D30012517D2428F582E439F583E50CF0A3E534
:1048E3000D124A151249E8125696126002EE124949
:1048F3008FC0E0E82433F582E439F583D0E0F0EEAD
:10490300241B12561DC0E074081210AD1249C4D006
:10491300E0F0EE241A12561DC0E074081210AD1216
:1049230049C02432F582E438F583D0E0124A0D12EF
:1049330049B4120DB8126718127506740B1210AD34
:104943001249C0242F1279E2120D99EE2415125642
:104953001D544060129016121251DA600AAA21AB5C
:1049630022125DF9122763AA21AB22122008740CCC
:104973001210ADE0F9024CAFE82420F582E439F5DA
:104983008322EE2419F582E43FF58322126727E0A0
:1049930022E82412F582E439F58322EE2418F58205
:1049A300E43FF583225480F8A3E05401F97480684E
:1049B30022F508A3E0F509750A007808221249D404
:1049C300221249D42434F582E438F58322A3A3A325
:1049D300A31249D822E0F8A3E0C8221249D4124313
:1049E3001438F58322FAA3E0FBE8242AF582E4399C
:1049F300F583EAF0A3EB22A3A3A3A3123F12EE22B3
:104A030012518112516139F58322F0EE24131256AB
:104A13009E22F0EE240D12569E22E0FC8A828B83A6
:104A2300E02CFCA3E03400FD8A828B83ECF0A3ED41
:104A3300F022F0A3E4F022F085218285228322F084
:104A4300EE241512569E22E0D2E3F0124A52228E31
:104A5300828F83123F16852182852283E8F0A3E9A2
:104A6300F022E8F0A3E9126155E02274F71207B0CF
:104A73008A828B83A3E0640170047E6380027E6478
:104A83008A828B83E060087905124AA224F3FE90A0
:104A9300162EE06007F9124AA224F2FE02458F1295
:104AA30020B0E9F8EEC3982274F61207B074FE1230
:104AB3000E4D85218285228312600FE9FEECFAED0B
:104AC300FB90059B1251DA6032A821A9228808893C
:104AD300097808120DBC7D01740E1210ADE0FCEED6
:104AE300F990059B125FE31227637402120D99EA92
:104AF3004B60047900800679B2800279B6023F02E6
:104B030074F71207B0E9FE9015E81251DA601F74CA
:104B1300091210ADE0F5087808120DC0EEF99015F2
:104B2300E8125FE31227637401120D99800279B6CC
:104B33000245B374F71207B08908ECFEEDFF79B5AF
:104B4300E508245E602014600624F86034803D90FC
:104B5300059D124B926035126D231227638E828F4F
:104B63008312600F80249015EA127506EC4D601CC9
:104B7300EEFCEFFD9015EA125FE3122763E9F9807B
:104B83000B9015E6124B981217F879000245B312F1
:104B93004BCCEA4B2212750AEEFAEFFB2274F712A2
:104BA30007B0E9FE79B574AB6E700B9015E6124B46
:104BB300C81217F879000245B38E828F83A3A3A38B
:104BC300A3A3A3A3A3124BCC22124BD022E0FAA39C
:104BD300E0FB2274F11207B0EAFEEBFF8C0A8D0BA7
:104BE300750801901636E06E7003A3E06F700C1227
:104BF3004CA3AA0AAB0B1217F8805E1221E8EE6AE7
:104C03007002EF6B7009AA0AAB0B1221EE804AAC5B
:104C13000AAD0BEEFAEFFB121D3EE9F5089018788A
:104C2300E07036122674E97030E508702C90160691
:104C3300E06E7003A3E06F7020EE4F601C750CFEF6
:104C4300750D15750E00780C120DB87C087D00AA41
:104C53000AAB0B126CCF120D99A90802760274F2FB
:104C63001207B0EAFEEBFF8C088D09750A01124C9E
:104C7300A3EEFAEFFB1217F2E964017011901636F6
:104C8300123F0E850882850983126CA8800EAC083A
:104C9300AD09EEFAEFFB121D44E9F50AA90A8011EA
:104CA3001221DC8A0C8B0DAC0CAD0D22740D120D90
:104CB300997F06020B8674F61207B0EAFEEBFF7AC1
:104CC3000D7B001216F6EA4B6062EE24241269ACE7
:104CD300F0EE24251269ACA3124D711269B2A3A39D
:104CE300126745124D4CF0EE124D32124D61E8F051
:104CF300A3E9124D88124D59126CA8EE124D3B12C6
:104D03006808A3A3A3A3F0EE243312561DC0E01238
:104D13004D44D0E0126537124D59A3A3A3E8F0A385
:104D2300E9124D80C0E01252FAD0E0F0023F0724AE
:104D33002AF582E43FF58322242EF582E43FF583AE
:104D430022EA1257733BF58322124D5022E08A82E6
:104D53008B83A3A3A322126867A3A3A3A322124D49
:104D63006522123F168A828B83A3A3A3A322F01288
:104D73004D7622EE2426F582E43FF58322F0EE24DD
:104D83003212569E22F0EE242C12569E2274F412F6
:104D930007B074FE120E4DECFEEDFFEC2416125616
:104DA3001D64057010EC2406FCE43FFD121F90E91E
:104DB3007003024E3CAC21AD22126A61121C0C85B9
:104DC30021828522831251DA606B8E828F83E064A5
:104DD300017058E875F009A4F8AAF075F009E9A480
:104DE3002AF9745F28F8740339F9E8FAE9FB888231
:104DF300F5837808121038EE124EDE120FEA4027C0
:104E03008521828522831249FE12562B124E417848
:104E1300081210389085DF7808120F7D8A828B8301
:104E23007808121047800A79A28010EE240F126CC2
:104E3300A27900800679A1800279C802307A124AE9
:104E43005FEE1267332274F21207B08A0C8B0DECFB
:104E5300FEEDFFEC12562BE4F0A3F09085B3780837
:104E6300121038EC124EDE120E8E6067EC240E1216
:104E73005624703478B390162DE0702890165FE0B6
:104E830064017020EC241112561DF91220988B092D
:104E9300A909EE12515D3F12600DEA4960047800E2
:104EA300800278A18808802EE060046402700A12F0
:104EB3001FA2E9F5087007801DE064037010EEFC83
:104EC300EFFDAA0CAB0D121C30E9F508800875083C
:104ED300A180037508A3A908024CB41267337808AC
:104EE3002274F01207B074F5120E4DEAFEEBFFEADE
:104EF300240AFCE43F8C82F5831279A31251677470
:104F030003120E458A828B83125E03E97003024FFC
:104F1300CD7401120E457403120E3D121C0C740164
:104F23001210AD1251DA7003024FCDE875F009A4E7
:104F3300F8AAF075F009E9A42AF9745B28FC740354
:104F430039FDE508240E126254E4F0041210AD1288
:104F53003F0EE50812515D3509126CA68C828D83D4
:104F6300121096E50824121262541210729085DF13
:104F730078081210388C828D837808120F318C8256
:104F83008D83780C12103890862B7808121038789D
:104F93000C7908120741E5084509450A450B702AB3
:104FA30074011210AD12517D75F009A4F8AAF075C1
:104FB300F009E9A42AF9746328F582740339F583A7
:104FC3007401F07A007B0812518A8E828F83A3A327
:104FD300A3A3A3A3A3A3A3A3E02406FCA3E03400F9
:104FE300FD8E828F83125E03126525603EEE240AD6
:104FF30012514F124A037468124A35E81251493963
:10500300F5837402F09016181210968C828D831219
:105013005FFC125BEE3CF5831210729085DF78081B
:105023001210389016187808120F311251C5705D9E
:105033009015E6125175A3A3A3A3A3A3A3A3A3A3AC
:10504300125C241217F2E97010125BE29015E6125B
:105053005BF4700512652560348E828F83A3A3A34E
:10506300A3A3A3A3A3A3A3125175124BC8121C3667
:10507300E960118E828F83A3A3A3A3A3A31251B1CB
:10508300E4F0A3F08E828F83125197E4F01251C59E
:1050930060030251448E828F83A3A3A3A3A3A3120D
:1050A300799F90162DE0600302513990165FE064FA
:1050B300016003025139750A3A750B00780A120D23
:1050C300BC7402120E35880A890B780A120DBC12C1
:1050D3006F9E120D99E9705BE508240E12625474F9
:1050E300011251DFC0E0E5082411126254D0E0F050
:1050F300E508240F126254743A124A3590161412BA
:105103001096E50824121262541210729085DF780B
:10511300081210389016147808120F319085DF7832
:10512300081210389016147808120E8E7008125157
:105133008680031251671251C57006125AE574A195
:10514300F0740B0268D7240EF582E422F8E43FF9E9
:10515300E8FCE9FD8882F58322EA12516122240FDB
:10516300F582E422E5081251613509F583E4F0A3E1
:10517300F02212750A8E828F832212518122123FEE
:1051830016E8227A007B029014BFE0F91216A222DD
:105193008A828B83A3A3A3A3A3A3A3A3A3A3125131
:1051A300A5221249D8240EF582E438F58322A3A35D
:1051B300A3A31251B9221249D8240FF582E438F57A
:1051C30083228E828F83A3A3A3A3A3A31249D024F4
:1051D3000FF582E438F58312518149221251E322FB
:1051E300F0852182852283E02274F61207B0EAFE5D
:1051F300EBFF7A237B001216F6EE240AF508E43F50
:10520300F50985088212600D7C237D007900121652
:105213004E8508828509831251DA70030252ADEE7E
:10522300FAEFFB121FAE1251C560748E828F831288
:1052330052E064018E828F83A3A3A3A3A3A3700769
:105243001252D6740E80211251DA70101265257035
:105253000B8E828F83A3A3E0A2E050071252CC747B
:105263000D80051252CC7405126537540364017026
:10527300071252B47405800B90162EE0C0E0125250
:10528300B4D0E01252EFF583888212564A85088221
:105293008509831249C0125FA138F583E9800E8521
:1052A30008828509831260868003125FC9F0023F7A
:1052B300078E828F83A3A3A3A3A3A3A3A3A3A31252
:1052C30052C622E0125FE8A3228E828F83A3A3A398
:1052D300A3A3A31249D0125FA738F58322A3A3A3E4
:1052E300A3A3A3A3A3A3A31251A5E0221252F322C3
:1052F300126A76F8A3E022EA1253023BF5832224D2
:105303000CF582E42274F11207B074E4120E4D8A94
:105313000C8B0D8C088D097A237B001216F68A0AF2
:105323008B0BAE0AAF0BEA4F7003025605125FAD4B
:10533300E5082415125636687003A3E0698E828F40
:10534300837004740280027401F0E508240DF8E40C
:105353003509F98882F583E0FAC3E49AFA95E0FB0C
:105363001256322AFAA3E03BFB8E828F83A3A3A3B8
:10537300A3125C0B8E828F83A3A3F0EE2420F5820D
:10538300E43FF583E4F0EE2421F582E43FF583E482
:10539300F0EEFAEFFB12206285088285098312562C
:1053A3005170098E828F83A37405800690162E1286
:1053B300563FF0EE2417F50AE43FF50B8E828F83F8
:1053C30012564AE9850A82850B83F0EE2416F8E427
:1053D3003FF9E508240EFAE43509FB888289831234
:1053E3004A1DE5082410FAE43509FB850A82850B7A
:1053F30083E0FC88828983E0F88A828B83E0C39808
:10540300C39CF812568BF0EEFCEFFDAA0CAB0D1209
:105413001FA8E9F50B8E828F83E064027006125B8E
:10542300E212560FE50B60030255FC750C00750D77
:1054330000901878E064016005E06402703F125642
:10544300216008EE242112562470328E828F83A3AA
:10545300A3A3125FCF125657EE241612561D1256EF
:1054630080FAE439FB123D0FEA4B601112683112E6
:105473000DB8125665AA0C126CCF120D99EEFAEF05
:10548300FB12206EE9F50B901878E064016008E0E8
:10549300640260030255EFE970030255EFE50C4522
:1054A3000D70030255FC8003850E0B125621600B11
:1054B300EE242112562460030255F5850B0E850C4C
:1054C30008850D09750A007808120DB81256658E05
:1054D300828F83A3A3A3A31279E8120D99EE24204C
:1054E30012561D600D12562A7468124A35EE242096
:1054F3008015EE242112561D601512562A7403F0EE
:10550300A37401F0EE2421F582E43FF583E4F0EE89
:10551300FAEFFB12206EE9F50B70907C137D007996
:10552300007409120E3D12164E741A1210AD740156
:1055330012569664687002A3E0704F8E828F8312B6
:1055430051B1E0640560030254AB7C0879FF8E829D
:105553008F83A3A3A3A3E0242A125C271216D8E9FE
:1055630070030254AB7C087D0079FF7401120E3D79
:1055730012164E7401120E457A007B0079AB121F8E
:105583008A74191210AD74FC801512562AE0640354
:105593007004A3E06401700874191210AD74FFF075
:1055A300E4F508F5097808120DBC7402120E45746F
:1055B300131210ADAA82AB8312610C120D998521CF
:1055C30082852283E0602B7409120E3588088909CD
:1055D3007808120DBC7508137509007808120DBC04
:1055E3007C007D0012697F120D998006E50C450D44
:1055F3006007AA0CAB0D1216FCEEFAEFFB1216FCB9
:105603008003750B10A90B741C0275FFEE2406FAB8
:10561300E43FFB1217F822EE240C12569E22EE24CE
:105623002012569E640122EE1251613FF58322E55A
:1056330008240EF582E43509F583E022125644A3CB
:1056430022E08E828F8322A3E0F91220B022E0545D
:105653000364012212565B22E0FAE82AF8E43400DC
:10566300F9228E828F83A3A3A3125FD312565BEE1C
:10567300241612569E125680FCE439FD22FAE82ABB
:10568300F8E439F9E824042212568F22126546A35E
:10569300A3A322F012569B22EE240FF582E43FF5DA
:1056A30083E0227901020D6474F41207B0EAFEEB81
:1056B300FF8A82F583A3A3A3A3A3A3A3A31249C031
:1056C3002424F582E438F583125651702E8A828B96
:1056D300831252E07025125779E06405701D12574A
:1056E30079A3E0F8740168600574066870071251C5
:1056F30093740280051251937403F0EA240A126032
:105703007A125FE3E4F0EA2408F8E43F12306924F4
:1057130031F582E43AF583E0C0E0126D1AA3A3D019
:10572300E0125798CA242EF582E43AF583E0C0E0EC
:10573300126D1AA3A3A3D0E0125CBEC8125773382C
:10574300123F0C126D1A12578D8A0A8B0BAC0AADDD
:105753000B850882850983125C241217F885088259
:10576300850983124BC812206E126075F002307FD8
:10577300240BF582E4228A828B83A3A3A3A3A3A38E
:10578300A3A312650CF583888222A3A3A3A3124AC1
:105793005F1221DC22125C00FAA3E0220256A6C0AB
:1057A30082C08390160874B4F0A3741FF090160A95
:1057B30074C0F0A3741FF090160C74C6F0A3741F8A
:1057C300F090160E74BAF0A3741FF0025AA974F481
:1057D3001207B0EA2408FEE43BFF8E82F5831251E0
:1057E3007D125FB9E0F50874035508F509125C1FD3
:1057F300F8A3E08882F583E508F0A3A882A983E5EE
:105803000960097402650960030258BE740C5508E7
:10581300FC600A74086C600574046C70267402657D
:10582300097006E508A2E4401A8A828B83A3A3A326
:10583300A3A3A3A3A31259C41267123D12595FA3D2
:1058430008A983740C6C701C1259C024281259AC1B
:105853002428F582E43DF583A3126340F0E8240293
:10586300F8500109740265097006E508A2E4404B8B
:105873001259C0242A1259AC242AF582E43DF58337
:10588300A312596E1259CA1263401259CAA312596C
:1058930066E82404F8500109EC600F74086C600A90
:1058A300740C6C600574046C7011125FF02426F59F
:1058B30082E43C12595FA3A882A9838A828B83A3C3
:1058C300A3A3A3A3A3A3A312598E54037014E5089F
:1058D300A2E1400E125FF01259593CF583E0548067
:1058E300600812597412596180199015DCE0C0E008
:1058F300125974D0E01259A1888289831259A104E4
:10590300125C05A3A882A983E508A2E750458E820D
:105913008F8312598E888289831259A712599354FF
:10592300036030125FF02434F582E43C12633EF0EE
:10593300E508A2E1501D8A828B83A3A3A3A3A3A39B
:10594300A3A312306E2435F582E43A12633EA3F02A
:10595300E8240302307F241EF582E422F5831259E2
:105963006EF02212596EA3A3A3F022E088828983EA
:10597300228A828B83A3A3A3A3A3A3A3A3E0FCA351
:10598300E0CC2432F582E43CF58322E012599322E1
:10599300FCA3E0CC2425F582E43CF583E022F090DF
:1059A30015DCE022126542E022F582E43DF5831224
:1059B300596E1259B9221265461259C4228E828F2A
:1059C30083E0FDA3E0CD22A31259B9242CF582E490
:1059D3003DF58322C082C0838A828B83125A99FC4D
:1059E30074035CF98A828B83A3A37401F0E96005D5
:1059F3007402697061740C5CF8600A74086860056D
:105A030074046870137402697005ECA2E440098A97
:105A1300828B83A3A37402F0740C68700A8A828B4E
:105A230083A3A3E02402F07402697005ECA2E440AE
:105A3300258A828B83A3A3E02404F0E8600F740813
:105A430068600A740C68600574046870098A828B44
:105A530083A3A3E004F0ECA2E7502A8A828B83A3FA
:105A6300A3E004125A9F123578E0540360178A8228
:105A73008B83A3A3E004F0ECA2E150098A828B8319
:105A8300A3A3E004F08A828B83A3A3E004F080162F
:105A93008521828522831252C6A3E022F08A828B5B
:105AA30083E022120D99D083D082020D64C082C09C
:105AB300838A828B83A3A3A3A3A3A3A3A3A3A312D6
:105AC30051DA60098A828B83A3A3125AD280D7A3A7
:105AD300A3A3A3A3A3A3A3125ADE22124BD012168D
:105AE300FC22125AE922EE240CF582E43FF58322CC
:105AF30074F61207B074F4120E4D125C2EFCA3E080
:105B0300F5838C82A3E0C0E074021210ADD0E012E2
:105B13005CDC125CC574041210AD126CA874021222
:105B230010ADE064047014125C442412125C2774F8
:105B3300061210AD125C0B241A8035E06401600577
